{
  "_format": "hh-sol-artifact-1",
  "contractName": "Proxy",
  "sourceName": "contracts/Proxy.sol",
  "abi": [
    {
      "inputs": [],
      "stateMutability": "nonpayable",
      "type": "constructor"
    },
    {
      "stateMutability": "payable",
      "type": "fallback"
    },
    {
      "inputs": [],
      "name": "getImplementationAddress",
      "outputs": [
        {
          "internalType": "address",
          "name": "",
          "type": "address"
        }
      ],
      "stateMutability": "view",
      "type": "function"
    },
    {
      "stateMutability": "payable",
      "type": "receive"
    }
  ],
  "bytecode": "0x60a060405234801561001057600080fd5b50336080526080516101c761002f6000396000607901526101c76000f3fe6080604052600436106100225760003560e01c80630cbcae701461003957610031565b366100315761002f610077565b005b61002f610077565b34801561004557600080fd5b5061004e61014e565b60405173ffffffffffffffffffffffffffffffffffffffff909116815260200160405180910390f35b7f000000000000000000000000000000000000000000000000000000000000000061011c565b60043560601b60601c6bca11c0de15dead10cced00006000195460a01c036100e9577f696d706c6f63000000000000000000000000000000000000000000000000000060005260206000fd5b8060001955005b60405136810160405236600082376000803683600019545af43d6000833e80610117573d82fd5b503d81f35b80330361014357602436036101435763ca11c0de60003560e01c036101435761014361009d565b61014b6100f0565b50565b600073ffffffffffffffffffffffffffffffffffffffff7fffffffffffffffffffffffffffffffffffffffffffffffffffffffffffffffff541660005260206000f3fea2646970667358221220f27ad3f3b75609baa5d26d65ec1001c4a59f38e89088d6b47517c1cd1faf22ab64736f6c634300080d0033",
  "linkReferences": {},
  "deployedLinkReferences": {}
}