{
  "_format": "hh-sol-artifact-1",
  "contractName": "MagicTokenTransferErrorCodes",
  "sourceName": "contracts/libraries/errorCodes/MagicTokenTransferErrorCodes.sol",
  "abi": [
    {
      "inputs": [],
      "name": "MAGICTOKENTRANSFER_TRANSFER_FAILED",
      "outputs": [
        {
          "internalType": "bytes32",
          "name": "",
          "type": "bytes32"
        }
      ],
      "stateMutability": "view",
      "type": "function"
    }
  ],
  "bytecode": "0x60a6610038600b82828239805160001a607314602b57634e487b7160e01b600052600060045260246000fd5b30600052607381538281f3fe730000000000000000000000000000000000000000301460806040526004361060335760003560e01c80638a96a393146038575b600080fd5b605e7f323130300000000000000000000000000000000000000000000000000000000081565b60405190815260200160405180910390f3fea264697066735822122080a3128776e6ac081746a6e86fffad1edac696c5b35e3092a33cc613093d6d1864736f6c634300080d0033",
  "linkReferences": {},
  "deployedLinkReferences": {}
}