{
  "_format": "hh-sol-artifact-1",
  "contractName": "Accusations",
  "sourceName": "contracts/Accusations.sol",
  "abi": [
    {
      "inputs": [],
      "stateMutability": "nonpayable",
      "type": "constructor"
    },
    {
      "inputs": [
        {
          "internalType": "bytes",
          "name": "_pClaims",
          "type": "bytes"
        },
        {
          "internalType": "bytes",
          "name": "_pClaimsSig",
          "type": "bytes"
        },
        {
          "internalType": "bytes",
          "name": "_bClaims",
          "type": "bytes"
        },
        {
          "internalType": "bytes",
          "name": "_bClaimsSigGroup",
          "type": "bytes"
        },
        {
          "internalType": "bytes",
          "name": "_txInPreImage",
          "type": "bytes"
        },
        {
          "internalType": "bytes[3]",
          "name": "_proofs",
          "type": "bytes[3]"
        }
      ],
      "name": "AccuseInvalidTransactionConsumption",
      "outputs": [
        {
          "internalType": "address",
          "name": "",
          "type": "address"
        }
      ],
      "stateMutability": "view",
      "type": "function"
    },
    {
      "inputs": [
        {
          "internalType": "bytes32",
          "name": "_salt",
          "type": "bytes32"
        },
        {
          "internalType": "address",
          "name": "_factory",
          "type": "address"
        }
      ],
      "name": "getMetamorphicContractAddress",
      "outputs": [
        {
          "internalType": "address",
          "name": "",
          "type": "address"
        }
      ],
      "stateMutability": "pure",
      "type": "function"
    }
  ],
  "bytecode": "0x6101006040523480156200001257600080fd5b5033608052620000c468536e617073686f747360b81b6200003260805190565b6040517fff0000000000000000000000000000000000000000000000000000000000000060208201526001600160601b0319606083901b166021820152603581018390527f1c0bf703a3415cada9785e89e9d70314c3111ae7d8e04f33bb42eb1d264088be6055820181905260009160750160408051601f198184030181529190528051602090910120949350505050565b6001600160a01b031660a052620000e865455448444b4760d01b6200003260805190565b6001600160a01b031660c052620001136c15985b1a59185d1bdc941bdbdb609a1b6200003260805190565b6001600160a01b031660e05260805160a05160c05160e051613abc6200015360003960006103ac0152600050506000610293015260005050613abc6000f3fe608060405234801561001057600080fd5b50600436106100365760003560e01c80638653a4651461003b578063cac6a5f014610077575b600080fd5b61004e61004936600461345a565b61008a565b60405173ffffffffffffffffffffffffffffffffffffffff909116815260200160405180910390f35b61004e61008536600461360b565b610137565b6040517fff0000000000000000000000000000000000000000000000000000000000000060208201527fffffffffffffffffffffffffffffffffffffffff000000000000000000000000606083901b166021820152603581018390527f1c0bf703a3415cada9785e89e9d70314c3111ae7d8e04f33bb42eb1d264088be605582018190526000916075016040516020818303038152906040528051906020012060001c9150505b92915050565b6000610143858561076c565b600061014e8661083a565b9050600061015b89610889565b80516040015190915063ffffffff166101e15760405162461bcd60e51b815260206004820152603f60248201527f41636375736174696f6e733a2054686520616363757365642070726f706f736160448201527f6c20646f65736e2774206861766520616e79207472616e73616374696f6e210060648201526084015b60405180910390fd5b80600001516020015163ffffffff1682602001516001610201919061372f565b63ffffffff161461027a5760405162461bcd60e51b815260206004820152602560248201527f41636375736174696f6e733a204865696768742064656c74612073686f756c6460448201527f206265203100000000000000000000000000000000000000000000000000000060648201526084016101d8565b805151825163ffffffff908116911614801561032a57507f000000000000000000000000000000000000000000000000000000000000000073ffffffffffffffffffffffffffffffffffffffff16633408e4706040518163ffffffff1660e01b8152600401602060405180830381865afa1580156102fc573d6000803e3d6000fd5b505050506040513d601f19601f820116820180604052508101906103209190613757565b825163ffffffff16145b61039c5760405162461bcd60e51b815260206004820152602760248201527f41636375736174696f6e733a20436861696e49642073686f756c64206265207460448201527f68652073616d650000000000000000000000000000000000000000000000000060648201526084016101d8565b60006103a8898b6108a3565b90507f00000000000000000000000000000000000000000000000000000000000000006040517f20c2856d00000000000000000000000000000000000000000000000000000000815273ffffffffffffffffffffffffffffffffffffffff838116600483015291909116906320c2856d90602401602060405180830381865afa158015610439573d6000803e3d6000fd5b505050506040513d601f19601f8201168201806040525081019061045d9190613770565b6104f55760405162461bcd60e51b815260206004820152604360248201527f41636375736174696f6e733a20746865207369676e6572206f6620746865736560448201527f2070726f706f73616c206973206e6f7420612076616c69642076616c6964617460648201527f6f72210000000000000000000000000000000000000000000000000000000000608482015260a4016101d8565b60006105088660015b60200201516108ec565b905061051c81846000015160800151610b46565b60006105298760026104fe565b9050610539818360400151610b46565b600061054588826104fe565b905081604001518160400151146105c45760405162461bcd60e51b815260206004820152602360248201527f41636375736174696f6e733a20546865205554584f2073686f756c64206d617460448201527f636821000000000000000000000000000000000000000000000000000000000060648201526084016101d8565b60006105cf8a610c96565b9050806020015163ffffffff1663ffffffff0361069c5781604001518160400151146106895760405162461bcd60e51b815260206004820152605160248201527f41636375736174696f6e733a20546865206b6579206f66204d65726b6c65205060448201527f726f6f662073686f756c6420626520657175616c20746f2074686520636f6e7360648201527f756d6564206465706f736974206b657921000000000000000000000000000000608482015260a4016101d8565b610697828860a00151610b46565b61075a565b81604001516106b382604001518360200151610cbe565b1461074c5760405162461bcd60e51b815260206004820152604f60248201527f41636375736174696f6e733a20546865206b6579206f66204d65726b6c65205060448201527f726f6f662073686f756c6420626520657175616c20746f20746865205554584f60648201527f4944206265696e67207370656e74210000000000000000000000000000000000608482015260a4016101d8565b61075a828860a00151610d1f565b50929c9b505050505050505050505050565b610774613368565b61077c613386565b610787836000610f51565b80925081935050506107c284805190602001206040516020016107ac91815260200190565b60405160208183030381529060405282846110bf565b6108345760405162461bcd60e51b815260206004820152602a60248201527f41636375736174696f6e733a205369676e61747572652076657269666963617460448201527f696f6e206661696c65640000000000000000000000000000000000000000000060648201526084016101d8565b50505050565b6040805160e081018252600080825260208201819052918101829052606081018290526080810182905260a0810182905260c081019190915261013182600861088485600461126e565b61130e565b6108916133a4565b61089c8260086115e7565b5092915050565b60006108e5836040518060400160405280600881526020017f50726f706f73616c0000000000000000000000000000000000000000000000008152508461174e565b9392505050565b6040805160e0810182526000808252602082018190529181018290526060808201839052608082019290925260a0810182905260c08101919091526067825110157f313230300000000000000000000000000000000000000000000000000000000060405160200161096091815260200190565b6040516020818303038152906040529061098d5760405162461bcd60e51b81526004016101d891906137ed565b50600061099b836063611951565b905060006109aa846065611951565b90506109b781602061383e565b61ffff168261ffff1660676109cc9190613868565b6109d69190613868565b845110157f3132303100000000000000000000000000000000000000000000000000000000604051602001610a0d91815260200190565b60405160208183030381529060405290610a3a5760405162461bcd60e51b81526004016101d891906137ed565b50610a46846000611a3d565b15158352610a55846001611951565b61ffff166020840152610100836020015161ffff1611157f3132303200000000000000000000000000000000000000000000000000000000604051602001610a9f91815260200190565b60405160208183030381529060405290610acc5760405162461bcd60e51b81526004016101d891906137ed565b50610ad8846003611b30565b6040840152610ae8846023611b30565b6060840152610af8846043611b30565b6080840152610b0d84606761ffff8516611c19565b60a0840152610b3984610b21846067613880565b61ffff16610b3084602061383e565b61ffff16611c19565b60c0840152509092915050565b6080820151600003610bc05760405162461bcd60e51b815260206004820152603360248201527f4d65726b6c6550726f6f664c6962726172793a20496e76616c696420496e636c60448201527f7573696f6e204d65726b6c652070726f6f66210000000000000000000000000060648201526084016101d8565b6000610bd9836040015184608001518560200151611d60565b90506000610bfb8460c00151848487604001518860a001518960200151611e5d565b9050806108345760405162461bcd60e51b815260206004820152604160248201527f4d65726b6c6550726f6f664c6962726172793a205468652070726f6f6620646f60448201527f65736e2774206d617463682074686520726f6f74206f6620746865207472696560648201527f2100000000000000000000000000000000000000000000000000000000000000608482015260a4016101d8565b6040805160608101825260008082526020820181905291810191909152610131826008611ff9565b60008282604051602001610d0192919091825260e01b7fffffffff0000000000000000000000000000000000000000000000000000000016602082015260240190565b60405160208183030381529060405280519060200120905092915050565b6060820151158015610d3357506080820151155b15610df25760007fbc36789e7a1e281436464229828f817d6612f7b477d66591ff96a9e064bcc98a90506000610d7d8460c00151848487604001518860a001518960200151611e5d565b9050806108345760405162461bcd60e51b815260206004820152603d60248201527f4d65726b6c6550726f6f664c6962726172793a2044656661756c74206c65616660448201527f206e6f7420666f756e6420696e20746865206b6579277320706174682100000060648201526084016101d8565b606082015115801590610e085750608082015115155b15610ee3576000610e26836060015184608001518560200151611d60565b90506000610e488460c00151848487604001518860a001518960200151611e5d565b9050806108345760405162461bcd60e51b815260206004820152604b60248201527f4d65726b6c6550726f6f664c6962726172793a20546865204c656166206e6f6460448201527f652070726f766964656420776173206e6f7420666f756e6420696e207468652060648201527f6b65792773207061746821000000000000000000000000000000000000000000608482015260a4016101d8565b60405162461bcd60e51b815260206004820152603760248201527f4d65726b6c6550726f6f664c6962726172793a20496e76616c6964204e6f6e2060448201527f496e636c7573696f6e204d65726b6c652070726f6f662100000000000000000060648201526084016101d8565b610f59613368565b610f61613386565b82610f6d60c082613868565b117f3134303000000000000000000000000000000000000000000000000000000000604051602001610fa191815260200190565b60405160208183030381529060405290610fce5760405162461bcd60e51b81526004016101d891906137ed565b50610fda60c084613868565b845110157f313430310000000000000000000000000000000000000000000000000000000060405160200161101191815260200190565b6040516020818303038152906040529061103e5760405162461bcd60e51b81526004016101d891906137ed565b506110538461104e856000613868565b612198565b82526110648461104e856020613868565b60208301526110788461104e856040613868565b604083015261108c8461104e856060613868565b60608301526110a08461104e856080613868565b81526110b18461104e8560a0613868565b602082015290939092509050565b60006110c9613386565b6110d285612249565b9050611265604051806101800160405280866000600281106110f6576110f6613792565b602002015181526020018660016002811061111357611113613792565b602002015181526020017f198e9393920d483a7260bfb731fb5d25f1aa493335a9e71297e485b7aef312c281526020017f1800deef121f1e76426a00665e5c4479674322d4f75edadd46debd5cd992f6ed81526020017f275dc4a288d1afb3cbb1ac09187524c7db36395df7be3b99e673b13a075a65ec81526020017f1d9befcd05a5323e6da4d435f3b617cdb3af83285c2df711ef39c01571827f9d8152602001836000600281106111c8576111c8613792565b60200201518152602001836001600281106111e5576111e5613792565b602002015181526020018560006004811061120257611202613792565b602002015181526020018560016004811061121f5761121f613792565b602002015181526020018560026004811061123c5761123c613792565b602002015181526020018560036004811061125957611259613792565b60200201519052612ca4565b95945050505050565b60008061127b8484612d35565b905060008161ffff16118015611296575060028161ffff1611155b604080517f3131303000000000000000000000000000000000000000000000000000000000602082015201604051602081830303815290604052906112ee5760405162461bcd60e51b81526004016101d891906137ed565b508061ffff16600103611304576008915061089c565b5060009392505050565b6040805160e081018252600080825260208201819052918101829052606081018290526080810182905260a0810182905260c08101919091528261ffff831661135860b083613868565b611362919061389d565b117f313130310000000000000000000000000000000000000000000000000000000060405160200161139691815260200190565b604051602081830303815290604052906113c35760405162461bcd60e51b81526004016101d891906137ed565b5061ffff82166113d460b085613868565b6113de919061389d565b845110157f313130320000000000000000000000000000000000000000000000000000000060405160200161141591815260200190565b604051602081830303815290604052906114425760405162461bcd60e51b81526004016101d891906137ed565b508161ffff16600003611473576114638461145e856008613868565b612e2f565b63ffffffff16604082015261147b565b600060408201525b6114858484612e2f565b63ffffffff16808252604080517f313130330000000000000000000000000000000000000000000000000000000060208201529115159101604051602081830303815290604052906114ea5760405162461bcd60e51b81526004016101d891906137ed565b506114fa8461145e856004613868565b63ffffffff1660208083018290526040519115159161153f917f3131303400000000000000000000000000000000000000000000000000000000910190815260200190565b6040516020818303038152906040529061156c5760405162461bcd60e51b81526004016101d891906137ed565b506115908461ffff8416611581866030613868565b61158b919061389d565b611b30565b60608201526115a98461ffff8416611581866050613868565b60808201526115c28461ffff8416611581866070613868565b60a08201526115db8461ffff8416611581866090613868565b60c08201529392505050565b6115ef6133a4565b6000826115fe6101c882613868565b117f313330300000000000000000000000000000000000000000000000000000000060405160200161163291815260200190565b6040516020818303038152906040529061165f5760405162461bcd60e51b81526004016101d891906137ed565b50600061167685611671866004613868565b61126e565b905061168861ffff82166101c861389d565b91506116948285613868565b855110157f31333031000000000000000000000000000000000000000000000000000000006040516020016116cb91815260200190565b604051602081830303815290604052906116f85760405162461bcd60e51b81526004016101d891906137ed565b5061170e85611708866010613868565b8361130e565b835261173f8561ffff831660b0611726886010613868565b6117309190613868565b61173a919061389d565b612f42565b60208401525090939092509050565b600083516041146117c75760405162461bcd60e51b815260206004820152602960248201527f41636375736174696f6e733a205369676e61747572652073686f756c6420626560448201527f203635206279746573000000000000000000000000000000000000000000000060648201526084016101d8565b600083836040516020016117dc9291906138b4565b604080517fffffffffffffffffffffffffffffffffffffffffffffffffffffffffffffffe0818403018152918152815160209283012091870151908701516060880151929350909160001a601b81106118355780611840565b61184081601b6138da565b90508060ff16601b148061185757508060ff16601c145b6118c95760405162461bcd60e51b815260206004820152602b60248201527f41636375736174696f6e733a205369676e6174757265207573657320696e766160448201527f6c69642076657273696f6e00000000000000000000000000000000000000000060648201526084016101d8565b60408051600081526020810180835286905260ff831691810191909152606081018490526080810183905260019060a0016020604051602081039080840390855afa15801561191c573d6000803e3d6000fd5b50506040517fffffffffffffffffffffffffffffffffffffffffffffffffffffffffffffffe001519998505050505050505050565b60008161195f816002613868565b117f313030340000000000000000000000000000000000000000000000000000000060405160200161199391815260200190565b604051602081830303815290604052906119c05760405162461bcd60e51b81526004016101d891906137ed565b506119cc826002613868565b835110157f3130303500000000000000000000000000000000000000000000000000000000604051602001611a0391815260200190565b60405160208183030381529060405290611a305760405162461bcd60e51b81526004016101d891906137ed565b5050016020015160f01c90565b600081611a4b816001613868565b117f3130303600000000000000000000000000000000000000000000000000000000604051602001611a7f91815260200190565b60405160208183030381529060405290611aac5760405162461bcd60e51b81526004016101d891906137ed565b50611ab8826001613868565b835110157f3130303700000000000000000000000000000000000000000000000000000000604051602001611aef91815260200190565b60405160208183030381529060405290611b1c5760405162461bcd60e51b81526004016101d891906137ed565b505060209101015160f81c60019081161490565b600081611b3e816020613868565b117f3130313400000000000000000000000000000000000000000000000000000000604051602001611b7291815260200190565b60405160208183030381529060405290611b9f5760405162461bcd60e51b81526004016101d891906137ed565b50611bab826020613868565b835110157f3130313500000000000000000000000000000000000000000000000000000000604051602001611be291815260200190565b60405160208183030381529060405290611c0f5760405162461bcd60e51b81526004016101d891906137ed565b5050016020015190565b606082611c268382613868565b10157f3130313200000000000000000000000000000000000000000000000000000000604051602001611c5b91815260200190565b60405160208183030381529060405290611c885760405162461bcd60e51b81526004016101d891906137ed565b50611c938284613868565b845110157f3130313300000000000000000000000000000000000000000000000000000000604051602001611cca91815260200190565b60405160208183030381529060405290611cf75760405162461bcd60e51b81526004016101d891906137ed565b508167ffffffffffffffff811115611d1157611d116134a3565b6040519080825280601f01601f191660200182016040528015611d3b576020820181803683370190505b509050838301602001611d5881611d528460200190565b85613064565b509392505050565b60006101008261ffff1611158015611d76575060015b611de85760405162461bcd60e51b815260206004820152603b60248201527f4d65726b6c6550726f6f664c6962726172793a20496e76616c69642070726f6f60448201527f664865696768742c2073686f756c64206265205b302c203235365b000000000060648201526084016101d8565b8383611df6846101006138ff565b604051602001611e3e93929190928352602083019190915260f81b7fff0000000000000000000000000000000000000000000000000000000000000016604082015260410190565b6040516020818303038152906040528051906020012090509392505050565b600080857fbc36789e7a1e281436464229828f817d6612f7b477d66591ff96a9e064bcc98a826101008661ffff161115611eff5760405162461bcd60e51b815260206004820152603f60248201527f4d65726b6c6550726f6f664c6962726172793a2070726f6f664865696768742060448201527f73686f756c6420626520696e207468652072616e6765205b302c203235365d0060648201526084016101d8565b60005b8661ffff16811015611fe8576020880151600160ff83900381811b90921690911c03611f4057611f33602083613880565b9150818c01519450611f44565b8294505b611f738982611f5460018b6138ff565b611f5e91906138ff565b600160ff82900381811b8416901c1492915050565b15611fa9576040805160208101879052908101859052606001604051602081830303815290604052805190602001209350611fd6565b60408051602081018690529081018690526060016040516020818303038152906040528051906020012093505b80611fe081613922565b915050611f02565b505050909614979650505050505050565b604080516060810182526000808252602082018190529181019190915281612022603082613868565b117f313630300000000000000000000000000000000000000000000000000000000060405160200161205691815260200190565b604051602081830303815290604052906120835760405162461bcd60e51b81526004016101d891906137ed565b5061208f603083613868565b835110157f31363031000000000000000000000000000000000000000000000000000000006040516020016120c691815260200190565b604051602081830303815290604052906120f35760405162461bcd60e51b81526004016101d891906137ed565b506120fe8383612e2f565b63ffffffff16808252604080517f313630320000000000000000000000000000000000000000000000000000000060208201529115159101604051602081830303815290604052906121635760405162461bcd60e51b81526004016101d891906137ed565b506121738361145e846004613868565b63ffffffff16602082015261218d8361158b846010613868565b604082015292915050565b6000816121a681601f613868565b117f31303038000000000000000000000000000000000000000000000000000000006040516020016121da91815260200190565b604051602081830303815290604052906122075760405162461bcd60e51b81526004016101d891906137ed565b5061221382601f613868565b8351117f3130303900000000000000000000000000000000000000000000000000000000604051602001611be291815260200190565b612251613386565b612c87565b6020831015612289577f696e76616c6964206c656e00000000000000000000000000000000000000000060005260206000fd5b5b601f8311156122c857815181527fffffffffffffffffffffffffffffffffffffffffffffffffffffffffffffffe0909201916020918201910161228a565b8215612308578151815160208590036101000a7fffffffffffffffffffffffffffffffffffffffffffffffffffffffffffffffff01801990921691161781525b505050565b60007f30644e72e131a029b85045b68181585d97816a916871ca8d3c208c16d87cfd478283097f30644e72e131a029b85045b68181585d97816a916871ca8d3c208c16d87cfd4781840990507f30644e72e131a029b85045b68181585d97816a916871ca8d3c208c16d87cfd476003820890507f30644e72e131a029b85045b68181585d97816a916871ca8d3c208c16d87cfd47848509149392505050565b60c081017f30644e72e131a029b85045b68181585d97816a916871ca8d3c208c16d87cfd478384097f30644e72e131a029b85045b68181585d97816a916871ca8d3c208c16d87cfd47806004830882098060608501527f30644e72e131a029b85045b68181585d97816a916871ca8d3c208c16d87cfd45608085015260208360c08660055afa612460577f657870206d6f64206661696c656420617420310000000000000000000000000060005260206000fd5b5081517f30644e72e131a029b85045b68181585d97816a916871ca8d3c208c16d87cfd4782800991507f30644e72e131a029b85045b68181585d97816a916871ca8d3c208c16d87cfd4777b3c4d79d41a91759a9e4c7e359b6b89eaec68e62effffffd83097f30644e72e131a029b85045b68181585d97816a916871ca8d3c208c16d87cfd478282097f30644e72e131a029b85045b68181585d97816a916871ca8d3c208c16d87cfd4790810391507759e26bcea0d48bacd4f263f1acdb5c4f5763473177fffffe820890507f30644e72e131a029b85045b68181585d97816a916871ca8d3c208c16d87cfd478182097f30644e72e131a029b85045b68181585d97816a916871ca8d3c208c16d87cfd4782820990507f30644e72e131a029b85045b68181585d97816a916871ca8d3c208c16d87cfd476003820890507f0c19139cb84c680a6e14116da060561765e05aa45a1c72a34f082305b61f3f52608087015280606087015260208560c08860055afa612601577f657870206d6f64206661696c656420617420320000000000000000000000000060005260206000fd5b60017f183227397098d014dc2822db40c0ac2ecbc0b548b438e5469e10460b6c3e7ea388111561264e57507f30644e72e131a029b85045b68181585d97816a916871ca8d3c208c16d87cfd465b7f30644e72e131a029b85045b68181585d97816a916871ca8d3c208c16d87cfd47818751097f30644e72e131a029b85045b68181585d97816a916871ca8d3c208c16d87cfd478182098084036126b457848b528160208c01525050505050505050505050565b7f30644e72e131a029b85045b68181585d97816a916871ca8d3c208c16d87cfd47600186087f30644e72e131a029b85045b68181585d97816a916871ca8d3c208c16d87cfd47908103955085800993507f30644e72e131a029b85045b68181585d97816a916871ca8d3c208c16d87cfd4785850993507f30644e72e131a029b85045b68181585d97816a916871ca8d3c208c16d87cfd476003850893508360608a015260208860c08b60055afa61278f577f657870206d6f64206661696c656420617420330000000000000000000000000060005260206000fd5b7f30644e72e131a029b85045b68181585d97816a916871ca8d3c208c16d87cfd478389510991507f30644e72e131a029b85045b68181585d97816a916871ca8d3c208c16d87cfd4782830990508084036127f957848b528160208c01525050505050505050505050565b507f30644e72e131a029b85045b68181585d97816a916871ca8d3c208c16d87cfd4760047f30644e72e131a029b85045b68181585d97816a916871ca8d3c208c16d87cfd478b8c090895507f30644e72e131a029b85045b68181585d97816a916871ca8d3c208c16d87cfd4786870993507f30644e72e131a029b85045b68181585d97816a916871ca8d3c208c16d87cfd4786850993507f30644e72e131a029b85045b68181585d97816a916871ca8d3c208c16d87cfd477f2042def740cbc01bd03583cf0100e593ba56470b9af68708d2c05d6490535385850993507f30644e72e131a029b85045b68181585d97816a916871ca8d3c208c16d87cfd478585097f30644e72e131a029b85045b68181585d97816a916871ca8d3c208c16d87cfd4790810394506001850893507f30644e72e131a029b85045b68181585d97816a916871ca8d3c208c16d87cfd4784850992507f30644e72e131a029b85045b68181585d97816a916871ca8d3c208c16d87cfd4784840992507f30644e72e131a029b85045b68181585d97816a916871ca8d3c208c16d87cfd4760038408925082606089015260208760c08a60055afa6129d7577f657870206d6f64206661696c656420617420340000000000000000000000000060005260206000fd5b7f30644e72e131a029b85045b68181585d97816a916871ca8d3c208c16d87cfd4782885109938a525050506020909601959095525050505050565b60018301612a24848460018501612256565b60008253808220600183538183206002845382842060038553838520935060208552602080860152602060408601527f30644e72e131a029b85045b68181585d97816a916871ca8d3c208c16d87cfd4760a08601527f30644e72e131a029b85045b68181585d97816a916871ca8d3c208c16d87cfd47807f0e0a77c19a07df2f666ea36f7879462c0a78eb28f5c70b3dd35d438dc58f0d9d8509830891507f30644e72e131a029b85045b68181585d97816a916871ca8d3c208c16d87cfd47807f0e0a77c19a07df2f666ea36f7879462c0a78eb28f5c70b3dd35d438dc58f0d9d830985089050612b168883876123ac565b8751935060208801519250612b2b838561230d565b915081612b5c577f7831207931206e6f7420696e206375727665000000000000000000000000000060005260206000fd5b612b678882876123ac565b5086516020880151612b79818361230d565b925082612baa577f7832207932206e6f7420696e206375727665000000000000000000000000000060005260206000fd5b848652836020870152816040870152806060870152505060408460808660065afa612bf9577f626e32353620616464206661696c65640000000000000000000000000000000060005260206000fd5b8351925060208401519150612c0e828461230d565b905080612c3f577f7832207932206e6f7420696e206375727665000000000000000000000000000060005260206000fd5b506001811482151715612c76577f706f696e74206e6f74207361666520746f207369676e0000000000000000000060005260206000fd5b818652806020870152505050505050565b602082018251604051612c9c84838584612a12565b505050919050565b6000612cae6133f7565b60006020826101808660087ffffffffffffffffffffffffffffffffffffffffffffffffffffffffffffffffffa905080612d2a5760405162461bcd60e51b815260206004820152601d60248201527f656c6c69707469632063757276652070616972696e67206661696c656400000060448201526064016101d8565b505160011492915050565b600081612d43816002613868565b117f3130303200000000000000000000000000000000000000000000000000000000604051602001612d7791815260200190565b60405160208183030381529060405290612da45760405162461bcd60e51b81526004016101d891906137ed565b50612db0826002613868565b835110157f3130303300000000000000000000000000000000000000000000000000000000604051602001612de791815260200190565b60405160208183030381529060405290612e145760405162461bcd60e51b81526004016101d891906137ed565b505060209101015160e881901c61ff001660f89190911c1790565b600081612e3d816004613868565b117f3130303000000000000000000000000000000000000000000000000000000000604051602001612e7191815260200190565b60405160208183030381529060405290612e9e5760405162461bcd60e51b81526004016101d891906137ed565b50612eaa826004613868565b835110157f3130303100000000000000000000000000000000000000000000000000000000604051602001612ee191815260200190565b60405160208183030381529060405290612f0e5760405162461bcd60e51b81526004016101d891906137ed565b5050016020015160f881901c60e882901c61ff00161762ff000060d883901c161763ff00000060c89290921c919091161790565b612f4a613415565b81612f5761010882613868565b117f3134303000000000000000000000000000000000000000000000000000000000604051602001612f8b91815260200190565b60405160208183030381529060405290612fb85760405162461bcd60e51b81526004016101d891906137ed565b50612fc561010883613868565b835110157f3134303200000000000000000000000000000000000000000000000000000000604051602001612ffc91815260200190565b604051602081830303815290604052906130295760405162461bcd60e51b81526004016101d891906137ed565b5061303e83613039846010613868565b6130e2565b81526130548361304f846048613868565b610f51565b6040830152602082015292915050565b6020811061309c578251825261307b602083613868565b9150613088602084613868565b925061309560208261389d565b9050613064565b806000036130a957505050565b600060016130b883602061389d565b6130c490610100613a7a565b6130ce919061389d565b935183518516941916939093179091525050565b60408051608081018252600080825260208201819052918101829052606081019190915281613112603882613868565b117f313530300000000000000000000000000000000000000000000000000000000060405160200161314691815260200190565b604051602081830303815290604052906131735760405162461bcd60e51b81526004016101d891906137ed565b5061317f603883613868565b835110157f31353031000000000000000000000000000000000000000000000000000000006040516020016131b691815260200190565b604051602081830303815290604052906131e35760405162461bcd60e51b81526004016101d891906137ed565b506131ee8383612e2f565b63ffffffff16808252604080517f313530320000000000000000000000000000000000000000000000000000000060208201529115159101604051602081830303815290604052906132535760405162461bcd60e51b81526004016101d891906137ed565b506132638361145e846004613868565b63ffffffff166020808301829052604051911515916132a8917f3135303300000000000000000000000000000000000000000000000000000000910190815260200190565b604051602081830303815290604052906132d55760405162461bcd60e51b81526004016101d891906137ed565b506132e58361145e846008613868565b63ffffffff16604082810182905280517f3135303400000000000000000000000000000000000000000000000000000000602082015291151591016040516020818303038152906040529061334d5760405162461bcd60e51b81526004016101d891906137ed565b5061335d8361158b846018613868565b606082015292915050565b60405180608001604052806004906020820280368337509192915050565b60405180604001604052806002906020820280368337509192915050565b60408051610120810182526000918101828152606082018390526080820183905260a0820183905260c0820183905260e08201839052610100820192909252908152602081016133f2613415565b905290565b60405180602001604052806001906020820280368337509192915050565b6040805160e081019091526000606082018181526080830182905260a0830182905260c083019190915281526020810161344d613368565b81526020016133f2613386565b6000806040838503121561346d57600080fd5b82359150602083013573ffffffffffffffffffffffffffffffffffffffff8116811461349857600080fd5b809150509250929050565b7f4e487b7100000000000000000000000000000000000000000000000000000000600052604160045260246000fd5b600082601f8301126134e357600080fd5b813567ffffffffffffffff808211156134fe576134fe6134a3565b604051601f83017fffffffffffffffffffffffffffffffffffffffffffffffffffffffffffffffe0908116603f01168101908282118183101715613544576135446134a3565b8160405283815286602085880101111561355d57600080fd5b836020870160208301376000602085830101528094505050505092915050565b600082601f83011261358e57600080fd5b6040516060810167ffffffffffffffff82821081831117156135b2576135b26134a3565b8160405282915060608501868111156135ca57600080fd5b855b818110156135ff578035838111156135e45760008081fd5b6135f089828a016134d2565b855250602093840193016135cc565b50929695505050505050565b60008060008060008060c0878903121561362457600080fd5b863567ffffffffffffffff8082111561363c57600080fd5b6136488a838b016134d2565b9750602089013591508082111561365e57600080fd5b61366a8a838b016134d2565b9650604089013591508082111561368057600080fd5b61368c8a838b016134d2565b955060608901359150808211156136a257600080fd5b6136ae8a838b016134d2565b945060808901359150808211156136c457600080fd5b6136d08a838b016134d2565b935060a08901359150808211156136e657600080fd5b506136f389828a0161357d565b9150509295509295509295565b7f4e487b7100000000000000000000000000000000000000000000000000000000600052601160045260246000fd5b600063ffffffff80831681851680830382111561374e5761374e613700565b01949350505050565b60006020828403121561376957600080fd5b5051919050565b60006020828403121561378257600080fd5b815180151581146108e557600080fd5b7f4e487b7100000000000000000000000000000000000000000000000000000000600052603260045260246000fd5b60005b838110156137dc5781810151838201526020016137c4565b838111156108345750506000910152565b602081526000825180602084015261380c8160408501602087016137c1565b601f017fffffffffffffffffffffffffffffffffffffffffffffffffffffffffffffffe0169190910160400192915050565b600061ffff8083168185168183048111821515161561385f5761385f613700565b02949350505050565b6000821982111561387b5761387b613700565b500190565b600061ffff80831681851680830382111561374e5761374e613700565b6000828210156138af576138af613700565b500390565b600083516138c68184602088016137c1565b83519083019061374e8183602088016137c1565b600060ff821660ff84168060ff038211156138f7576138f7613700565b019392505050565b600061ffff8381169083168181101561391a5761391a613700565b039392505050565b60007fffffffffffffffffffffffffffffffffffffffffffffffffffffffffffffffff820361395357613953613700565b5060010190565b600181815b808511156139b357817fffffffffffffffffffffffffffffffffffffffffffffffffffffffffffffffff0482111561399957613999613700565b808516156139a657918102915b93841c939080029061395f565b509250929050565b6000826139ca57506001610131565b816139d757506000610131565b81600181146139ed57600281146139f757613a13565b6001915050610131565b60ff841115613a0857613a08613700565b50506001821b610131565b5060208310610133831016604e8410600b8410161715613a36575081810a610131565b613a40838361395a565b807fffffffffffffffffffffffffffffffffffffffffffffffffffffffffffffffff04821115613a7257613a72613700565b029392505050565b60006108e583836139bb56fea2646970667358221220eb83aac6539cc0f9e48e665089a229ccb2cc43194f3eb8310e7c46816778d71664736f6c634300080d0033",
  "linkReferences": {},
  "deployedLinkReferences": {}
}