{
  "_format": "hh-sol-artifact-1",
  "contractName": "GovernanceErrorCodes",
  "sourceName": "contracts/libraries/errorCodes/GovernanceErrorCodes.sol",
  "abi": [
    {
      "inputs": [],
      "name": "GOVERNANCE_ONLY_FACTORY_ALLOWED",
      "outputs": [
        {
          "internalType": "bytes32",
          "name": "",
          "type": "bytes32"
        }
      ],
      "stateMutability": "view",
      "type": "function"
    }
  ],
  "bytecode": "0x60a6610038600b82828239805160001a607314602b57634e487b7160e01b600052600060045260246000fd5b30600052607381538281f3fe730000000000000000000000000000000000000000301460806040526004361060335760003560e01c80634ce9164d146038575b600080fd5b605e7f323030000000000000000000000000000000000000000000000000000000000081565b60405190815260200160405180910390f3fea2646970667358221220181fb9ad7aaf63a8e4738338bfb34b12b488b34d6b968bf1a88312e406e3cf5f64736f6c634300080d0033",
  "linkReferences": {},
  "deployedLinkReferences": {}
}