{
  "_format": "hh-sol-artifact-1",
  "contractName": "ValidatorPoolErrorCodes",
  "sourceName": "contracts/libraries/errorCodes/ValidatorPoolErrorCodes.sol",
  "abi": [
    {
      "inputs": [],
      "name": "VALIDATORPOOL_ADDRESS_ALREADY_VALIDATOR",
      "outputs": [
        {
          "internalType": "bytes32",
          "name": "",
          "type": "bytes32"
        }
      ],
      "stateMutability": "view",
      "type": "function"
    },
    {
      "inputs": [],
      "name": "VALIDATORPOOL_ADDRESS_NOT_ACCUSABLE",
      "outputs": [
        {
          "internalType": "bytes32",
          "name": "",
          "type": "bytes32"
        }
      ],
      "stateMutability": "view",
      "type": "function"
    },
    {
      "inputs": [],
      "name": "VALIDATORPOOL_ADDRESS_NOT_VALIDATOR",
      "outputs": [
        {
          "internalType": "bytes32",
          "name": "",
          "type": "bytes32"
        }
      ],
      "stateMutability": "view",
      "type": "function"
    },
    {
      "inputs": [],
      "name": "VALIDATORPOOL_CALLER_NOT_VALIDATOR",
      "outputs": [
        {
          "internalType": "bytes32",
          "name": "",
          "type": "bytes32"
        }
      ],
      "stateMutability": "view",
      "type": "function"
    },
    {
      "inputs": [],
      "name": "VALIDATORPOOL_CONSENSUS_RUNNING",
      "outputs": [
        {
          "internalType": "bytes32",
          "name": "",
          "type": "bytes32"
        }
      ],
      "stateMutability": "view",
      "type": "function"
    },
    {
      "inputs": [],
      "name": "VALIDATORPOOL_DISHONEST_VALIDATOR_NOT_ACCUSABLE",
      "outputs": [
        {
          "internalType": "bytes32",
          "name": "",
          "type": "bytes32"
        }
      ],
      "stateMutability": "view",
      "type": "function"
    },
    {
      "inputs": [],
      "name": "VALIDATORPOOL_ETHDKG_ROUND_RUNNING",
      "outputs": [
        {
          "internalType": "bytes32",
          "name": "",
          "type": "bytes32"
        }
      ],
      "stateMutability": "view",
      "type": "function"
    },
    {
      "inputs": [],
      "name": "VALIDATORPOOL_ETH_BALANCE_CHANGED",
      "outputs": [
        {
          "internalType": "bytes32",
          "name": "",
          "type": "bytes32"
        }
      ],
      "stateMutability": "view",
      "type": "function"
    },
    {
      "inputs": [],
      "name": "VALIDATORPOOL_FACTORY_SHOULD_OWN_POSITION",
      "outputs": [
        {
          "internalType": "bytes32",
          "name": "",
          "type": "bytes32"
        }
      ],
      "stateMutability": "view",
      "type": "function"
    },
    {
      "inputs": [],
      "name": "VALIDATORPOOL_INSUFFICIENT_FUNDS_IN_STAKE_POSITION",
      "outputs": [
        {
          "internalType": "bytes32",
          "name": "",
          "type": "bytes32"
        }
      ],
      "stateMutability": "view",
      "type": "function"
    },
    {
      "inputs": [],
      "name": "VALIDATORPOOL_INVALID_INDEX",
      "outputs": [
        {
          "internalType": "bytes32",
          "name": "",
          "type": "bytes32"
        }
      ],
      "stateMutability": "view",
      "type": "function"
    },
    {
      "inputs": [],
      "name": "VALIDATORPOOL_MAX_VALIDATORS_MET",
      "outputs": [
        {
          "internalType": "bytes32",
          "name": "",
          "type": "bytes32"
        }
      ],
      "stateMutability": "view",
      "type": "function"
    },
    {
      "inputs": [],
      "name": "VALIDATORPOOL_MINIMUM_STAKE_NOT_MET",
      "outputs": [
        {
          "internalType": "bytes32",
          "name": "",
          "type": "bytes32"
        }
      ],
      "stateMutability": "view",
      "type": "function"
    },
    {
      "inputs": [],
      "name": "VALIDATORPOOL_MIN_BLOCK_INTERVAL_NOT_MET",
      "outputs": [
        {
          "internalType": "bytes32",
          "name": "",
          "type": "bytes32"
        }
      ],
      "stateMutability": "view",
      "type": "function"
    },
    {
      "inputs": [],
      "name": "VALIDATORPOOL_ONLY_CONTRACTS_ALLOWED",
      "outputs": [
        {
          "internalType": "bytes32",
          "name": "",
          "type": "bytes32"
        }
      ],
      "stateMutability": "view",
      "type": "function"
    },
    {
      "inputs": [],
      "name": "VALIDATORPOOL_PAYOUT_TOO_LOW",
      "outputs": [
        {
          "internalType": "bytes32",
          "name": "",
          "type": "bytes32"
        }
      ],
      "stateMutability": "view",
      "type": "function"
    },
    {
      "inputs": [],
      "name": "VALIDATORPOOL_PROFITS_ONLY_CLAIMABLE_DURING_CONSENSUS",
      "outputs": [
        {
          "internalType": "bytes32",
          "name": "",
          "type": "bytes32"
        }
      ],
      "stateMutability": "view",
      "type": "function"
    },
    {
      "inputs": [],
      "name": "VALIDATORPOOL_REGISTRATION_PARAMETER_LENGTH_MISMATCH",
      "outputs": [
        {
          "internalType": "bytes32",
          "name": "",
          "type": "bytes32"
        }
      ],
      "stateMutability": "view",
      "type": "function"
    },
    {
      "inputs": [],
      "name": "VALIDATORPOOL_SENDER_NOT_IN_EXITING_QUEUE",
      "outputs": [
        {
          "internalType": "bytes32",
          "name": "",
          "type": "bytes32"
        }
      ],
      "stateMutability": "view",
      "type": "function"
    },
    {
      "inputs": [],
      "name": "VALIDATORPOOL_TOKEN_BALANCE_CHANGED",
      "outputs": [
        {
          "internalType": "bytes32",
          "name": "",
          "type": "bytes32"
        }
      ],
      "stateMutability": "view",
      "type": "function"
    },
    {
      "inputs": [],
      "name": "VALIDATORPOOL_VALIDATORS_GREATER_THAN_AVAILABLE",
      "outputs": [
        {
          "internalType": "bytes32",
          "name": "",
          "type": "bytes32"
        }
      ],
      "stateMutability": "view",
      "type": "function"
    },
    {
      "inputs": [],
      "name": "VALIDATORPOOL_WAITING_PERIOD_NOT_MET",
      "outputs": [
        {
          "internalType": "bytes32",
          "name": "",
          "type": "bytes32"
        }
      ],
      "stateMutability": "view",
      "type": "function"
    }
  ],
  "bytecode": "0x61053361003a600b82828239805160001a60731461002d57634e487b7160e01b600052600060045260246000fd5b30600052607381538281f3fe730000000000000000000000000000000000000000301460806040526004361061018c5760003560e01c8063527991a3116100e25780638ee837c411610096578063df6f3c2611610070578063df6f3c2614610488578063e5b50fe6146104af578063fb5f6a21146104d657600080fd5b80638ee837c4146104135780639126af771461043a578063b8e6dc4d1461046157600080fd5b80637527a98f116100c75780637527a98f1461039e5780637cd62d16146103c5578063826b711b146103ec57600080fd5b8063527991a31461035057806355efc6581461037757600080fd5b80632c20647a116101445780634c08af9b1161011e5780634c08af9b146102db5780634c454a97146103025780634ce78d001461032957600080fd5b80632c20647a14610266578063329fa3411461028d57806338dce6e0146102b457600080fd5b80630ce7d41e116101755780630ce7d41e146101f15780630e144d69146102185780630e2d4d551461023f57600080fd5b8063057f2b291461019157806308abeefe146101ca575b600080fd5b6101b87f383138000000000000000000000000000000000000000000000000000000000081565b60405190815260200160405180910390f35b6101b87f383034000000000000000000000000000000000000000000000000000000000081565b6101b87f383139000000000000000000000000000000000000000000000000000000000081565b6101b87f383230000000000000000000000000000000000000000000000000000000000081565b6101b87f383133000000000000000000000000000000000000000000000000000000000081565b6101b87f383231000000000000000000000000000000000000000000000000000000000081565b6101b87f383130000000000000000000000000000000000000000000000000000000000081565b6101b87f383135000000000000000000000000000000000000000000000000000000000081565b6101b87f383134000000000000000000000000000000000000000000000000000000000081565b6101b87f383039000000000000000000000000000000000000000000000000000000000081565b6101b87f383137000000000000000000000000000000000000000000000000000000000081565b6101b87f383037000000000000000000000000000000000000000000000000000000000081565b6101b87f383132000000000000000000000000000000000000000000000000000000000081565b6101b87f383033000000000000000000000000000000000000000000000000000000000081565b6101b87f383038000000000000000000000000000000000000000000000000000000000081565b6101b87f383131000000000000000000000000000000000000000000000000000000000081565b6101b87f383031000000000000000000000000000000000000000000000000000000000081565b6101b87f383032000000000000000000000000000000000000000000000000000000000081565b6101b87f383136000000000000000000000000000000000000000000000000000000000081565b6101b87f383030000000000000000000000000000000000000000000000000000000000081565b6101b87f383036000000000000000000000000000000000000000000000000000000000081565b6101b87f38303500000000000000000000000000000000000000000000000000000000008156fea2646970667358221220b34da73e18cef73be967f82550a090551e71c9f9a6fba9df6b4073ea9edd850564736f6c634300080d0033",
  "linkReferences": {},
  "deployedLinkReferences": {}
}