{
  "_format": "hh-sol-artifact-1",
  "contractName": "CryptoLibraryErrorCodes",
  "sourceName": "contracts/libraries/errorCodes/CryptoLibraryErrorCodes.sol",
  "abi": [
    {
      "inputs": [],
      "name": "CRYPTOLIB_ELLIPTIC_CURVE_ADDITION",
      "outputs": [
        {
          "internalType": "bytes32",
          "name": "",
          "type": "bytes32"
        }
      ],
      "stateMutability": "view",
      "type": "function"
    },
    {
      "inputs": [],
      "name": "CRYPTOLIB_ELLIPTIC_CURVE_MULTIPLICATION",
      "outputs": [
        {
          "internalType": "bytes32",
          "name": "",
          "type": "bytes32"
        }
      ],
      "stateMutability": "view",
      "type": "function"
    },
    {
      "inputs": [],
      "name": "CRYPTOLIB_ELLIPTIC_CURVE_PAIRING",
      "outputs": [
        {
          "internalType": "bytes32",
          "name": "",
          "type": "bytes32"
        }
      ],
      "stateMutability": "view",
      "type": "function"
    },
    {
      "inputs": [],
      "name": "CRYPTOLIB_HASH_POINT_NOT_ON_CURVE",
      "outputs": [
        {
          "internalType": "bytes32",
          "name": "",
          "type": "bytes32"
        }
      ],
      "stateMutability": "view",
      "type": "function"
    },
    {
      "inputs": [],
      "name": "CRYPTOLIB_HASH_POINT_UNSAFE",
      "outputs": [
        {
          "internalType": "bytes32",
          "name": "",
          "type": "bytes32"
        }
      ],
      "stateMutability": "view",
      "type": "function"
    },
    {
      "inputs": [],
      "name": "CRYPTOLIB_INVERSE_ARRAY_INCORRECT",
      "outputs": [
        {
          "internalType": "bytes32",
          "name": "",
          "type": "bytes32"
        }
      ],
      "stateMutability": "view",
      "type": "function"
    },
    {
      "inputs": [],
      "name": "CRYPTOLIB_INVERSE_ARRAY_THRESHOLD_EXCEEDED",
      "outputs": [
        {
          "internalType": "bytes32",
          "name": "",
          "type": "bytes32"
        }
      ],
      "stateMutability": "view",
      "type": "function"
    },
    {
      "inputs": [],
      "name": "CRYPTOLIB_K_EQUAL_TO_J",
      "outputs": [
        {
          "internalType": "bytes32",
          "name": "",
          "type": "bytes32"
        }
      ],
      "stateMutability": "view",
      "type": "function"
    },
    {
      "inputs": [],
      "name": "CRYPTOLIB_MODULAR_EXPONENTIATION",
      "outputs": [
        {
          "internalType": "bytes32",
          "name": "",
          "type": "bytes32"
        }
      ],
      "stateMutability": "view",
      "type": "function"
    },
    {
      "inputs": [],
      "name": "CRYPTOLIB_POINTSG1_INDICES_LENGTH_MISMATCH",
      "outputs": [
        {
          "internalType": "bytes32",
          "name": "",
          "type": "bytes32"
        }
      ],
      "stateMutability": "view",
      "type": "function"
    },
    {
      "inputs": [],
      "name": "CRYPTOLIB_POINT_NOT_ON_CURVE",
      "outputs": [
        {
          "internalType": "bytes32",
          "name": "",
          "type": "bytes32"
        }
      ],
      "stateMutability": "view",
      "type": "function"
    },
    {
      "inputs": [],
      "name": "CRYPTOLIB_SIGNATURES_INDICES_LENGTH_MISMATCH",
      "outputs": [
        {
          "internalType": "bytes32",
          "name": "",
          "type": "bytes32"
        }
      ],
      "stateMutability": "view",
      "type": "function"
    },
    {
      "inputs": [],
      "name": "CRYPTOLIB_SIGNATURES_LENGTH_THRESHOLD_NOT_MET",
      "outputs": [
        {
          "internalType": "bytes32",
          "name": "",
          "type": "bytes32"
        }
      ],
      "stateMutability": "view",
      "type": "function"
    }
  ],
  "bytecode": "0x61033161003a600b82828239805160001a60731461002d57634e487b7160e01b600052600060045260246000fd5b30600052607381538281f3fe73000000000000000000000000000000000000000030146080604052600436106100e95760003560e01c8063a02127d211610096578063ba1efcc211610070578063ba1efcc21461025f578063c95d460614610286578063e2ada800146102ad578063f6019847146102d457600080fd5b8063a02127d2146101ea578063a173c4fc14610211578063ae9c1b861461023857600080fd5b8063706324d5116100c7578063706324d5146101755780638f2ba60c1461019c578063910828f4146101c357600080fd5b806330124384146100ee57806354208d85146101275780635fd3f64f1461014e575b600080fd5b6101157f373131000000000000000000000000000000000000000000000000000000000081565b60405190815260200160405180910390f35b6101157f373031000000000000000000000000000000000000000000000000000000000081565b6101157f373036000000000000000000000000000000000000000000000000000000000081565b6101157f373032000000000000000000000000000000000000000000000000000000000081565b6101157f373034000000000000000000000000000000000000000000000000000000000081565b6101157f373035000000000000000000000000000000000000000000000000000000000081565b6101157f373039000000000000000000000000000000000000000000000000000000000081565b6101157f373130000000000000000000000000000000000000000000000000000000000081565b6101157f373132000000000000000000000000000000000000000000000000000000000081565b6101157f373037000000000000000000000000000000000000000000000000000000000081565b6101157f373038000000000000000000000000000000000000000000000000000000000081565b6101157f373033000000000000000000000000000000000000000000000000000000000081565b6101157f37303000000000000000000000000000000000000000000000000000000000008156fea264697066735822122069bd4e93a7bd363f7b9cbef38f7ce268d9ca1fc465797844c30e38b0172c356a64736f6c634300080d0033",
  "linkReferences": {},
  "deployedLinkReferences": {}
}