{
  "_format": "hh-sol-artifact-1",
  "contractName": "TXInPreImageParserLibraryErrorCodes",
  "sourceName": "contracts/libraries/errorCodes/TXInPreImageParserLibraryErrorCodes.sol",
  "abi": [
    {
      "inputs": [],
      "name": "TXINPREIMAGEPARSERLIB_CHAINID_ZERO",
      "outputs": [
        {
          "internalType": "bytes32",
          "name": "",
          "type": "bytes32"
        }
      ],
      "stateMutability": "view",
      "type": "function"
    },
    {
      "inputs": [],
      "name": "TXINPREIMAGEPARSERLIB_DATA_OFFSET_OVERFLOW",
      "outputs": [
        {
          "internalType": "bytes32",
          "name": "",
          "type": "bytes32"
        }
      ],
      "stateMutability": "view",
      "type": "function"
    },
    {
      "inputs": [],
      "name": "TXINPREIMAGEPARSERLIB_INSUFFICIENT_BYTES",
      "outputs": [
        {
          "internalType": "bytes32",
          "name": "",
          "type": "bytes32"
        }
      ],
      "stateMutability": "view",
      "type": "function"
    }
  ],
  "bytecode": "0x61010661003a600b82828239805160001a60731461002d57634e487b7160e01b600052600060045260246000fd5b30600052607381538281f3fe730000000000000000000000000000000000000000301460806040526004361060475760003560e01c80635f47655014604c5780636d47fd2b146084578063ce38d0e21460aa575b600080fd5b60727f313630310000000000000000000000000000000000000000000000000000000081565b60405190815260200160405180910390f35b60727f313630300000000000000000000000000000000000000000000000000000000081565b60727f31363032000000000000000000000000000000000000000000000000000000008156fea26469706673582212202925ba934248190fb08b4480254c96407e2d8070893764c4080b024181766dce64736f6c634300080d0033",
  "linkReferences": {},
  "deployedLinkReferences": {}
}