{
  "_format": "hh-sol-artifact-1",
  "contractName": "CustomEnumerableMapsErrorCodes",
  "sourceName": "contracts/libraries/errorCodes/CustomEnumerableMapsErrorCodes.sol",
  "abi": [
    {
      "inputs": [],
      "name": "CUSTOMENUMMAP_KEY_NOT_IN_MAP",
      "outputs": [
        {
          "internalType": "bytes32",
          "name": "",
          "type": "bytes32"
        }
      ],
      "stateMutability": "view",
      "type": "function"
    }
  ],
  "bytecode": "0x60a6610038600b82828239805160001a607314602b57634e487b7160e01b600052600060045260246000fd5b30600052607381538281f3fe730000000000000000000000000000000000000000301460806040526004361060335760003560e01c80630c911506146038575b600080fd5b605e7f313930300000000000000000000000000000000000000000000000000000000081565b60405190815260200160405180910390f3fea26469706673582212201ccbab146e03808f11992a3ce00cd42249195b84e1239d57b1687dc077f38aa864736f6c634300080d0033",
  "linkReferences": {},
  "deployedLinkReferences": {}
}