{
  "_format": "hh-sol-artifact-1",
  "contractName": "PClaimsParserLibraryErrorCodes",
  "sourceName": "contracts/libraries/errorCodes/PClaimsParserLibraryErrorCodes.sol",
  "abi": [
    {
      "inputs": [],
      "name": "PCLAIMSPARSERLIB_DATA_OFFSET_OVERFLOW",
      "outputs": [
        {
          "internalType": "bytes32",
          "name": "",
          "type": "bytes32"
        }
      ],
      "stateMutability": "view",
      "type": "function"
    },
    {
      "inputs": [],
      "name": "PCLAIMSPARSERLIB_INSUFFICIENT_BYTES",
      "outputs": [
        {
          "internalType": "bytes32",
          "name": "",
          "type": "bytes32"
        }
      ],
      "stateMutability": "view",
      "type": "function"
    }
  ],
  "bytecode": "0x60d6610039600b82828239805160001a60731461002c57634e487b7160e01b600052600060045260246000fd5b30600052607381538281f3fe7300000000000000000000000000000000000000003014608060405260043610603d5760003560e01c8063d507f8ad146042578063ea2c55be14607a575b600080fd5b60687f313330300000000000000000000000000000000000000000000000000000000081565b60405190815260200160405180910390f35b60687f31333031000000000000000000000000000000000000000000000000000000008156fea264697066735822122081fcd583333f9628273a605cab7e1ac5bee8b6aa1732645bfcbc791e75df31fa64736f6c634300080d0033",
  "linkReferences": {},
  "deployedLinkReferences": {}
}