{
  "_format": "hh-sol-artifact-1",
  "contractName": "CircuitBreakerErrorCodes",
  "sourceName": "contracts/libraries/errorCodes/CircuitBreakerErrorCodes.sol",
  "abi": [
    {
      "inputs": [],
      "name": "CIRCUIT_BREAKER_CLOSED",
      "outputs": [
        {
          "internalType": "bytes32",
          "name": "",
          "type": "bytes32"
        }
      ],
      "stateMutability": "view",
      "type": "function"
    },
    {
      "inputs": [],
      "name": "CIRCUIT_BREAKER_OPENED",
      "outputs": [
        {
          "internalType": "bytes32",
          "name": "",
          "type": "bytes32"
        }
      ],
      "stateMutability": "view",
      "type": "function"
    }
  ],
  "bytecode": "0x60d6610039600b82828239805160001a60731461002c57634e487b7160e01b600052600060045260246000fd5b30600052607381538281f3fe7300000000000000000000000000000000000000003014608060405260043610603d5760003560e01c8063b181a75c146042578063c8228a7514607a575b600080fd5b60687f353030000000000000000000000000000000000000000000000000000000000081565b60405190815260200160405180910390f35b60687f35303100000000000000000000000000000000000000000000000000000000008156fea26469706673582212209520dad04944f56dee1aab4b10a3d632e26a106572df947c666ad98d203ea3eb64736f6c634300080d0033",
  "linkReferences": {},
  "deployedLinkReferences": {}
}