{
  "_format": "hh-sol-artifact-1",
  "contractName": "Base64ErrorCodes",
  "sourceName": "contracts/libraries/errorCodes/Base64ErrorCodes.sol",
  "abi": [
    {
      "inputs": [],
      "name": "BASE64_INVALID_INPUT",
      "outputs": [
        {
          "internalType": "bytes32",
          "name": "",
          "type": "bytes32"
        }
      ],
      "stateMutability": "view",
      "type": "function"
    }
  ],
  "bytecode": "0x60a6610038600b82828239805160001a607314602b57634e487b7160e01b600052600060045260246000fd5b30600052607381538281f3fe730000000000000000000000000000000000000000301460806040526004361060335760003560e01c80638548b7c8146038575b600080fd5b605e7f313830300000000000000000000000000000000000000000000000000000000081565b60405190815260200160405180910390f3fea2646970667358221220e4d4e878d6e821d21c4ede57bf272db48118a31f1122dd5381e77d2763aab86864736f6c634300080d0033",
  "linkReferences": {},
  "deployedLinkReferences": {}
}