{
  "_format": "hh-sol-artifact-1",
  "contractName": "LiquidityProviderStaking",
  "sourceName": "contracts/LiquidityProviderStaking.sol",
  "abi": [
    {
      "inputs": [],
      "stateMutability": "nonpayable",
      "type": "constructor"
    },
    {
      "anonymous": false,
      "inputs": [
        {
          "indexed": true,
          "internalType": "address",
          "name": "owner",
          "type": "address"
        },
        {
          "indexed": true,
          "internalType": "address",
          "name": "approved",
          "type": "address"
        },
        {
          "indexed": true,
          "internalType": "uint256",
          "name": "tokenId",
          "type": "uint256"
        }
      ],
      "name": "Approval",
      "type": "event"
    },
    {
      "anonymous": false,
      "inputs": [
        {
          "indexed": true,
          "internalType": "address",
          "name": "owner",
          "type": "address"
        },
        {
          "indexed": true,
          "internalType": "address",
          "name": "operator",
          "type": "address"
        },
        {
          "indexed": false,
          "internalType": "bool",
          "name": "approved",
          "type": "bool"
        }
      ],
      "name": "ApprovalForAll",
      "type": "event"
    },
    {
      "anonymous": false,
      "inputs": [
        {
          "indexed": true,
          "internalType": "address",
          "name": "from",
          "type": "address"
        },
        {
          "indexed": true,
          "internalType": "address",
          "name": "to",
          "type": "address"
        },
        {
          "indexed": true,
          "internalType": "uint256",
          "name": "tokenId",
          "type": "uint256"
        }
      ],
      "name": "Transfer",
      "type": "event"
    },
    {
      "inputs": [
        {
          "internalType": "address",
          "name": "to",
          "type": "address"
        },
        {
          "internalType": "uint256",
          "name": "tokenId",
          "type": "uint256"
        }
      ],
      "name": "approve",
      "outputs": [],
      "stateMutability": "nonpayable",
      "type": "function"
    },
    {
      "inputs": [
        {
          "internalType": "address",
          "name": "owner",
          "type": "address"
        }
      ],
      "name": "balanceOf",
      "outputs": [
        {
          "internalType": "uint256",
          "name": "",
          "type": "uint256"
        }
      ],
      "stateMutability": "view",
      "type": "function"
    },
    {
      "inputs": [
        {
          "internalType": "uint256",
          "name": "tokenID_",
          "type": "uint256"
        }
      ],
      "name": "burn",
      "outputs": [
        {
          "internalType": "uint256",
          "name": "payoutEth",
          "type": "uint256"
        },
        {
          "internalType": "uint256",
          "name": "payoutAToken",
          "type": "uint256"
        }
      ],
      "stateMutability": "nonpayable",
      "type": "function"
    },
    {
      "inputs": [
        {
          "internalType": "address",
          "name": "to_",
          "type": "address"
        },
        {
          "internalType": "uint256",
          "name": "tokenID_",
          "type": "uint256"
        }
      ],
      "name": "burnTo",
      "outputs": [
        {
          "internalType": "uint256",
          "name": "payoutEth",
          "type": "uint256"
        },
        {
          "internalType": "uint256",
          "name": "payoutAToken",
          "type": "uint256"
        }
      ],
      "stateMutability": "nonpayable",
      "type": "function"
    },
    {
      "inputs": [],
      "name": "circuitBreakerState",
      "outputs": [
        {
          "internalType": "bool",
          "name": "",
          "type": "bool"
        }
      ],
      "stateMutability": "view",
      "type": "function"
    },
    {
      "inputs": [
        {
          "internalType": "uint256",
          "name": "tokenID_",
          "type": "uint256"
        }
      ],
      "name": "collectEth",
      "outputs": [
        {
          "internalType": "uint256",
          "name": "payout",
          "type": "uint256"
        }
      ],
      "stateMutability": "nonpayable",
      "type": "function"
    },
    {
      "inputs": [
        {
          "internalType": "address",
          "name": "to_",
          "type": "address"
        },
        {
          "internalType": "uint256",
          "name": "tokenID_",
          "type": "uint256"
        }
      ],
      "name": "collectEthTo",
      "outputs": [
        {
          "internalType": "uint256",
          "name": "payout",
          "type": "uint256"
        }
      ],
      "stateMutability": "nonpayable",
      "type": "function"
    },
    {
      "inputs": [
        {
          "internalType": "uint256",
          "name": "tokenID_",
          "type": "uint256"
        }
      ],
      "name": "collectToken",
      "outputs": [
        {
          "internalType": "uint256",
          "name": "payout",
          "type": "uint256"
        }
      ],
      "stateMutability": "nonpayable",
      "type": "function"
    },
    {
      "inputs": [
        {
          "internalType": "address",
          "name": "to_",
          "type": "address"
        },
        {
          "internalType": "uint256",
          "name": "tokenID_",
          "type": "uint256"
        }
      ],
      "name": "collectTokenTo",
      "outputs": [
        {
          "internalType": "uint256",
          "name": "payout",
          "type": "uint256"
        }
      ],
      "stateMutability": "nonpayable",
      "type": "function"
    },
    {
      "inputs": [
        {
          "internalType": "uint8",
          "name": "magic_",
          "type": "uint8"
        }
      ],
      "name": "depositEth",
      "outputs": [],
      "stateMutability": "payable",
      "type": "function"
    },
    {
      "inputs": [
        {
          "internalType": "uint8",
          "name": "magic_",
          "type": "uint8"
        },
        {
          "internalType": "uint256",
          "name": "amount_",
          "type": "uint256"
        }
      ],
      "name": "depositToken",
      "outputs": [],
      "stateMutability": "nonpayable",
      "type": "function"
    },
    {
      "inputs": [
        {
          "internalType": "uint256",
          "name": "tokenID_",
          "type": "uint256"
        }
      ],
      "name": "estimateEthCollection",
      "outputs": [
        {
          "internalType": "uint256",
          "name": "payout",
          "type": "uint256"
        }
      ],
      "stateMutability": "view",
      "type": "function"
    },
    {
      "inputs": [],
      "name": "estimateExcessEth",
      "outputs": [
        {
          "internalType": "uint256",
          "name": "excess",
          "type": "uint256"
        }
      ],
      "stateMutability": "view",
      "type": "function"
    },
    {
      "inputs": [],
      "name": "estimateExcessToken",
      "outputs": [
        {
          "internalType": "uint256",
          "name": "excess",
          "type": "uint256"
        }
      ],
      "stateMutability": "view",
      "type": "function"
    },
    {
      "inputs": [
        {
          "internalType": "uint256",
          "name": "tokenID_",
          "type": "uint256"
        }
      ],
      "name": "estimateTokenCollection",
      "outputs": [
        {
          "internalType": "uint256",
          "name": "payout",
          "type": "uint256"
        }
      ],
      "stateMutability": "view",
      "type": "function"
    },
    {
      "inputs": [],
      "name": "getAccumulatorScaleFactor",
      "outputs": [
        {
          "internalType": "uint256",
          "name": "",
          "type": "uint256"
        }
      ],
      "stateMutability": "pure",
      "type": "function"
    },
    {
      "inputs": [
        {
          "internalType": "uint256",
          "name": "tokenId",
          "type": "uint256"
        }
      ],
      "name": "getApproved",
      "outputs": [
        {
          "internalType": "address",
          "name": "",
          "type": "address"
        }
      ],
      "stateMutability": "view",
      "type": "function"
    },
    {
      "inputs": [],
      "name": "getEthAccumulator",
      "outputs": [
        {
          "internalType": "uint256",
          "name": "accumulator",
          "type": "uint256"
        },
        {
          "internalType": "uint256",
          "name": "slush",
          "type": "uint256"
        }
      ],
      "stateMutability": "view",
      "type": "function"
    },
    {
      "inputs": [],
      "name": "getMaxMintLock",
      "outputs": [
        {
          "internalType": "uint256",
          "name": "",
          "type": "uint256"
        }
      ],
      "stateMutability": "pure",
      "type": "function"
    },
    {
      "inputs": [
        {
          "internalType": "bytes32",
          "name": "_salt",
          "type": "bytes32"
        },
        {
          "internalType": "address",
          "name": "_factory",
          "type": "address"
        }
      ],
      "name": "getMetamorphicContractAddress",
      "outputs": [
        {
          "internalType": "address",
          "name": "",
          "type": "address"
        }
      ],
      "stateMutability": "pure",
      "type": "function"
    },
    {
      "inputs": [
        {
          "internalType": "uint256",
          "name": "tokenID_",
          "type": "uint256"
        }
      ],
      "name": "getPosition",
      "outputs": [
        {
          "internalType": "uint256",
          "name": "shares",
          "type": "uint256"
        },
        {
          "internalType": "uint256",
          "name": "freeAfter",
          "type": "uint256"
        },
        {
          "internalType": "uint256",
          "name": "withdrawFreeAfter",
          "type": "uint256"
        },
        {
          "internalType": "uint256",
          "name": "accumulatorEth",
          "type": "uint256"
        },
        {
          "internalType": "uint256",
          "name": "accumulatorToken",
          "type": "uint256"
        }
      ],
      "stateMutability": "view",
      "type": "function"
    },
    {
      "inputs": [],
      "name": "getTokenAccumulator",
      "outputs": [
        {
          "internalType": "uint256",
          "name": "accumulator",
          "type": "uint256"
        },
        {
          "internalType": "uint256",
          "name": "slush",
          "type": "uint256"
        }
      ],
      "stateMutability": "view",
      "type": "function"
    },
    {
      "inputs": [],
      "name": "getTotalReserveAToken",
      "outputs": [
        {
          "internalType": "uint256",
          "name": "",
          "type": "uint256"
        }
      ],
      "stateMutability": "view",
      "type": "function"
    },
    {
      "inputs": [],
      "name": "getTotalReserveEth",
      "outputs": [
        {
          "internalType": "uint256",
          "name": "",
          "type": "uint256"
        }
      ],
      "stateMutability": "view",
      "type": "function"
    },
    {
      "inputs": [],
      "name": "getTotalShares",
      "outputs": [
        {
          "internalType": "uint256",
          "name": "",
          "type": "uint256"
        }
      ],
      "stateMutability": "view",
      "type": "function"
    },
    {
      "inputs": [],
      "name": "initialize",
      "outputs": [],
      "stateMutability": "nonpayable",
      "type": "function"
    },
    {
      "inputs": [
        {
          "internalType": "address",
          "name": "owner",
          "type": "address"
        },
        {
          "internalType": "address",
          "name": "operator",
          "type": "address"
        }
      ],
      "name": "isApprovedForAll",
      "outputs": [
        {
          "internalType": "bool",
          "name": "",
          "type": "bool"
        }
      ],
      "stateMutability": "view",
      "type": "function"
    },
    {
      "inputs": [
        {
          "internalType": "uint256",
          "name": "tokenID_",
          "type": "uint256"
        },
        {
          "internalType": "uint256",
          "name": "lockDuration_",
          "type": "uint256"
        }
      ],
      "name": "lockOwnPosition",
      "outputs": [
        {
          "internalType": "uint256",
          "name": "",
          "type": "uint256"
        }
      ],
      "stateMutability": "nonpayable",
      "type": "function"
    },
    {
      "inputs": [
        {
          "internalType": "address",
          "name": "caller_",
          "type": "address"
        },
        {
          "internalType": "uint256",
          "name": "tokenID_",
          "type": "uint256"
        },
        {
          "internalType": "uint256",
          "name": "lockDuration_",
          "type": "uint256"
        }
      ],
      "name": "lockPosition",
      "outputs": [
        {
          "internalType": "uint256",
          "name": "",
          "type": "uint256"
        }
      ],
      "stateMutability": "nonpayable",
      "type": "function"
    },
    {
      "inputs": [
        {
          "internalType": "uint256",
          "name": "tokenID_",
          "type": "uint256"
        },
        {
          "internalType": "uint256",
          "name": "lockDuration_",
          "type": "uint256"
        }
      ],
      "name": "lockWithdraw",
      "outputs": [
        {
          "internalType": "uint256",
          "name": "",
          "type": "uint256"
        }
      ],
      "stateMutability": "nonpayable",
      "type": "function"
    },
    {
      "inputs": [
        {
          "internalType": "uint256",
          "name": "amount_",
          "type": "uint256"
        }
      ],
      "name": "mint",
      "outputs": [
        {
          "internalType": "uint256",
          "name": "tokenID",
          "type": "uint256"
        }
      ],
      "stateMutability": "nonpayable",
      "type": "function"
    },
    {
      "inputs": [
        {
          "internalType": "address",
          "name": "to_",
          "type": "address"
        },
        {
          "internalType": "uint256",
          "name": "amount_",
          "type": "uint256"
        },
        {
          "internalType": "uint256",
          "name": "lockDuration_",
          "type": "uint256"
        }
      ],
      "name": "mintTo",
      "outputs": [
        {
          "internalType": "uint256",
          "name": "tokenID",
          "type": "uint256"
        }
      ],
      "stateMutability": "nonpayable",
      "type": "function"
    },
    {
      "inputs": [],
      "name": "name",
      "outputs": [
        {
          "internalType": "string",
          "name": "",
          "type": "string"
        }
      ],
      "stateMutability": "view",
      "type": "function"
    },
    {
      "inputs": [
        {
          "internalType": "uint256",
          "name": "tokenId",
          "type": "uint256"
        }
      ],
      "name": "ownerOf",
      "outputs": [
        {
          "internalType": "address",
          "name": "",
          "type": "address"
        }
      ],
      "stateMutability": "view",
      "type": "function"
    },
    {
      "inputs": [
        {
          "internalType": "address",
          "name": "from",
          "type": "address"
        },
        {
          "internalType": "address",
          "name": "to",
          "type": "address"
        },
        {
          "internalType": "uint256",
          "name": "tokenId",
          "type": "uint256"
        }
      ],
      "name": "safeTransferFrom",
      "outputs": [],
      "stateMutability": "nonpayable",
      "type": "function"
    },
    {
      "inputs": [
        {
          "internalType": "address",
          "name": "from",
          "type": "address"
        },
        {
          "internalType": "address",
          "name": "to",
          "type": "address"
        },
        {
          "internalType": "uint256",
          "name": "tokenId",
          "type": "uint256"
        },
        {
          "internalType": "bytes",
          "name": "_data",
          "type": "bytes"
        }
      ],
      "name": "safeTransferFrom",
      "outputs": [],
      "stateMutability": "nonpayable",
      "type": "function"
    },
    {
      "inputs": [
        {
          "internalType": "address",
          "name": "operator",
          "type": "address"
        },
        {
          "internalType": "bool",
          "name": "approved",
          "type": "bool"
        }
      ],
      "name": "setApprovalForAll",
      "outputs": [],
      "stateMutability": "nonpayable",
      "type": "function"
    },
    {
      "inputs": [
        {
          "internalType": "address",
          "name": "to_",
          "type": "address"
        }
      ],
      "name": "skimExcessEth",
      "outputs": [
        {
          "internalType": "uint256",
          "name": "excess",
          "type": "uint256"
        }
      ],
      "stateMutability": "nonpayable",
      "type": "function"
    },
    {
      "inputs": [
        {
          "internalType": "address",
          "name": "to_",
          "type": "address"
        }
      ],
      "name": "skimExcessToken",
      "outputs": [
        {
          "internalType": "uint256",
          "name": "excess",
          "type": "uint256"
        }
      ],
      "stateMutability": "nonpayable",
      "type": "function"
    },
    {
      "inputs": [
        {
          "internalType": "bytes4",
          "name": "interfaceId",
          "type": "bytes4"
        }
      ],
      "name": "supportsInterface",
      "outputs": [
        {
          "internalType": "bool",
          "name": "",
          "type": "bool"
        }
      ],
      "stateMutability": "view",
      "type": "function"
    },
    {
      "inputs": [],
      "name": "symbol",
      "outputs": [
        {
          "internalType": "string",
          "name": "",
          "type": "string"
        }
      ],
      "stateMutability": "view",
      "type": "function"
    },
    {
      "inputs": [
        {
          "internalType": "uint256",
          "name": "tokenId",
          "type": "uint256"
        }
      ],
      "name": "tokenURI",
      "outputs": [
        {
          "internalType": "string",
          "name": "",
          "type": "string"
        }
      ],
      "stateMutability": "view",
      "type": "function"
    },
    {
      "inputs": [
        {
          "internalType": "address",
          "name": "from",
          "type": "address"
        },
        {
          "internalType": "address",
          "name": "to",
          "type": "address"
        },
        {
          "internalType": "uint256",
          "name": "tokenId",
          "type": "uint256"
        }
      ],
      "name": "transferFrom",
      "outputs": [],
      "stateMutability": "nonpayable",
      "type": "function"
    },
    {
      "inputs": [],
      "name": "tripCB",
      "outputs": [],
      "stateMutability": "nonpayable",
      "type": "function"
    }
  ],
  "bytecode": "0x6101206040523480156200001257600080fd5b5033608052620000c86c15985b1a59185d1bdc941bdbdb609a1b6200003660805190565b6040517fff0000000000000000000000000000000000000000000000000000000000000060208201526001600160601b0319606083901b166021820152603581018390527f1c0bf703a3415cada9785e89e9d70314c3111ae7d8e04f33bb42eb1d264088be6055820181905260009160750160408051601f198184030181529190528051602090910120949350505050565b6001600160a01b031660a052620000ec6520aa37b5b2b760d11b6200003660805190565b6001600160a01b031660c0526200011469476f7665726e616e636560b01b6200003660805190565b6001600160a01b031660e0526200014f7f5374616b696e67506f736974696f6e44657363726970746f72000000000000006200003660805190565b6001600160a01b03166101005260805160a05160c05160e05161010051614fd5620001d6600039600061244501526000610d82015260008181611a3b01528181611cc20152818161272c015281816135a8015281816137390152613adb015260005050600081816116f60152818161179301528181611e8301526120a70152614fd56000f3fe6080604052600436106102e75760003560e01c80638653a46511610184578063adfdc03f116100d6578063d5002f2e1161008a578063e985e9c511610064578063e985e9c5146108a0578063ea785a5e146108f6578063eb02c3011461091657600080fd5b8063d5002f2e1461084b578063e35c3e2814610860578063e42a673c1461088057600080fd5b8063be444379116100bb578063be444379146107f3578063c47c6e1414610813578063c87b56dd1461082b57600080fd5b8063adfdc03f146107be578063b88d4fde146107d357600080fd5b806395d89b411161013857806399a89ecc1161011257806399a89ecc1461076b578063a0712d681461077e578063a22cb4651461079e57600080fd5b806395d89b411461071b578063971b505b14610730578063997851321461075057600080fd5b806389465c621161016957806389465c62146106ce578063905953ed146106e657806393c5748d146106fb57600080fd5b80638653a465146105cb5780638853b950146106ae57600080fd5b80632baf2acb1161023d5780636352211e116101f15780638129fc1c116101cb5780638129fc1c146105815780638191f5e514610596578063856de8d2146105b657600080fd5b80636352211e1461052157806370a08231146105415780637aa507fb1461056157600080fd5b806342842e0e1161022257806342842e0e146104b457806342966c68146104d4578063548652d21461050957600080fd5b80632baf2acb1461047f5780633eed3eff1461049f57600080fd5b80630cc65dfb1161029f57806320ea0d481161027957806320ea0d481461041f57806323b872dd1461043f5780632a0d8bd11461045f57600080fd5b80630cc65dfb146103ca5780630e4eb15b146103ea57806319b8be2f1461040a57600080fd5b8063081812fc116102d0578063081812fc14610343578063090f70f014610388578063095ea7b3146103a857600080fd5b806301ffc9a7146102ec57806306fdde0314610321575b600080fd5b3480156102f857600080fd5b5061030c610307366004614924565b61095e565b60405190151581526020015b60405180910390f35b34801561032d57600080fd5b50610336610a43565b60405161031891906149b7565b34801561034f57600080fd5b5061036361035e3660046149ca565b610ad5565b60405173ffffffffffffffffffffffffffffffffffffffff9091168152602001610318565b34801561039457600080fd5b5062100a405b604051908152602001610318565b3480156103b457600080fd5b506103c86103c3366004614a07565b610b9a565b005b3480156103d657600080fd5b5061039a6103e5366004614a31565b610cf2565b3480156103f657600080fd5b5061039a610405366004614a64565b610ef6565b34801561041657600080fd5b50609f5461039a565b34801561042b57600080fd5b5061039a61043a3660046149ca565b61105d565b34801561044b57600080fd5b506103c861045a366004614a86565b611198565b34801561046b57600080fd5b5061039a61047a3660046149ca565b61121f565b34801561048b57600080fd5b5061039a61049a366004614a31565b611440565b3480156104ab57600080fd5b5061039a611529565b3480156104c057600080fd5b506103c86104cf366004614a86565b611533565b3480156104e057600080fd5b506104f46104ef3660046149ca565b61154e565b60408051928352602083019190915201610318565b34801561051557600080fd5b50609c54609d546104f4565b34801561052d57600080fd5b5061036361053c3660046149ca565b611565565b34801561054d57600080fd5b5061039a61055c366004614ac2565b6115fd565b34801561056d57600080fd5b5061039a61057c366004614ac2565b6116b1565b34801561058d57600080fd5b506103c8611767565b3480156105a257600080fd5b506103c86105b1366004614aee565b611970565b3480156105c257600080fd5b5060a05461039a565b3480156105d757600080fd5b506103636105e6366004614b0a565b6040517fff0000000000000000000000000000000000000000000000000000000000000060208201527fffffffffffffffffffffffffffffffffffffffff000000000000000000000000606083901b166021820152603581018390527f1c0bf703a3415cada9785e89e9d70314c3111ae7d8e04f33bb42eb1d264088be60558201819052600091607501604080517fffffffffffffffffffffffffffffffffffffffffffffffffffffffffffffffe08184030181529190528051602090910120949350505050565b3480156106ba57600080fd5b5061039a6106c9366004614a07565b611ab3565b3480156106da57600080fd5b5060985460ff1661030c565b3480156106f257600080fd5b5061039a611cf0565b34801561070757600080fd5b5061039a6107163660046149ca565b611cff565b34801561072757600080fd5b50610336611e2f565b34801561073c57600080fd5b5061039a61074b366004614ac2565b611e3e565b34801561075c57600080fd5b50670de0b6b3a764000061039a565b6103c8610779366004614b36565b611ee8565b34801561078a57600080fd5b5061039a6107993660046149ca565b611ffe565b3480156107aa57600080fd5b506103c86107b9366004614b5f565b61206c565b3480156107ca57600080fd5b506103c861207b565b3480156107df57600080fd5b506103c86107ee366004614c5a565b612118565b3480156107ff57600080fd5b5061039a61080e366004614a07565b6121a6565b34801561081f57600080fd5b50609a54609b546104f4565b34801561083757600080fd5b506103366108463660046149ca565b6123c0565b34801561085757600080fd5b5060995461039a565b34801561086c57600080fd5b5061039a61087b3660046149ca565b61251d565b34801561088c57600080fd5b5061039a61089b366004614a64565b612752565b3480156108ac57600080fd5b5061030c6108bb366004614d05565b73ffffffffffffffffffffffffffffffffffffffff9182166000908152606a6020908152604080832093909416825291909152205460ff1690565b34801561090257600080fd5b506104f4610911366004614a07565b6128b9565b34801561092257600080fd5b506109366109313660046149ca565b6128d2565b604080519586526020860194909452928401919091526060830152608082015260a001610318565b60007fffffffff0000000000000000000000000000000000000000000000000000000082167f80ac58cd0000000000000000000000000000000000000000000000000000000014806109f157507fffffffff0000000000000000000000000000000000000000000000000000000082167f5b5e139f00000000000000000000000000000000000000000000000000000000145b80610a3d57507f01ffc9a7000000000000000000000000000000000000000000000000000000007fffffffff000000000000000000000000000000000000000000000000000000008316145b92915050565b606060658054610a5290614d2f565b80601f0160208091040260200160405190810160405280929190818152602001828054610a7e90614d2f565b8015610acb5780601f10610aa057610100808354040283529160200191610acb565b820191906000526020600020905b815481529060010190602001808311610aae57829003601f168201915b5050505050905090565b60008181526067602052604081205473ffffffffffffffffffffffffffffffffffffffff16610b715760405162461bcd60e51b815260206004820152602c60248201527f4552433732313a20617070726f76656420717565727920666f72206e6f6e657860448201527f697374656e7420746f6b656e000000000000000000000000000000000000000060648201526084015b60405180910390fd5b5060009081526069602052604090205473ffffffffffffffffffffffffffffffffffffffff1690565b6000610ba582611565565b90508073ffffffffffffffffffffffffffffffffffffffff168373ffffffffffffffffffffffffffffffffffffffff1603610c485760405162461bcd60e51b815260206004820152602160248201527f4552433732313a20617070726f76616c20746f2063757272656e74206f776e6560448201527f72000000000000000000000000000000000000000000000000000000000000006064820152608401610b68565b3373ffffffffffffffffffffffffffffffffffffffff82161480610c715750610c7181336108bb565b610ce35760405162461bcd60e51b815260206004820152603860248201527f4552433732313a20617070726f76652063616c6c6572206973206e6f74206f7760448201527f6e6572206e6f7220617070726f76656420666f7220616c6c00000000000000006064820152608401610b68565b610ced83836129fe565b505050565b609854604080517f3530300000000000000000000000000000000000000000000000000000000000602082015260009260ff1615910160405160208183030381529060405290610d555760405162461bcd60e51b8152600401610b6891906149b7565b50604080517f323030330000000000000000000000000000000000000000000000000000000060208201527f000000000000000000000000000000000000000000000000000000000000000073ffffffffffffffffffffffffffffffffffffffff163314910160405160208183030381529060405290610de85760405162461bcd60e51b8152600401610b6891906149b7565b50610df283611565565b73ffffffffffffffffffffffffffffffffffffffff168473ffffffffffffffffffffffffffffffffffffffff16147f3630300000000000000000000000000000000000000000000000000000000000604051602001610e5391815260200190565b60405160208183030381529060405290610e805760405162461bcd60e51b8152600401610b6891906149b7565b50604080517f363031000000000000000000000000000000000000000000000000000000000060208201526202a300841115910160405160208183030381529060405290610ee15760405162461bcd60e51b8152600401610b6891906149b7565b50610eec8383612a9e565b90505b9392505050565b609854604080517f3530300000000000000000000000000000000000000000000000000000000000602082015260009260ff1615910160405160208183030381529060405290610f595760405162461bcd60e51b8152600401610b6891906149b7565b50610f6383611565565b73ffffffffffffffffffffffffffffffffffffffff163373ffffffffffffffffffffffffffffffffffffffff16147f3630300000000000000000000000000000000000000000000000000000000000604051602001610fc491815260200190565b60405160208183030381529060405290610ff15760405162461bcd60e51b8152600401610b6891906149b7565b50604080517f363031000000000000000000000000000000000000000000000000000000000060208201526202a3008411159101604051602081830303815290604052906110525760405162461bcd60e51b8152600401610b6891906149b7565b50610eef8383612c68565b60008181526067602052604081205473ffffffffffffffffffffffffffffffffffffffff161515604080517f3630340000000000000000000000000000000000000000000000000000000000602082015201604051602081830303815290604052906110dc5760405162461bcd60e51b8152600401610b6891906149b7565b506000828152609e6020908152604091829020825160a08101845281547bffffffffffffffffffffffffffffffffffffffffffffffffffffffff811682527c0100000000000000000000000000000000000000000000000000000000900463ffffffff168184015260018201548185015260028201546060820190815260039092015460808201526099548451808601909552609c548552609d54938501939093529051909261118e92918490612e21565b9695505050505050565b6111a23382612f8a565b6112145760405162461bcd60e51b815260206004820152603160248201527f4552433732313a207472616e736665722063616c6c6572206973206e6f74206f60448201527f776e6572206e6f7220617070726f7665640000000000000000000000000000006064820152608401610b68565b610ced8383836130e0565b60008061122b83611565565b604080517f363030000000000000000000000000000000000000000000000000000000000060208201529192503373ffffffffffffffffffffffffffffffffffffffff8416149101604051602081830303815290604052906112a05760405162461bcd60e51b8152600401610b6891906149b7565b506000838152609e60208181526040808420815160a08101835281547bffffffffffffffffffffffffffffffffffffffffffffffffffffffff811682527c0100000000000000000000000000000000000000000000000000000000900463ffffffff168185015260018201548184018190526002830154606083015260039092015460808201529488905292825280517f36303300000000000000000000000000000000000000000000000000000000008184015281518082039093018352810190529043116113835760405162461bcd60e51b8152600401610b6891906149b7565b5061139060995482613313565b6000868152609e6020908152604080832085519286015163ffffffff167c0100000000000000000000000000000000000000000000000000000000027bffffffffffffffffffffffffffffffffffffffffffffffffffffffff909316929092178255840151600182015560608401516002820155608090930151600390930192909255609f805491955085929091611429908490614dab565b90915550611439905082846133b5565b5050919050565b609854604080517f3530300000000000000000000000000000000000000000000000000000000000602082015260009260ff16159101604051602081830303815290604052906114a35760405162461bcd60e51b8152600401610b6891906149b7565b50604080517f3630320000000000000000000000000000000000000000000000000000000000602082015262100a408411159101604051602081830303815290604052906115045760405162461bcd60e51b8152600401610b6891906149b7565b5061150f8484613520565b90508115610eef576115218183612a9e565b509392505050565b6000610a3d61372f565b610ced83838360405180602001604052806000815250612118565b60008061155c333385613865565b91509150915091565b60008181526067602052604081205473ffffffffffffffffffffffffffffffffffffffff1680610a3d5760405162461bcd60e51b815260206004820152602960248201527f4552433732313a206f776e657220717565727920666f72206e6f6e657869737460448201527f656e7420746f6b656e00000000000000000000000000000000000000000000006064820152608401610b68565b600073ffffffffffffffffffffffffffffffffffffffff82166116885760405162461bcd60e51b815260206004820152602a60248201527f4552433732313a2062616c616e636520717565727920666f7220746865207a6560448201527f726f2061646472657373000000000000000000000000000000000000000000006064820152608401610b68565b5073ffffffffffffffffffffffffffffffffffffffff1660009081526068602052604090205490565b604080517f323030300000000000000000000000000000000000000000000000000000000060208201526000913373ffffffffffffffffffffffffffffffffffffffff7f000000000000000000000000000000000000000000000000000000000000000016149101604051602081830303815290604052906117465760405162461bcd60e51b8152600401610b6891906149b7565b50600061175161372f565b92509050611760818484613b15565b505b919050565b604080517f323030300000000000000000000000000000000000000000000000000000000060208201527f000000000000000000000000000000000000000000000000000000000000000073ffffffffffffffffffffffffffffffffffffffff1633149101604051602081830303815290604052906117f95760405162461bcd60e51b8152600401610b6891906149b7565b50600054610100900460ff166118155760005460ff1615611819565b303b155b61188b5760405162461bcd60e51b815260206004820152602e60248201527f496e697469616c697a61626c653a20636f6e747261637420697320616c72656160448201527f647920696e697469616c697a65640000000000000000000000000000000000006064820152608401610b68565b600054610100900460ff161580156118ca57600080547fffffffffffffffffffffffffffffffffffffffffffffffffffffffffffff0000166101011790555b61193e6040518060400160405280600781526020017f414c51534e4654000000000000000000000000000000000000000000000000008152506040518060400160405280600481526020017f414c515300000000000000000000000000000000000000000000000000000000815250613cbe565b801561196d57600080547fffffffffffffffffffffffffffffffffffffffffffffffffffffffffffff00ff1690555b50565b609854604080517f3530300000000000000000000000000000000000000000000000000000000000602082015260ff909216159101604051602081830303815290604052906119d25760405162461bcd60e51b8152600401610b6891906149b7565b50604080517f32323030000000000000000000000000000000000000000000000000000000006020820152839160ff8316602a14910160405160208183030381529060405290611a355760405162461bcd60e51b8152600401610b6891906149b7565b50611a627f00000000000000000000000000000000000000000000000000000000000000005b3384613d45565b60995460408051808201909152609a548152609b546020820152611a8891908490613e40565b8051609a5560200151609b5560a08054839190600090611aa9908490614dc2565b9091555050505050565b600080611abf83611565565b604080517f363030000000000000000000000000000000000000000000000000000000000060208201529192503373ffffffffffffffffffffffffffffffffffffffff841614910160405160208183030381529060405290611b345760405162461bcd60e51b8152600401610b6891906149b7565b506000838152609e6020908152604091829020825160a08101845281547bffffffffffffffffffffffffffffffffffffffffffffffffffffffff811682527c0100000000000000000000000000000000000000000000000000000000900463ffffffff1681840152600182015481850181905260028301546060830152600390920154608082015283517f3630330000000000000000000000000000000000000000000000000000000000818501528451808203909401845284019093524311611c115760405162461bcd60e51b8152600401610b6891906149b7565b50611c1e60995482613f20565b6000868152609e6020908152604080832085519286015163ffffffff167c0100000000000000000000000000000000000000000000000000000000027bffffffffffffffffffffffffffffffffffffffffffffffffffffffff90931692909217825584015160018201556060840151600282015560809093015160039093019290925560a0805491955085929091611cb7908490614dab565b90915550611ce890507f00000000000000000000000000000000000000000000000000000000000000008685613b15565b505092915050565b6000611cfa613fc2565b905090565b60008181526067602052604081205473ffffffffffffffffffffffffffffffffffffffff161515604080517f363034000000000000000000000000000000000000000000000000000000000060208201520160405160208183030381529060405290611d7e5760405162461bcd60e51b8152600401610b6891906149b7565b506000828152609e6020908152604091829020825160a08101845281547bffffffffffffffffffffffffffffffffffffffffffffffffffffffff811682527c0100000000000000000000000000000000000000000000000000000000900463ffffffff168184015260018201548185015260028201546060820152600390910154608082019081526099548451808601909552609a548552609b549385019390935251909261118e92918490612e21565b606060668054610a5290614d2f565b604080517f323030300000000000000000000000000000000000000000000000000000000060208201526000913373ffffffffffffffffffffffffffffffffffffffff7f00000000000000000000000000000000000000000000000000000000000000001614910160405160208183030381529060405290611ed35760405162461bcd60e51b8152600401610b6891906149b7565b50611edc613fc2565b905061176282826133b5565b609854604080517f3530300000000000000000000000000000000000000000000000000000000000602082015260ff90921615910160405160208183030381529060405290611f4a5760405162461bcd60e51b8152600401610b6891906149b7565b50604080517f32323030000000000000000000000000000000000000000000000000000000006020820152829160ff8316602a14910160405160208183030381529060405290611fad5760405162461bcd60e51b8152600401610b6891906149b7565b5060995460408051808201909152609c548152609d546020820152611fd491903490613e40565b8051609c5560200151609d55609f8054349190600090611ff5908490614dc2565b90915550505050565b609854604080517f3530300000000000000000000000000000000000000000000000000000000000602082015260009260ff16159101604051602081830303815290604052906120615760405162461bcd60e51b8152600401610b6891906149b7565b50610a3d3383613520565b61207733838361403a565b5050565b604080517f323030300000000000000000000000000000000000000000000000000000000060208201527f000000000000000000000000000000000000000000000000000000000000000073ffffffffffffffffffffffffffffffffffffffff16331491016040516020818303038152906040529061210d5760405162461bcd60e51b8152600401610b6891906149b7565b5061211661414d565b565b6121223383612f8a565b6121945760405162461bcd60e51b815260206004820152603160248201527f4552433732313a207472616e736665722063616c6c6572206973206e6f74206f60448201527f776e6572206e6f7220617070726f7665640000000000000000000000000000006064820152608401610b68565b6121a0848484846141dd565b50505050565b6000806121b283611565565b604080517f363030000000000000000000000000000000000000000000000000000000000060208201529192503373ffffffffffffffffffffffffffffffffffffffff8416149101604051602081830303815290604052906122275760405162461bcd60e51b8152600401610b6891906149b7565b506000838152609e60208181526040808420815160a08101835281547bffffffffffffffffffffffffffffffffffffffffffffffffffffffff811682527c0100000000000000000000000000000000000000000000000000000000900463ffffffff168185015260018201548184018190526002830154606083015260039092015460808201529488905292825280517f363033000000000000000000000000000000000000000000000000000000000081840152815180820390930183528101905290431161230a5760405162461bcd60e51b8152600401610b6891906149b7565b5061231760995482613313565b6000868152609e6020908152604080832085519286015163ffffffff167c0100000000000000000000000000000000000000000000000000000000027bffffffffffffffffffffffffffffffffffffffffffffffffffffffff909316929092178255840151600182015560608401516002820155608090930151600390930192909255609f8054919550859290916123b0908490614dab565b90915550611ce8905085846133b5565b60008181526067602052604090205460609073ffffffffffffffffffffffffffffffffffffffff161515604080517f3630340000000000000000000000000000000000000000000000000000000000602082015201604051602081830303815290604052906124425760405162461bcd60e51b8152600401610b6891906149b7565b507f00000000000000000000000000000000000000000000000000000000000000006040517fe9dc63750000000000000000000000000000000000000000000000000000000081523060048201526024810184905273ffffffffffffffffffffffffffffffffffffffff919091169063e9dc637590604401600060405180830381865afa1580156124d7573d6000803e3d6000fd5b505050506040513d6000823e601f3d9081017fffffffffffffffffffffffffffffffffffffffffffffffffffffffffffffffe0168201604052610a3d9190810190614dda565b60008061252983611565565b604080517f363030000000000000000000000000000000000000000000000000000000000060208201529192503373ffffffffffffffffffffffffffffffffffffffff84161491016040516020818303038152906040529061259e5760405162461bcd60e51b8152600401610b6891906149b7565b506000838152609e6020908152604091829020825160a08101845281547bffffffffffffffffffffffffffffffffffffffffffffffffffffffff811682527c0100000000000000000000000000000000000000000000000000000000900463ffffffff1681840152600182015481850181905260028301546060830152600390920154608082015283517f363033000000000000000000000000000000000000000000000000000000000081850152845180820390940184528401909352431161267b5760405162461bcd60e51b8152600401610b6891906149b7565b5061268860995482613f20565b6000868152609e6020908152604080832085519286015163ffffffff167c0100000000000000000000000000000000000000000000000000000000027bffffffffffffffffffffffffffffffffffffffffffffffffffffffff90931692909217825584015160018201556060840151600282015560809093015160039093019290925560a0805491955085929091612721908490614dab565b9091555061143990507f00000000000000000000000000000000000000000000000000000000000000008385613b15565b609854604080517f3530300000000000000000000000000000000000000000000000000000000000602082015260009260ff16159101604051602081830303815290604052906127b55760405162461bcd60e51b8152600401610b6891906149b7565b506127bf83611565565b73ffffffffffffffffffffffffffffffffffffffff163373ffffffffffffffffffffffffffffffffffffffff16147f363030000000000000000000000000000000000000000000000000000000000060405160200161282091815260200190565b6040516020818303038152906040529061284d5760405162461bcd60e51b8152600401610b6891906149b7565b50604080517f363031000000000000000000000000000000000000000000000000000000000060208201526202a3008411159101604051602081830303815290604052906128ae5760405162461bcd60e51b8152600401610b6891906149b7565b50610eef8383612a9e565b6000806128c7338585613865565b915091509250929050565b60008060008060006129088660009081526067602052604090205473ffffffffffffffffffffffffffffffffffffffff16151590565b604080517f3630340000000000000000000000000000000000000000000000000000000000602082015201604051602081830303815290604052906129605760405162461bcd60e51b8152600401610b6891906149b7565b50505060009384525050609e6020908152604092839020835160a08101855281547bffffffffffffffffffffffffffffffffffffffffffffffffffffffff81168083527c010000000000000000000000000000000000000000000000000000000090910463ffffffff169382018490526001830154958201869052600283015460608301819052600390930154608090920182905295929493509091565b600081815260696020526040902080547fffffffffffffffffffffffff00000000000000000000000000000000000000001673ffffffffffffffffffffffffffffffffffffffff84169081179091558190612a5882611565565b73ffffffffffffffffffffffffffffffffffffffff167f8c5be1e5ebec7d5bd14f71427d1e84f3dd0314c0f7b2291e5b200ac8c7c3b92560405160405180910390a45050565b60008281526067602052604081205473ffffffffffffffffffffffffffffffffffffffff161515604080517f363034000000000000000000000000000000000000000000000000000000000060208201520160405160208183030381529060405290612b1d5760405162461bcd60e51b8152600401610b6891906149b7565b506000838152609e60209081526040808320815160a08101835281547bffffffffffffffffffffffffffffffffffffffffffffffffffffffff811682527c0100000000000000000000000000000000000000000000000000000000900463ffffffff16938101939093526001810154918301919091526002810154606083015260030154608082015290612bb18443614e51565b9050816020015163ffffffff168163ffffffff1611612bd4578160200151612bd6565b805b63ffffffff90811660208085019182526000888152609e909152604090819020855192519093167c0100000000000000000000000000000000000000000000000000000000027bffffffffffffffffffffffffffffffffffffffffffffffffffffffff909216918217835584015160018301556060840151600283015560809093015160039091015550905092915050565b60008281526067602052604081205473ffffffffffffffffffffffffffffffffffffffff161515604080517f363034000000000000000000000000000000000000000000000000000000000060208201520160405160208183030381529060405290612ce75760405162461bcd60e51b8152600401610b6891906149b7565b506000838152609e60209081526040808320815160a08101835281547bffffffffffffffffffffffffffffffffffffffffffffffffffffffff811682527c0100000000000000000000000000000000000000000000000000000000900463ffffffff16938101939093526001810154918301919091526002810154606083015260030154608082015290612d7b8443614dc2565b905081604001518111612d92578160400151612d94565b805b60408084019182526000878152609e602090815291902084519185015163ffffffff167c0100000000000000000000000000000000000000000000000000000000027bffffffffffffffffffffffffffffffffffffffffffffffffffffffff9092169182178155915160018301556060840151600283015560809093015160039091015550905092915050565b60408051808201825260008082526020808301829052835160a0810185528281529081018290529283018190526060830181905260808301529060008060008760000151861115612ea557612e8b8674ffffffffffffffffffffffffffffffffffffffffff614dab565b8851909150612e9a9082614dc2565b885196509050612ec1565b8751612eb2908790614dab565b9050612ebe8187614dc2565b95505b8651600090612eee907bffffffffffffffffffffffffffffffffffffffffffffffffffffffff1683614e79565b88519091507bffffffffffffffffffffffffffffffffffffffffffffffffffffffff168a03612f30576020890151612f269082614dc2565b600060208b015290505b80612f43670de0b6b3a764000082614ee5565b9150612f57670de0b6b3a764000083614e79565b612f619082614dab565b9050808a602001818151612f759190614dc2565b905250989a9799509597509495945050505050565b60008181526067602052604081205473ffffffffffffffffffffffffffffffffffffffff166130215760405162461bcd60e51b815260206004820152602c60248201527f4552433732313a206f70657261746f7220717565727920666f72206e6f6e657860448201527f697374656e7420746f6b656e00000000000000000000000000000000000000006064820152608401610b68565b600061302c83611565565b90508073ffffffffffffffffffffffffffffffffffffffff168473ffffffffffffffffffffffffffffffffffffffff16148061309b57508373ffffffffffffffffffffffffffffffffffffffff1661308384610ad5565b73ffffffffffffffffffffffffffffffffffffffff16145b806130d8575073ffffffffffffffffffffffffffffffffffffffff8082166000908152606a602090815260408083209388168352929052205460ff165b949350505050565b8273ffffffffffffffffffffffffffffffffffffffff1661310082611565565b73ffffffffffffffffffffffffffffffffffffffff16146131895760405162461bcd60e51b815260206004820152602560248201527f4552433732313a207472616e736665722066726f6d20696e636f72726563742060448201527f6f776e65720000000000000000000000000000000000000000000000000000006064820152608401610b68565b73ffffffffffffffffffffffffffffffffffffffff82166132115760405162461bcd60e51b8152602060048201526024808201527f4552433732313a207472616e7366657220746f20746865207a65726f2061646460448201527f72657373000000000000000000000000000000000000000000000000000000006064820152608401610b68565b61321c6000826129fe565b73ffffffffffffffffffffffffffffffffffffffff83166000908152606860205260408120805460019290613252908490614dab565b909155505073ffffffffffffffffffffffffffffffffffffffff8216600090815260686020526040812080546001929061328d908490614dc2565b909155505060008181526067602052604080822080547fffffffffffffffffffffffff00000000000000000000000000000000000000001673ffffffffffffffffffffffffffffffffffffffff86811691821790925591518493918716917fddf252ad1be2c89b69c2b068fc378daa952ba7f163c4a11628f55a4df523b3ef91a4505050565b6133696040518060a0016040528060007bffffffffffffffffffffffffffffffffffffffffffffffffffffffff168152602001600063ffffffff1681526020016000815260200160008152602001600081525090565b60408051808201909152609c548152609d546020820152606083015160009182916133979187918790612e21565b8351609c55602090930151609d556060820152969095509350505050565b806000036133c1575050565b73ffffffffffffffffffffffffffffffffffffffff821661344a5760405162461bcd60e51b815260206004820152603360248201527f457468536166655472616e736665723a2063616e6e6f74207472616e7366657260448201527f2045544820746f206164647265737320307830000000000000000000000000006064820152608401610b68565b604051829060009073ffffffffffffffffffffffffffffffffffffffff83169084908381818185875af1925050503d80600081146134a4576040519150601f19603f3d011682016040523d82523d6000602084013e6134a9565b606091505b50509050806121a05760405162461bcd60e51b815260206004820152602160248201527f457468536166655472616e736665723a205472616e73666572206661696c656460448201527f2e000000000000000000000000000000000000000000000000000000000000006064820152608401610b68565b60007bffffffffffffffffffffffffffffffffffffffffffffffffffffffff8211157f363035000000000000000000000000000000000000000000000000000000000060405160200161357591815260200190565b604051602081830303815290604052906135a25760405162461bcd60e51b8152600401610b6891906149b7565b506135cc7f0000000000000000000000000000000000000000000000000000000000000000611a5b565b609954604080518082018252609c548152609d546020808301919091528251808401909352609a548352609b549083015290613606614266565b93506136128584614dc2565b60998190556040805160a081019091527bffffffffffffffffffffffffffffffffffffffffffffffffffffffff8716815290935060208101613655436001614e51565b63ffffffff16815260200161366b436001614e51565b63ffffffff9081168252845160208084019190915284516040938401526000888152609e82528381208551928601519093167c0100000000000000000000000000000000000000000000000000000000027bffffffffffffffffffffffffffffffffffffffffffffffffffffffff9092169190911782559183015160018201556060830151600282015560809092015160039092019190915560a08054879290613716908490614dc2565b909155506137269050868561427e565b50505092915050565b60a05460009081907f00000000000000000000000000000000000000000000000000000000000000006040517f70a0823100000000000000000000000000000000000000000000000000000000815230600482015290935060009073ffffffffffffffffffffffffffffffffffffffff8516906370a0823190602401602060405180830381865afa1580156137c8573d6000803e3d6000fd5b505050506040513d601f19601f820116820180604052508101906137ec9190614ef9565b9050818110157f363037000000000000000000000000000000000000000000000000000000000060405160200161382591815260200190565b604051602081830303815290604052906138525760405162461bcd60e51b8152600401610b6891906149b7565b5061385d8282614dab565b925050509091565b60008061387183611565565b73ffffffffffffffffffffffffffffffffffffffff168573ffffffffffffffffffffffffffffffffffffffff16147f36303000000000000000000000000000000000000000000000000000000000006040516020016138d291815260200190565b604051602081830303815290604052906138ff5760405162461bcd60e51b8152600401610b6891906149b7565b506000838152609e6020908152604091829020825160a08101845281547bffffffffffffffffffffffffffffffffffffffffffffffffffffffff811682527c0100000000000000000000000000000000000000000000000000000000900463ffffffff1692810183905260018201549381019390935260028101546060840152600301546080830152431180156139995750438160400151105b604080517f3630360000000000000000000000000000000000000000000000000000000000602082015201604051602081830303815290604052906139f15760405162461bcd60e51b8152600401610b6891906149b7565b506099546139ff8183613313565b94509150613a0d8183613f20565b8151909450909250613a3d907bffffffffffffffffffffffffffffffffffffffffffffffffffffffff1684614dc2565b925081600001517bffffffffffffffffffffffffffffffffffffffffffffffffffffffff1660996000828254613a739190614dab565b925050819055508260a06000828254613a8c9190614dab565b9250508190555083609f6000828254613aa59190614dab565b90915550506000858152609e60205260408120818155600181018290556002810182905560030155613ad68561440c565b613b017f00000000000000000000000000000000000000000000000000000000000000008785613b15565b613b0b86856133b5565b5050935093915050565b80600003613b2257505050565b73ffffffffffffffffffffffffffffffffffffffff8316613bab5760405162461bcd60e51b815260206004820152603f60248201527f4552433230536166655472616e736665723a2043616e6e6f742063616c6c206d60448201527f6574686f6473206f6e20636f6e74726163742061646472657373203078302e006064820152608401610b68565b6040517fa9059cbb00000000000000000000000000000000000000000000000000000000815273ffffffffffffffffffffffffffffffffffffffff8381166004830152602482018390526000919085169063a9059cbb906044015b6020604051808303816000875af1158015613c25573d6000803e3d6000fd5b505050506040513d601f19601f82011682018060405250810190613c499190614f12565b9050806121a05760405162461bcd60e51b815260206004820152602360248201527f4552433230536166655472616e736665723a205472616e73666572206661696c60448201527f65642e00000000000000000000000000000000000000000000000000000000006064820152608401610b68565b600054610100900460ff16613d3b5760405162461bcd60e51b815260206004820152602b60248201527f496e697469616c697a61626c653a20636f6e7472616374206973206e6f74206960448201527f6e697469616c697a696e670000000000000000000000000000000000000000006064820152608401610b68565b61207782826144d9565b80600003613d5257505050565b73ffffffffffffffffffffffffffffffffffffffff8316613ddb5760405162461bcd60e51b815260206004820152603f60248201527f4552433230536166655472616e736665723a2043616e6e6f742063616c6c206d60448201527f6574686f6473206f6e20636f6e74726163742061646472657373203078302e006064820152608401610b68565b6040517f23b872dd00000000000000000000000000000000000000000000000000000000815273ffffffffffffffffffffffffffffffffffffffff838116600483015230602483015260448201839052600091908516906323b872dd90606401613c06565b6040805180820190915260008082526020820152613e66670de0b6b3a764000084614e79565b82602001818151613e779190614dc2565b9052508315613e9b57613e938483600001518460200151614560565b602084015282525b748000000000000000000000000000000000000000008260200151107f3630380000000000000000000000000000000000000000000000000000000000604051602001613eea91815260200190565b60405160208183030381529060405290613f175760405162461bcd60e51b8152600401610b6891906149b7565b50909392505050565b613f766040518060a0016040528060007bffffffffffffffffffffffffffffffffffffffffffffffffffffffff168152602001600063ffffffff1681526020016000815260200160008152602001600081525090565b60408051808201909152609a548152609b54602082015260808301516000918291613fa49187918790612e21565b8351609a55602090930151609b556080820152969095509350505050565b609f54604080517f36303700000000000000000000000000000000000000000000000000000000006020820152600092914791838310159101604051602081830303815290604052906140285760405162461bcd60e51b8152600401610b6891906149b7565b506140338282614dab565b9250505090565b8173ffffffffffffffffffffffffffffffffffffffff168373ffffffffffffffffffffffffffffffffffffffff16036140b55760405162461bcd60e51b815260206004820152601960248201527f4552433732313a20617070726f766520746f2063616c6c6572000000000000006044820152606401610b68565b73ffffffffffffffffffffffffffffffffffffffff8381166000818152606a602090815260408083209487168084529482529182902080547fffffffffffffffffffffffffffffffffffffffffffffffffffffffffffffff001686151590811790915591519182527f17307eab39ab6107e8899845ad3d59bd9653f200f220920489ca2b5937696c31910160405180910390a3505050565b609854604080517f3530300000000000000000000000000000000000000000000000000000000000602082015260ff909216159101604051602081830303815290604052906141af5760405162461bcd60e51b8152600401610b6891906149b7565b50609880547fffffffffffffffffffffffffffffffffffffffffffffffffffffffffffffff00166001179055565b6141e88484846130e0565b6141f4848484846145e4565b6121a05760405162461bcd60e51b815260206004820152603260248201527f4552433732313a207472616e7366657220746f206e6f6e20455243373231526560448201527f63656976657220696d706c656d656e74657200000000000000000000000000006064820152608401610b68565b609754614274600182614dc2565b6097819055919050565b73ffffffffffffffffffffffffffffffffffffffff82166142e15760405162461bcd60e51b815260206004820181905260248201527f4552433732313a206d696e7420746f20746865207a65726f20616464726573736044820152606401610b68565b60008181526067602052604090205473ffffffffffffffffffffffffffffffffffffffff16156143535760405162461bcd60e51b815260206004820152601c60248201527f4552433732313a20746f6b656e20616c7265616479206d696e746564000000006044820152606401610b68565b73ffffffffffffffffffffffffffffffffffffffff82166000908152606860205260408120805460019290614389908490614dc2565b909155505060008181526067602052604080822080547fffffffffffffffffffffffff00000000000000000000000000000000000000001673ffffffffffffffffffffffffffffffffffffffff861690811790915590518392907fddf252ad1be2c89b69c2b068fc378daa952ba7f163c4a11628f55a4df523b3ef908290a45050565b600061441782611565565b90506144246000836129fe565b73ffffffffffffffffffffffffffffffffffffffff8116600090815260686020526040812080546001929061445a908490614dab565b909155505060008281526067602052604080822080547fffffffffffffffffffffffff00000000000000000000000000000000000000001690555183919073ffffffffffffffffffffffffffffffffffffffff8416907fddf252ad1be2c89b69c2b068fc378daa952ba7f163c4a11628f55a4df523b3ef908390a45050565b600054610100900460ff166145565760405162461bcd60e51b815260206004820152602b60248201527f496e697469616c697a61626c653a20636f6e7472616374206973206e6f74206960448201527f6e697469616c697a696e670000000000000000000000000000000000000000006064820152608401610b68565b61207782826147bd565b60008084156145da5760006145758685614ee5565b90506145818682614e79565b61458b9085614dab565b93506145978186614dc2565b945074ffffffffffffffffffffffffffffffffffffffffff8511156145d8576145d574ffffffffffffffffffffffffffffffffffffffffff86614f2f565b94505b505b5091939092509050565b600073ffffffffffffffffffffffffffffffffffffffff84163b156147b2576040517f150b7a0200000000000000000000000000000000000000000000000000000000815273ffffffffffffffffffffffffffffffffffffffff85169063150b7a029061465b903390899088908890600401614f43565b6020604051808303816000875af19250505080156146b4575060408051601f3d9081017fffffffffffffffffffffffffffffffffffffffffffffffffffffffffffffffe01682019092526146b191810190614f82565b60015b614767573d8080156146e2576040519150601f19603f3d011682016040523d82523d6000602084013e6146e7565b606091505b50805160000361475f5760405162461bcd60e51b815260206004820152603260248201527f4552433732313a207472616e7366657220746f206e6f6e20455243373231526560448201527f63656976657220696d706c656d656e74657200000000000000000000000000006064820152608401610b68565b805181602001fd5b7fffffffff00000000000000000000000000000000000000000000000000000000167f150b7a02000000000000000000000000000000000000000000000000000000001490506130d8565b506001949350505050565b600054610100900460ff1661483a5760405162461bcd60e51b815260206004820152602b60248201527f496e697469616c697a61626c653a20636f6e7472616374206973206e6f74206960448201527f6e697469616c697a696e670000000000000000000000000000000000000000006064820152608401610b68565b815161484d90606590602085019061485d565b508051610ced9060669060208401905b82805461486990614d2f565b90600052602060002090601f01602090048101928261488b57600085556148d1565b82601f106148a457805160ff19168380011785556148d1565b828001600101855582156148d1579182015b828111156148d15782518255916020019190600101906148b6565b506148dd9291506148e1565b5090565b5b808211156148dd57600081556001016148e2565b7fffffffff000000000000000000000000000000000000000000000000000000008116811461196d57600080fd5b60006020828403121561493657600080fd5b8135610eef816148f6565b60005b8381101561495c578181015183820152602001614944565b838111156121a05750506000910152565b60008151808452614985816020860160208601614941565b601f017fffffffffffffffffffffffffffffffffffffffffffffffffffffffffffffffe0169290920160200192915050565b602081526000610eef602083018461496d565b6000602082840312156149dc57600080fd5b5035919050565b803573ffffffffffffffffffffffffffffffffffffffff8116811461176257600080fd5b60008060408385031215614a1a57600080fd5b614a23836149e3565b946020939093013593505050565b600080600060608486031215614a4657600080fd5b614a4f846149e3565b95602085013595506040909401359392505050565b60008060408385031215614a7757600080fd5b50508035926020909101359150565b600080600060608486031215614a9b57600080fd5b614aa4846149e3565b9250614ab2602085016149e3565b9150604084013590509250925092565b600060208284031215614ad457600080fd5b610eef826149e3565b803560ff8116811461176257600080fd5b60008060408385031215614b0157600080fd5b614a2383614add565b60008060408385031215614b1d57600080fd5b82359150614b2d602084016149e3565b90509250929050565b600060208284031215614b4857600080fd5b610eef82614add565b801515811461196d57600080fd5b60008060408385031215614b7257600080fd5b614b7b836149e3565b91506020830135614b8b81614b51565b809150509250929050565b7f4e487b7100000000000000000000000000000000000000000000000000000000600052604160045260246000fd5b604051601f82017fffffffffffffffffffffffffffffffffffffffffffffffffffffffffffffffe016810167ffffffffffffffff81118282101715614c0c57614c0c614b96565b604052919050565b600067ffffffffffffffff821115614c2e57614c2e614b96565b50601f017fffffffffffffffffffffffffffffffffffffffffffffffffffffffffffffffe01660200190565b60008060008060808587031215614c7057600080fd5b614c79856149e3565b9350614c87602086016149e3565b925060408501359150606085013567ffffffffffffffff811115614caa57600080fd5b8501601f81018713614cbb57600080fd5b8035614cce614cc982614c14565b614bc5565b818152886020838501011115614ce357600080fd5b8160208401602083013760006020838301015280935050505092959194509250565b60008060408385031215614d1857600080fd5b614d21836149e3565b9150614b2d602084016149e3565b600181811c90821680614d4357607f821691505b602082108103611760577f4e487b7100000000000000000000000000000000000000000000000000000000600052602260045260246000fd5b7f4e487b7100000000000000000000000000000000000000000000000000000000600052601160045260246000fd5b600082821015614dbd57614dbd614d7c565b500390565b60008219821115614dd557614dd5614d7c565b500190565b600060208284031215614dec57600080fd5b815167ffffffffffffffff811115614e0357600080fd5b8201601f81018413614e1457600080fd5b8051614e22614cc982614c14565b818152856020838501011115614e3757600080fd5b614e48826020830160208601614941565b95945050505050565b600063ffffffff808316818516808303821115614e7057614e70614d7c565b01949350505050565b6000817fffffffffffffffffffffffffffffffffffffffffffffffffffffffffffffffff0483118215151615614eb157614eb1614d7c565b500290565b7f4e487b7100000000000000000000000000000000000000000000000000000000600052601260045260246000fd5b600082614ef457614ef4614eb6565b500490565b600060208284031215614f0b57600080fd5b5051919050565b600060208284031215614f2457600080fd5b8151610eef81614b51565b600082614f3e57614f3e614eb6565b500690565b600073ffffffffffffffffffffffffffffffffffffffff80871683528086166020840152508360408301526080606083015261118e608083018461496d565b600060208284031215614f9457600080fd5b8151610eef816148f656fea2646970667358221220ef949d2abd7602c5ed1f0c8b6852955582393cdb88513a585a8208d043bc0c2f64736f6c634300080d0033",
  "linkReferences": {},
  "deployedLinkReferences": {}
}