{
  "_format": "hh-sol-artifact-1",
  "contractName": "BToken",
  "sourceName": "contracts/BToken.sol",
  "abi": [
    {
      "inputs": [],
      "stateMutability": "nonpayable",
      "type": "constructor"
    },
    {
      "anonymous": false,
      "inputs": [
        {
          "indexed": true,
          "internalType": "address",
          "name": "owner",
          "type": "address"
        },
        {
          "indexed": true,
          "internalType": "address",
          "name": "spender",
          "type": "address"
        },
        {
          "indexed": false,
          "internalType": "uint256",
          "name": "value",
          "type": "uint256"
        }
      ],
      "name": "Approval",
      "type": "event"
    },
    {
      "anonymous": false,
      "inputs": [
        {
          "indexed": true,
          "internalType": "uint256",
          "name": "depositID",
          "type": "uint256"
        },
        {
          "indexed": true,
          "internalType": "uint8",
          "name": "accountType",
          "type": "uint8"
        },
        {
          "indexed": true,
          "internalType": "address",
          "name": "depositor",
          "type": "address"
        },
        {
          "indexed": false,
          "internalType": "uint256",
          "name": "amount",
          "type": "uint256"
        }
      ],
      "name": "DepositReceived",
      "type": "event"
    },
    {
      "anonymous": false,
      "inputs": [
        {
          "indexed": true,
          "internalType": "address",
          "name": "from",
          "type": "address"
        },
        {
          "indexed": true,
          "internalType": "address",
          "name": "to",
          "type": "address"
        },
        {
          "indexed": false,
          "internalType": "uint256",
          "name": "value",
          "type": "uint256"
        }
      ],
      "name": "Transfer",
      "type": "event"
    },
    {
      "inputs": [
        {
          "internalType": "address",
          "name": "owner",
          "type": "address"
        },
        {
          "internalType": "address",
          "name": "spender",
          "type": "address"
        }
      ],
      "name": "allowance",
      "outputs": [
        {
          "internalType": "uint256",
          "name": "",
          "type": "uint256"
        }
      ],
      "stateMutability": "view",
      "type": "function"
    },
    {
      "inputs": [
        {
          "internalType": "address",
          "name": "spender",
          "type": "address"
        },
        {
          "internalType": "uint256",
          "name": "amount",
          "type": "uint256"
        }
      ],
      "name": "approve",
      "outputs": [
        {
          "internalType": "bool",
          "name": "",
          "type": "bool"
        }
      ],
      "stateMutability": "nonpayable",
      "type": "function"
    },
    {
      "inputs": [
        {
          "internalType": "uint256",
          "name": "poolBalance_",
          "type": "uint256"
        },
        {
          "internalType": "uint256",
          "name": "totalSupply_",
          "type": "uint256"
        },
        {
          "internalType": "uint256",
          "name": "numBTK_",
          "type": "uint256"
        }
      ],
      "name": "bTokensToEth",
      "outputs": [
        {
          "internalType": "uint256",
          "name": "numEth",
          "type": "uint256"
        }
      ],
      "stateMutability": "pure",
      "type": "function"
    },
    {
      "inputs": [
        {
          "internalType": "address",
          "name": "account",
          "type": "address"
        }
      ],
      "name": "balanceOf",
      "outputs": [
        {
          "internalType": "uint256",
          "name": "",
          "type": "uint256"
        }
      ],
      "stateMutability": "view",
      "type": "function"
    },
    {
      "inputs": [
        {
          "internalType": "uint256",
          "name": "amount_",
          "type": "uint256"
        },
        {
          "internalType": "uint256",
          "name": "minEth_",
          "type": "uint256"
        }
      ],
      "name": "burn",
      "outputs": [
        {
          "internalType": "uint256",
          "name": "numEth",
          "type": "uint256"
        }
      ],
      "stateMutability": "nonpayable",
      "type": "function"
    },
    {
      "inputs": [
        {
          "internalType": "address",
          "name": "to_",
          "type": "address"
        },
        {
          "internalType": "uint256",
          "name": "amount_",
          "type": "uint256"
        },
        {
          "internalType": "uint256",
          "name": "minEth_",
          "type": "uint256"
        }
      ],
      "name": "burnTo",
      "outputs": [
        {
          "internalType": "uint256",
          "name": "numEth",
          "type": "uint256"
        }
      ],
      "stateMutability": "nonpayable",
      "type": "function"
    },
    {
      "inputs": [],
      "name": "decimals",
      "outputs": [
        {
          "internalType": "uint8",
          "name": "",
          "type": "uint8"
        }
      ],
      "stateMutability": "view",
      "type": "function"
    },
    {
      "inputs": [
        {
          "internalType": "address",
          "name": "spender",
          "type": "address"
        },
        {
          "internalType": "uint256",
          "name": "subtractedValue",
          "type": "uint256"
        }
      ],
      "name": "decreaseAllowance",
      "outputs": [
        {
          "internalType": "bool",
          "name": "",
          "type": "bool"
        }
      ],
      "stateMutability": "nonpayable",
      "type": "function"
    },
    {
      "inputs": [
        {
          "internalType": "uint8",
          "name": "accountType_",
          "type": "uint8"
        },
        {
          "internalType": "address",
          "name": "to_",
          "type": "address"
        },
        {
          "internalType": "uint256",
          "name": "amount_",
          "type": "uint256"
        }
      ],
      "name": "deposit",
      "outputs": [
        {
          "internalType": "uint256",
          "name": "",
          "type": "uint256"
        }
      ],
      "stateMutability": "nonpayable",
      "type": "function"
    },
    {
      "inputs": [],
      "name": "distribute",
      "outputs": [
        {
          "internalType": "uint256",
          "name": "minerAmount",
          "type": "uint256"
        },
        {
          "internalType": "uint256",
          "name": "stakingAmount",
          "type": "uint256"
        },
        {
          "internalType": "uint256",
          "name": "lpStakingAmount",
          "type": "uint256"
        },
        {
          "internalType": "uint256",
          "name": "foundationAmount",
          "type": "uint256"
        }
      ],
      "stateMutability": "nonpayable",
      "type": "function"
    },
    {
      "inputs": [
        {
          "internalType": "uint256",
          "name": "poolBalance_",
          "type": "uint256"
        },
        {
          "internalType": "uint256",
          "name": "numEth_",
          "type": "uint256"
        }
      ],
      "name": "ethToBTokens",
      "outputs": [
        {
          "internalType": "uint256",
          "name": "",
          "type": "uint256"
        }
      ],
      "stateMutability": "pure",
      "type": "function"
    },
    {
      "inputs": [],
      "name": "getAdmin",
      "outputs": [
        {
          "internalType": "address",
          "name": "",
          "type": "address"
        }
      ],
      "stateMutability": "view",
      "type": "function"
    },
    {
      "inputs": [
        {
          "internalType": "uint256",
          "name": "depositID",
          "type": "uint256"
        }
      ],
      "name": "getDeposit",
      "outputs": [
        {
          "components": [
            {
              "internalType": "uint8",
              "name": "accountType",
              "type": "uint8"
            },
            {
              "internalType": "address",
              "name": "account",
              "type": "address"
            },
            {
              "internalType": "uint256",
              "name": "value",
              "type": "uint256"
            }
          ],
          "internalType": "struct BToken.Deposit",
          "name": "",
          "type": "tuple"
        }
      ],
      "stateMutability": "view",
      "type": "function"
    },
    {
      "inputs": [
        {
          "internalType": "bytes32",
          "name": "_salt",
          "type": "bytes32"
        },
        {
          "internalType": "address",
          "name": "_factory",
          "type": "address"
        }
      ],
      "name": "getMetamorphicContractAddress",
      "outputs": [
        {
          "internalType": "address",
          "name": "",
          "type": "address"
        }
      ],
      "stateMutability": "pure",
      "type": "function"
    },
    {
      "inputs": [],
      "name": "getPoolBalance",
      "outputs": [
        {
          "internalType": "uint256",
          "name": "",
          "type": "uint256"
        }
      ],
      "stateMutability": "view",
      "type": "function"
    },
    {
      "inputs": [],
      "name": "getTotalBTokensDeposited",
      "outputs": [
        {
          "internalType": "uint256",
          "name": "",
          "type": "uint256"
        }
      ],
      "stateMutability": "view",
      "type": "function"
    },
    {
      "inputs": [
        {
          "internalType": "address",
          "name": "spender",
          "type": "address"
        },
        {
          "internalType": "uint256",
          "name": "addedValue",
          "type": "uint256"
        }
      ],
      "name": "increaseAllowance",
      "outputs": [
        {
          "internalType": "bool",
          "name": "",
          "type": "bool"
        }
      ],
      "stateMutability": "nonpayable",
      "type": "function"
    },
    {
      "inputs": [],
      "name": "initialize",
      "outputs": [],
      "stateMutability": "nonpayable",
      "type": "function"
    },
    {
      "inputs": [
        {
          "internalType": "uint256",
          "name": "minBTK_",
          "type": "uint256"
        }
      ],
      "name": "mint",
      "outputs": [
        {
          "internalType": "uint256",
          "name": "numBTK",
          "type": "uint256"
        }
      ],
      "stateMutability": "payable",
      "type": "function"
    },
    {
      "inputs": [
        {
          "internalType": "uint8",
          "name": "accountType_",
          "type": "uint8"
        },
        {
          "internalType": "address",
          "name": "to_",
          "type": "address"
        },
        {
          "internalType": "uint256",
          "name": "minBTK_",
          "type": "uint256"
        }
      ],
      "name": "mintDeposit",
      "outputs": [
        {
          "internalType": "uint256",
          "name": "",
          "type": "uint256"
        }
      ],
      "stateMutability": "payable",
      "type": "function"
    },
    {
      "inputs": [
        {
          "internalType": "address",
          "name": "to_",
          "type": "address"
        },
        {
          "internalType": "uint256",
          "name": "minBTK_",
          "type": "uint256"
        }
      ],
      "name": "mintTo",
      "outputs": [
        {
          "internalType": "uint256",
          "name": "numBTK",
          "type": "uint256"
        }
      ],
      "stateMutability": "payable",
      "type": "function"
    },
    {
      "inputs": [],
      "name": "name",
      "outputs": [
        {
          "internalType": "string",
          "name": "",
          "type": "string"
        }
      ],
      "stateMutability": "view",
      "type": "function"
    },
    {
      "inputs": [
        {
          "internalType": "address",
          "name": "admin_",
          "type": "address"
        }
      ],
      "name": "setAdmin",
      "outputs": [],
      "stateMutability": "nonpayable",
      "type": "function"
    },
    {
      "inputs": [
        {
          "internalType": "uint256",
          "name": "validatorStakingSplit_",
          "type": "uint256"
        },
        {
          "internalType": "uint256",
          "name": "publicStakingSplit_",
          "type": "uint256"
        },
        {
          "internalType": "uint256",
          "name": "liquidityProviderStakingSplit_",
          "type": "uint256"
        },
        {
          "internalType": "uint256",
          "name": "protocolFee_",
          "type": "uint256"
        }
      ],
      "name": "setSplits",
      "outputs": [],
      "stateMutability": "nonpayable",
      "type": "function"
    },
    {
      "inputs": [],
      "name": "symbol",
      "outputs": [
        {
          "internalType": "string",
          "name": "",
          "type": "string"
        }
      ],
      "stateMutability": "view",
      "type": "function"
    },
    {
      "inputs": [],
      "name": "totalSupply",
      "outputs": [
        {
          "internalType": "uint256",
          "name": "",
          "type": "uint256"
        }
      ],
      "stateMutability": "view",
      "type": "function"
    },
    {
      "inputs": [
        {
          "internalType": "address",
          "name": "to",
          "type": "address"
        },
        {
          "internalType": "uint256",
          "name": "amount",
          "type": "uint256"
        }
      ],
      "name": "transfer",
      "outputs": [
        {
          "internalType": "bool",
          "name": "",
          "type": "bool"
        }
      ],
      "stateMutability": "nonpayable",
      "type": "function"
    },
    {
      "inputs": [
        {
          "internalType": "address",
          "name": "from",
          "type": "address"
        },
        {
          "internalType": "address",
          "name": "to",
          "type": "address"
        },
        {
          "internalType": "uint256",
          "name": "amount",
          "type": "uint256"
        }
      ],
      "name": "transferFrom",
      "outputs": [
        {
          "internalType": "bool",
          "name": "",
          "type": "bool"
        }
      ],
      "stateMutability": "nonpayable",
      "type": "function"
    },
    {
      "inputs": [
        {
          "internalType": "uint8",
          "name": "accountType_",
          "type": "uint8"
        },
        {
          "internalType": "address",
          "name": "to_",
          "type": "address"
        },
        {
          "internalType": "uint256",
          "name": "amount_",
          "type": "uint256"
        }
      ],
      "name": "virtualMintDeposit",
      "outputs": [
        {
          "internalType": "uint256",
          "name": "",
          "type": "uint256"
        }
      ],
      "stateMutability": "nonpayable",
      "type": "function"
    }
  ],
  "bytecode": "0x6101206040523480156200001257600080fd5b50606580546001600160a01b031916339081179091556002606655608052620000e16c5075626c69635374616b696e6760981b6200004f60805190565b6040517fff0000000000000000000000000000000000000000000000000000000000000060208201526001600160601b0319606083901b166021820152603581018390527f1c0bf703a3415cada9785e89e9d70314c3111ae7d8e04f33bb42eb1d264088be6055820181905260009160750160408051601f198184030181529190528051602090910120949350505050565b6001600160a01b031660a0526200010f6f56616c696461746f725374616b696e6760801b6200004f60805190565b6001600160a01b031660c0526200014a7f4c697175696469747950726f76696465725374616b696e6700000000000000006200004f60805190565b6001600160a01b031660e05262000172692337bab73230ba34b7b760b11b6200004f60805190565b6001600160a01b03166101005260805160a05160c05160e05161010051612b64620001c46000396000611aa101526000611b3101526000611ad101526000611b010152600061099a0152612b646000f3fe6080604052600436106101c15760003560e01c8063767bc1bf116100f7578063a0712d6811610095578063b390c0ab11610064578063b390c0ab146105f8578063c763607114610618578063dd62ed3e14610638578063e4fc6b6d1461068b57600080fd5b8063a0712d6814610590578063a457c2d7146105a3578063a9059cbb146105c3578063abd70aa2146105e357600080fd5b806392178278116100d157806392178278146104e057806395d89b41146105005780639b057203146105155780639f9fb9681461053557600080fd5b8063767bc1bf146103c85780638129fc1c146103e85780638653a465146103fd57600080fd5b8063449a52f8116101645780636e9960c31161013e5780636e9960c3146102f7578063704b6c021461034357806370a082311461036557806375a86a7e146103a857600080fd5b8063449a52f8146102bc5780634f232628146102cf5780635ecef3af146102e257600080fd5b806318160ddd116101a057806318160ddd1461024b57806323b872dd14610260578063313ce56714610280578063395093511461029c57600080fd5b8062838172146101c657806306fdde03146101f9578063095ea7b31461021b575b600080fd5b3480156101d257600080fd5b506101e66101e1366004612671565b6106c0565b6040519081526020015b60405180910390f35b34801561020557600080fd5b5061020e6106d5565b6040516101f091906126b5565b34801561022757600080fd5b5061023b610236366004612728565b610767565b60405190151581526020016101f0565b34801561025757600080fd5b506035546101e6565b34801561026c57600080fd5b5061023b61027b366004612752565b610781565b34801561028c57600080fd5b50604051601281526020016101f0565b3480156102a857600080fd5b5061023b6102b7366004612728565b6107a5565b6101e66102ca366004612728565b6107f1565b6101e66102dd366004612671565b610805565b3480156102ee57600080fd5b50606d546101e6565b34801561030357600080fd5b5060655473ffffffffffffffffffffffffffffffffffffffff165b60405173ffffffffffffffffffffffffffffffffffffffff90911681526020016101f0565b34801561034f57600080fd5b5061036361035e366004612770565b610813565b005b34801561037157600080fd5b506101e6610380366004612770565b73ffffffffffffffffffffffffffffffffffffffff1660009081526033602052604090205490565b3480156103b457600080fd5b506101e66103c336600461278b565b6108d9565b3480156103d457600080fd5b506103636103e33660046127ad565b6108e5565b3480156103f457600080fd5b5061036361096e565b34801561040957600080fd5b5061031e6104183660046127df565b6040517fff0000000000000000000000000000000000000000000000000000000000000060208201527fffffffffffffffffffffffffffffffffffffffff000000000000000000000000606083901b166021820152603581018390527f1c0bf703a3415cada9785e89e9d70314c3111ae7d8e04f33bb42eb1d264088be60558201819052600091607501604080517fffffffffffffffffffffffffffffffffffffffffffffffffffffffffffffffe08184030181529190528051602090910120949350505050565b3480156104ec57600080fd5b506101e66104fb366004612671565b610b87565b34801561050c57600080fd5b5061020e610c0a565b34801561052157600080fd5b506101e661053036600461280b565b610c19565b34801561054157600080fd5b5061055561055036600461283e565b610c27565b60408051825160ff16815260208084015173ffffffffffffffffffffffffffffffffffffffff169082015291810151908201526060016101f0565b6101e661059e36600461283e565b610ce9565b3480156105af57600080fd5b5061023b6105be366004612728565b610cf6565b3480156105cf57600080fd5b5061023b6105de366004612728565b610dad565b3480156105ef57600080fd5b506067546101e6565b34801561060457600080fd5b506101e661061336600461278b565b610dbb565b34801561062457600080fd5b506101e6610633366004612857565b610dc9565b34801561064457600080fd5b506101e6610653366004612883565b73ffffffffffffffffffffffffffffffffffffffff918216600090815260346020908152604080832093909416825291909152205490565b34801561069757600080fd5b506106a0610dd6565b6040805194855260208501939093529183015260608201526080016101f0565b60006106cd848484610df2565b949350505050565b6060603680546106e4906128ad565b80601f0160208091040260200160405190810160405280929190818152602001828054610710906128ad565b801561075d5780601f106107325761010080835404028352916020019161075d565b820191906000526020600020905b81548152906001019060200180831161074057829003601f168201915b5050505050905090565b600033610775818585610f1d565b60019150505b92915050565b60003361078f85828561109c565b61079a858585611153565b506001949350505050565b33600081815260346020908152604080832073ffffffffffffffffffffffffffffffffffffffff8716845290915281205490919061077590829086906107ec908790612929565b610f1d565b60006107fe8334846113b8565b9392505050565b60006106cd848484346114c5565b606554604080517f3137303000000000000000000000000000000000000000000000000000000000602082015273ffffffffffffffffffffffffffffffffffffffff90921633149101604051602081830303815290604052906108925760405162461bcd60e51b815260040161088991906126b5565b60405180910390fd5b50606580547fffffffffffffffffffffffff00000000000000000000000000000000000000001673ffffffffffffffffffffffffffffffffffffffff831617905550565b50565b60006107fe838361161b565b606554604080517f3137303000000000000000000000000000000000000000000000000000000000602082015273ffffffffffffffffffffffffffffffffffffffff909216331491016040516020818303038152906040529061095b5760405162461bcd60e51b815260040161088991906126b5565b5061096884848484611642565b50505050565b604080517f323030300000000000000000000000000000000000000000000000000000000060208201527f000000000000000000000000000000000000000000000000000000000000000073ffffffffffffffffffffffffffffffffffffffff163314910160405160208183030381529060405290610a005760405162461bcd60e51b815260040161088991906126b5565b50600054610100900460ff16610a1c5760005460ff1615610a20565b303b155b610a925760405162461bcd60e51b815260206004820152602e60248201527f496e697469616c697a61626c653a20636f6e747261637420697320616c72656160448201527f647920696e697469616c697a65640000000000000000000000000000000000006064820152608401610889565b600054610100900460ff16158015610ad157600080547fffffffffffffffffffffffffffffffffffffffffffffffffffffffffffff0000166101011790555b610b456040518060400160405280600681526020017f42546f6b656e00000000000000000000000000000000000000000000000000008152506040518060400160405280600381526020017f424f4200000000000000000000000000000000000000000000000000000000008152506116db565b610b5661014c8061014c6004611642565b80156108d657600080547fffffffffffffffffffffffffffffffffffffffffffffffffffffffffffff00ff16905550565b606554604080517f3137303000000000000000000000000000000000000000000000000000000000602082015260009273ffffffffffffffffffffffffffffffffffffffff163314910160405160208183030381529060405290610bfe5760405162461bcd60e51b815260040161088991906126b5565b506106cd848484611766565b6060603780546106e4906128ad565b60006106cd338585856117fa565b604080516060808201835260008083526020808401829052838501829052858252606e81529084902084519283018552805460ff81168452610100900473ffffffffffffffffffffffffffffffffffffffff168383018190526001909101548386015284517f3330300000000000000000000000000000000000000000000000000000000000818401528551808203909301835285019094529192909190610ce25760405162461bcd60e51b815260040161088991906126b5565b5092915050565b600061077b3334846113b8565b33600081815260346020908152604080832073ffffffffffffffffffffffffffffffffffffffff8716845290915281205490919083811015610da05760405162461bcd60e51b815260206004820152602560248201527f45524332303a2064656372656173656420616c6c6f77616e63652062656c6f7760448201527f207a65726f0000000000000000000000000000000000000000000000000000006064820152608401610889565b61079a8286868403610f1d565b600033610775818585611153565b60006107fe333385856117fa565b60006106cd848484611905565b600080600080610de461199a565b935093509350935090919293565b604080517f33303300000000000000000000000000000000000000000000000000000000006020820152600091843b15910160405160208183030381529060405290610e515760405162461bcd60e51b815260040161088991906126b5565b50604080517f33303400000000000000000000000000000000000000000000000000000000006020820152831515910160405160208183030381529060405290610eae5760405162461bcd60e51b815260040161088991906126b5565b50610eb882611bca565b604080517f33303500000000000000000000000000000000000000000000000000000000006020820152015b60405160208183030381529060405290610f115760405162461bcd60e51b815260040161088991906126b5565b506106cd848484611c68565b73ffffffffffffffffffffffffffffffffffffffff8316610fa55760405162461bcd60e51b8152602060048201526024808201527f45524332303a20617070726f76652066726f6d20746865207a65726f2061646460448201527f72657373000000000000000000000000000000000000000000000000000000006064820152608401610889565b73ffffffffffffffffffffffffffffffffffffffff821661102e5760405162461bcd60e51b815260206004820152602260248201527f45524332303a20617070726f766520746f20746865207a65726f20616464726560448201527f73730000000000000000000000000000000000000000000000000000000000006064820152608401610889565b73ffffffffffffffffffffffffffffffffffffffff83811660008181526034602090815260408083209487168084529482529182902085905590518481527f8c5be1e5ebec7d5bd14f71427d1e84f3dd0314c0f7b2291e5b200ac8c7c3b925910160405180910390a3505050565b73ffffffffffffffffffffffffffffffffffffffff8381166000908152603460209081526040808320938616835292905220547fffffffffffffffffffffffffffffffffffffffffffffffffffffffffffffffff811461096857818110156111465760405162461bcd60e51b815260206004820152601d60248201527f45524332303a20696e73756666696369656e7420616c6c6f77616e63650000006044820152606401610889565b6109688484848403610f1d565b73ffffffffffffffffffffffffffffffffffffffff83166111dc5760405162461bcd60e51b815260206004820152602560248201527f45524332303a207472616e736665722066726f6d20746865207a65726f20616460448201527f64726573730000000000000000000000000000000000000000000000000000006064820152608401610889565b73ffffffffffffffffffffffffffffffffffffffff82166112655760405162461bcd60e51b815260206004820152602360248201527f45524332303a207472616e7366657220746f20746865207a65726f206164647260448201527f65737300000000000000000000000000000000000000000000000000000000006064820152608401610889565b73ffffffffffffffffffffffffffffffffffffffff8316600090815260336020526040902054818110156113015760405162461bcd60e51b815260206004820152602660248201527f45524332303a207472616e7366657220616d6f756e742065786365656473206260448201527f616c616e636500000000000000000000000000000000000000000000000000006064820152608401610889565b73ffffffffffffffffffffffffffffffffffffffff808516600090815260336020526040808220858503905591851681529081208054849290611345908490612929565b925050819055508273ffffffffffffffffffffffffffffffffffffffff168473ffffffffffffffffffffffffffffffffffffffff167fddf252ad1be2c89b69c2b068fc378daa952ba7f163c4a11628f55a4df523b3ef846040516113ab91815260200190565b60405180910390a3610968565b600060048310157f33303600000000000000000000000000000000000000000000000000000000006040516020016113f291815260200190565b6040516020818303038152906040529061141f5760405162461bcd60e51b815260040161088991906126b5565b5061142b600484612970565b60675490935061143b818561161b565b9150828210157f333038000000000000000000000000000000000000000000000000000000000060405160200161147491815260200190565b604051602081830303815290604052906114a15760405162461bcd60e51b815260040161088991906126b5565b506114ac8482612929565b606781905590506114bd8583611d97565b509392505050565b604080517f33303300000000000000000000000000000000000000000000000000000000006020820152600091853b159101604051602081830303815290604052906115245760405162461bcd60e51b815260040161088991906126b5565b50604080517f3330360000000000000000000000000000000000000000000000000000000000602082015260048410159101604051602081830303815290604052906115835760405162461bcd60e51b815260040161088991906126b5565b5061158f600483612970565b9150600061159f6067548461161b565b9050838110157f33303700000000000000000000000000000000000000000000000000000000006040516020016115d891815260200190565b604051602081830303815290604052906116055760405162461bcd60e51b815260040161088991906126b5565b50611611868683611c68565b9695505050505050565b600061162683611e9d565b6116386116338486612929565b611e9d565b6107fe91906129ab565b6103e881836116518688612929565b61165b9190612929565b6116659190612929565b147f333130000000000000000000000000000000000000000000000000000000000060405160200161169991815260200190565b604051602081830303815290604052906116c65760405162461bcd60e51b815260040161088991906126b5565b50606893909355606991909155606a55606b55565b600054610100900460ff166117585760405162461bcd60e51b815260206004820152602b60248201527f496e697469616c697a61626c653a20636f6e7472616374206973206e6f74206960448201527f6e697469616c697a696e670000000000000000000000000000000000000000006064820152608401610889565b6117628282611f17565b5050565b604080517f33303300000000000000000000000000000000000000000000000000000000006020820152600091843b159101604051602081830303815290604052906117c55760405162461bcd60e51b815260040161088991906126b5565b50604080517f333034000000000000000000000000000000000000000000000000000000000060208201528315159101610ee4565b604080517f333032000000000000000000000000000000000000000000000000000000000060208201526000918415159101604051602081830303815290604052906118595760405162461bcd60e51b815260040161088991906126b5565b506067546118708161186a60355490565b86611905565b9150828210157f33303900000000000000000000000000000000000000000000000000000000006040516020016118a991815260200190565b604051602081830303815290604052906118d65760405162461bcd60e51b815260040161088991906126b5565b506118e182826129ab565b606781905590506118f28685611fbb565b6118fc8583612174565b50949350505050565b6000818310157f333131000000000000000000000000000000000000000000000000000000000060405160200161193e91815260200190565b6040516020818303038152906040529061196b5760405162461bcd60e51b815260040161088991906126b5565b506106cd8461198261197d85876129ab565b6122df565b61198b866122df565b61199591906129ab565b612364565b600080600080600160665414157f32333030000000000000000000000000000000000000000000000000000000006040516020016119da91815260200190565b60405160208183030381529060405290611a075760405162461bcd60e51b815260040161088991906126b5565b5060016066556067546000611a1c82476129ab565b90506103e8606b5482611a2f91906129c2565b611a399190612970565b92506103e860695482611a4c91906129c2565b611a569190612970565b94506103e8606a5482611a6991906129c2565b611a739190612970565b935082611a808587612929565b611a8a9190612929565b611a9490826129ab565b95508215611ac657611ac67f00000000000000000000000000000000000000000000000000000000000000008461237a565b8515611af657611af67f00000000000000000000000000000000000000000000000000000000000000008761237a565b8415611b2657611b267f00000000000000000000000000000000000000000000000000000000000000008661237a565b8315611b5657611b567f00000000000000000000000000000000000000000000000000000000000000008561237a565b814710157f3330310000000000000000000000000000000000000000000000000000000000604051602001611b8d91815260200190565b60405160208183030381529060405290611bba5760405162461bcd60e51b815260040161088991906126b5565b5050506002606655929391929091565b604080517f33303200000000000000000000000000000000000000000000000000000000006020820152600091831515910160405160208183030381529060405290611c295760405162461bcd60e51b815260040161088991906126b5565b50611c3f606754611c3960355490565b84611905565b60676000828254611c5091906129ab565b90915550611c6090503383611fbb565b506001919050565b600080606c546001611c7a9190612929565b6040805160608082018352600080835260208084018290529284018190528351918201845260ff8a8116835273ffffffffffffffffffffffffffffffffffffffff8a81168486019081528487018b8152888552606e909652958320935184549651909116610100027fffffffffffffffffffffff0000000000000000000000000000000000000000009096169116179390931781559051600190910155606d80549293508592909190611d2e908490612929565b9091555050606c81905560405183815273ffffffffffffffffffffffffffffffffffffffff85169060ff87169083907f9d291e7244fa9bf5a85ec47d5a52012ccc92231b41c94308155ad2702eef9d4d9060200160405180910390a4949350505050565b505050565b73ffffffffffffffffffffffffffffffffffffffff8216611dfa5760405162461bcd60e51b815260206004820152601f60248201527f45524332303a206d696e7420746f20746865207a65726f2061646472657373006044820152606401610889565b8060356000828254611e0c9190612929565b909155505073ffffffffffffffffffffffffffffffffffffffff821660009081526033602052604081208054839290611e46908490612929565b909155505060405181815273ffffffffffffffffffffffffffffffffffffffff8316906000907fddf252ad1be2c89b69c2b068fc378daa952ba7f163c4a11628f55a4df523b3ef9060200160405180910390a35050565b6000611eee6002611eb768878678326eac90000085612408565b611ec19190612b1f565b611edd9071016f578c4e0a0610001239056923109ffb90612929565b611ee990619c406129c2565b61241e565b611ef98360c96129c2565b611f0d90696aeec3532e7de04e5e60612929565b61077b91906129ab565b600054610100900460ff16611f945760405162461bcd60e51b815260206004820152602b60248201527f496e697469616c697a61626c653a20636f6e7472616374206973206e6f74206960448201527f6e697469616c697a696e670000000000000000000000000000000000000000006064820152608401610889565b8151611fa79060369060208501906125af565b508051611d929060379060208401906125af565b73ffffffffffffffffffffffffffffffffffffffff82166120445760405162461bcd60e51b815260206004820152602160248201527f45524332303a206275726e2066726f6d20746865207a65726f2061646472657360448201527f73000000000000000000000000000000000000000000000000000000000000006064820152608401610889565b73ffffffffffffffffffffffffffffffffffffffff8216600090815260336020526040902054818110156120e05760405162461bcd60e51b815260206004820152602260248201527f45524332303a206275726e20616d6f756e7420657863656564732062616c616e60448201527f63650000000000000000000000000000000000000000000000000000000000006064820152608401610889565b73ffffffffffffffffffffffffffffffffffffffff8316600090815260336020526040812083830390556035805484929061211c9084906129ab565b909155505060405182815260009073ffffffffffffffffffffffffffffffffffffffff8516907fddf252ad1be2c89b69c2b068fc378daa952ba7f163c4a11628f55a4df523b3ef9060200160405180910390a3505050565b80600003612180575050565b73ffffffffffffffffffffffffffffffffffffffff82166122095760405162461bcd60e51b815260206004820152603360248201527f457468536166655472616e736665723a2063616e6e6f74207472616e7366657260448201527f2045544820746f206164647265737320307830000000000000000000000000006064820152608401610889565b604051829060009073ffffffffffffffffffffffffffffffffffffffff83169084908381818185875af1925050503d8060008114612263576040519150601f19603f3d011682016040523d82523d6000602084013e612268565b606091505b50509050806109685760405162461bcd60e51b815260206004820152602160248201527f457468536166655472616e736665723a205472616e73666572206661696c656460448201527f2e000000000000000000000000000000000000000000000000000000000000006064820152608401610889565b60006101916aa6ad4a39178da80188196061233b612308856a01aaaeaf658ec6babcbcc06129c2565b612313600287612b1f565b6123319073b1ccb5245c201cfb692f9ee5debda1883be3b090612929565b611edd91906129ab565b6123468560c96129c2565b6123509190612929565b61235a91906129ab565b61077b9190612970565b600081831161237457508161077b565b50919050565b73ffffffffffffffffffffffffffffffffffffffff82166399a89ecc82602a6040517fffffffff0000000000000000000000000000000000000000000000000000000060e085901b16815260ff90911660048201526024016000604051808303818588803b1580156123eb57600080fd5b505af11580156123ff573d6000803e3d6000fd5b50505050505050565b60006124148383612364565b611638848461259f565b60008160000361243057506000919050565b5060018170010000000000000000000000000000000081106124575760409190911b9060801c5b6801000000000000000081106124725760209190911b9060401c5b64010000000081106124895760109190911b9060201c5b62010000811061249e5760089190911b9060101c5b61010081106124b25760049190911b9060081c5b601081106124c55760029190911b9060041c5b600881106124d557600182901b91505b60018284816124e6576124e6612941565b048301901c915060018284816124fe576124fe612941565b048301901c9150600182848161251657612516612941565b048301901c9150600182848161252e5761252e612941565b048301901c9150600182848161254657612546612941565b048301901c9150600182848161255e5761255e612941565b048301901c9150600182848161257657612576612941565b048301901c9150600082848161258e5761258e612941565b049050808310156107fe57826106cd565b600081831061237457508161077b565b8280546125bb906128ad565b90600052602060002090601f0160209004810192826125dd5760008555612623565b82601f106125f657805160ff1916838001178555612623565b82800160010185558215612623579182015b82811115612623578251825591602001919060010190612608565b5061262f929150612633565b5090565b5b8082111561262f5760008155600101612634565b803573ffffffffffffffffffffffffffffffffffffffff8116811461266c57600080fd5b919050565b60008060006060848603121561268657600080fd5b833560ff8116811461269757600080fd5b92506126a560208501612648565b9150604084013590509250925092565b600060208083528351808285015260005b818110156126e2578581018301518582016040015282016126c6565b818111156126f4576000604083870101525b50601f017fffffffffffffffffffffffffffffffffffffffffffffffffffffffffffffffe016929092016040019392505050565b6000806040838503121561273b57600080fd5b61274483612648565b946020939093013593505050565b60008060006060848603121561276757600080fd5b61269784612648565b60006020828403121561278257600080fd5b6107fe82612648565b6000806040838503121561279e57600080fd5b50508035926020909101359150565b600080600080608085870312156127c357600080fd5b5050823594602084013594506040840135936060013592509050565b600080604083850312156127f257600080fd5b8235915061280260208401612648565b90509250929050565b60008060006060848603121561282057600080fd5b61282984612648565b95602085013595506040909401359392505050565b60006020828403121561285057600080fd5b5035919050565b60008060006060848603121561286c57600080fd5b505081359360208301359350604090920135919050565b6000806040838503121561289657600080fd5b61289f83612648565b915061280260208401612648565b600181811c908216806128c157607f821691505b602082108103612374577f4e487b7100000000000000000000000000000000000000000000000000000000600052602260045260246000fd5b7f4e487b7100000000000000000000000000000000000000000000000000000000600052601160045260246000fd5b6000821982111561293c5761293c6128fa565b500190565b7f4e487b7100000000000000000000000000000000000000000000000000000000600052601260045260246000fd5b6000826129a6577f4e487b7100000000000000000000000000000000000000000000000000000000600052601260045260246000fd5b500490565b6000828210156129bd576129bd6128fa565b500390565b6000817fffffffffffffffffffffffffffffffffffffffffffffffffffffffffffffffff04831182151516156129fa576129fa6128fa565b500290565b600181815b80851115612a5857817fffffffffffffffffffffffffffffffffffffffffffffffffffffffffffffffff04821115612a3e57612a3e6128fa565b80851615612a4b57918102915b93841c9390800290612a04565b509250929050565b600082612a6f5750600161077b565b81612a7c5750600061077b565b8160018114612a925760028114612a9c57612ab8565b600191505061077b565b60ff841115612aad57612aad6128fa565b50506001821b61077b565b5060208310610133831016604e8410600b8410161715612adb575081810a61077b565b612ae583836129ff565b807fffffffffffffffffffffffffffffffffffffffffffffffffffffffffffffffff04821115612b1757612b176128fa565b029392505050565b60006107fe60ff841683612a6056fea26469706673582212203074c1799f15f1485d8cf3a4ac991b194daa49f8bc85dc229f72a726029a9c4e64736f6c634300080d0033",
  "linkReferences": {},
  "deployedLinkReferences": {}
}