{
  "_format": "hh-sol-artifact-1",
  "contractName": "ValidatorStaking",
  "sourceName": "contracts/ValidatorStaking.sol",
  "abi": [
    {
      "inputs": [],
      "stateMutability": "nonpayable",
      "type": "constructor"
    },
    {
      "anonymous": false,
      "inputs": [
        {
          "indexed": true,
          "internalType": "address",
          "name": "owner",
          "type": "address"
        },
        {
          "indexed": true,
          "internalType": "address",
          "name": "approved",
          "type": "address"
        },
        {
          "indexed": true,
          "internalType": "uint256",
          "name": "tokenId",
          "type": "uint256"
        }
      ],
      "name": "Approval",
      "type": "event"
    },
    {
      "anonymous": false,
      "inputs": [
        {
          "indexed": true,
          "internalType": "address",
          "name": "owner",
          "type": "address"
        },
        {
          "indexed": true,
          "internalType": "address",
          "name": "operator",
          "type": "address"
        },
        {
          "indexed": false,
          "internalType": "bool",
          "name": "approved",
          "type": "bool"
        }
      ],
      "name": "ApprovalForAll",
      "type": "event"
    },
    {
      "anonymous": false,
      "inputs": [
        {
          "indexed": true,
          "internalType": "address",
          "name": "from",
          "type": "address"
        },
        {
          "indexed": true,
          "internalType": "address",
          "name": "to",
          "type": "address"
        },
        {
          "indexed": true,
          "internalType": "uint256",
          "name": "tokenId",
          "type": "uint256"
        }
      ],
      "name": "Transfer",
      "type": "event"
    },
    {
      "inputs": [
        {
          "internalType": "address",
          "name": "to",
          "type": "address"
        },
        {
          "internalType": "uint256",
          "name": "tokenId",
          "type": "uint256"
        }
      ],
      "name": "approve",
      "outputs": [],
      "stateMutability": "nonpayable",
      "type": "function"
    },
    {
      "inputs": [
        {
          "internalType": "address",
          "name": "owner",
          "type": "address"
        }
      ],
      "name": "balanceOf",
      "outputs": [
        {
          "internalType": "uint256",
          "name": "",
          "type": "uint256"
        }
      ],
      "stateMutability": "view",
      "type": "function"
    },
    {
      "inputs": [
        {
          "internalType": "uint256",
          "name": "tokenID_",
          "type": "uint256"
        }
      ],
      "name": "burn",
      "outputs": [
        {
          "internalType": "uint256",
          "name": "payoutEth",
          "type": "uint256"
        },
        {
          "internalType": "uint256",
          "name": "payoutAToken",
          "type": "uint256"
        }
      ],
      "stateMutability": "nonpayable",
      "type": "function"
    },
    {
      "inputs": [
        {
          "internalType": "address",
          "name": "to_",
          "type": "address"
        },
        {
          "internalType": "uint256",
          "name": "tokenID_",
          "type": "uint256"
        }
      ],
      "name": "burnTo",
      "outputs": [
        {
          "internalType": "uint256",
          "name": "payoutEth",
          "type": "uint256"
        },
        {
          "internalType": "uint256",
          "name": "payoutAToken",
          "type": "uint256"
        }
      ],
      "stateMutability": "nonpayable",
      "type": "function"
    },
    {
      "inputs": [],
      "name": "circuitBreakerState",
      "outputs": [
        {
          "internalType": "bool",
          "name": "",
          "type": "bool"
        }
      ],
      "stateMutability": "view",
      "type": "function"
    },
    {
      "inputs": [
        {
          "internalType": "uint256",
          "name": "tokenID_",
          "type": "uint256"
        }
      ],
      "name": "collectEth",
      "outputs": [
        {
          "internalType": "uint256",
          "name": "payout",
          "type": "uint256"
        }
      ],
      "stateMutability": "nonpayable",
      "type": "function"
    },
    {
      "inputs": [
        {
          "internalType": "address",
          "name": "to_",
          "type": "address"
        },
        {
          "internalType": "uint256",
          "name": "tokenID_",
          "type": "uint256"
        }
      ],
      "name": "collectEthTo",
      "outputs": [
        {
          "internalType": "uint256",
          "name": "payout",
          "type": "uint256"
        }
      ],
      "stateMutability": "nonpayable",
      "type": "function"
    },
    {
      "inputs": [
        {
          "internalType": "uint256",
          "name": "tokenID_",
          "type": "uint256"
        }
      ],
      "name": "collectToken",
      "outputs": [
        {
          "internalType": "uint256",
          "name": "payout",
          "type": "uint256"
        }
      ],
      "stateMutability": "nonpayable",
      "type": "function"
    },
    {
      "inputs": [
        {
          "internalType": "address",
          "name": "to_",
          "type": "address"
        },
        {
          "internalType": "uint256",
          "name": "tokenID_",
          "type": "uint256"
        }
      ],
      "name": "collectTokenTo",
      "outputs": [
        {
          "internalType": "uint256",
          "name": "payout",
          "type": "uint256"
        }
      ],
      "stateMutability": "nonpayable",
      "type": "function"
    },
    {
      "inputs": [
        {
          "internalType": "uint8",
          "name": "magic_",
          "type": "uint8"
        }
      ],
      "name": "depositEth",
      "outputs": [],
      "stateMutability": "payable",
      "type": "function"
    },
    {
      "inputs": [
        {
          "internalType": "uint8",
          "name": "magic_",
          "type": "uint8"
        },
        {
          "internalType": "uint256",
          "name": "amount_",
          "type": "uint256"
        }
      ],
      "name": "depositToken",
      "outputs": [],
      "stateMutability": "nonpayable",
      "type": "function"
    },
    {
      "inputs": [
        {
          "internalType": "uint256",
          "name": "tokenID_",
          "type": "uint256"
        }
      ],
      "name": "estimateEthCollection",
      "outputs": [
        {
          "internalType": "uint256",
          "name": "payout",
          "type": "uint256"
        }
      ],
      "stateMutability": "view",
      "type": "function"
    },
    {
      "inputs": [],
      "name": "estimateExcessEth",
      "outputs": [
        {
          "internalType": "uint256",
          "name": "excess",
          "type": "uint256"
        }
      ],
      "stateMutability": "view",
      "type": "function"
    },
    {
      "inputs": [],
      "name": "estimateExcessToken",
      "outputs": [
        {
          "internalType": "uint256",
          "name": "excess",
          "type": "uint256"
        }
      ],
      "stateMutability": "view",
      "type": "function"
    },
    {
      "inputs": [
        {
          "internalType": "uint256",
          "name": "tokenID_",
          "type": "uint256"
        }
      ],
      "name": "estimateTokenCollection",
      "outputs": [
        {
          "internalType": "uint256",
          "name": "payout",
          "type": "uint256"
        }
      ],
      "stateMutability": "view",
      "type": "function"
    },
    {
      "inputs": [],
      "name": "getAccumulatorScaleFactor",
      "outputs": [
        {
          "internalType": "uint256",
          "name": "",
          "type": "uint256"
        }
      ],
      "stateMutability": "pure",
      "type": "function"
    },
    {
      "inputs": [
        {
          "internalType": "uint256",
          "name": "tokenId",
          "type": "uint256"
        }
      ],
      "name": "getApproved",
      "outputs": [
        {
          "internalType": "address",
          "name": "",
          "type": "address"
        }
      ],
      "stateMutability": "view",
      "type": "function"
    },
    {
      "inputs": [],
      "name": "getEthAccumulator",
      "outputs": [
        {
          "internalType": "uint256",
          "name": "accumulator",
          "type": "uint256"
        },
        {
          "internalType": "uint256",
          "name": "slush",
          "type": "uint256"
        }
      ],
      "stateMutability": "view",
      "type": "function"
    },
    {
      "inputs": [],
      "name": "getMaxMintLock",
      "outputs": [
        {
          "internalType": "uint256",
          "name": "",
          "type": "uint256"
        }
      ],
      "stateMutability": "pure",
      "type": "function"
    },
    {
      "inputs": [
        {
          "internalType": "bytes32",
          "name": "_salt",
          "type": "bytes32"
        },
        {
          "internalType": "address",
          "name": "_factory",
          "type": "address"
        }
      ],
      "name": "getMetamorphicContractAddress",
      "outputs": [
        {
          "internalType": "address",
          "name": "",
          "type": "address"
        }
      ],
      "stateMutability": "pure",
      "type": "function"
    },
    {
      "inputs": [
        {
          "internalType": "uint256",
          "name": "tokenID_",
          "type": "uint256"
        }
      ],
      "name": "getPosition",
      "outputs": [
        {
          "internalType": "uint256",
          "name": "shares",
          "type": "uint256"
        },
        {
          "internalType": "uint256",
          "name": "freeAfter",
          "type": "uint256"
        },
        {
          "internalType": "uint256",
          "name": "withdrawFreeAfter",
          "type": "uint256"
        },
        {
          "internalType": "uint256",
          "name": "accumulatorEth",
          "type": "uint256"
        },
        {
          "internalType": "uint256",
          "name": "accumulatorToken",
          "type": "uint256"
        }
      ],
      "stateMutability": "view",
      "type": "function"
    },
    {
      "inputs": [],
      "name": "getTokenAccumulator",
      "outputs": [
        {
          "internalType": "uint256",
          "name": "accumulator",
          "type": "uint256"
        },
        {
          "internalType": "uint256",
          "name": "slush",
          "type": "uint256"
        }
      ],
      "stateMutability": "view",
      "type": "function"
    },
    {
      "inputs": [],
      "name": "getTotalReserveAToken",
      "outputs": [
        {
          "internalType": "uint256",
          "name": "",
          "type": "uint256"
        }
      ],
      "stateMutability": "view",
      "type": "function"
    },
    {
      "inputs": [],
      "name": "getTotalReserveEth",
      "outputs": [
        {
          "internalType": "uint256",
          "name": "",
          "type": "uint256"
        }
      ],
      "stateMutability": "view",
      "type": "function"
    },
    {
      "inputs": [],
      "name": "getTotalShares",
      "outputs": [
        {
          "internalType": "uint256",
          "name": "",
          "type": "uint256"
        }
      ],
      "stateMutability": "view",
      "type": "function"
    },
    {
      "inputs": [],
      "name": "initialize",
      "outputs": [],
      "stateMutability": "nonpayable",
      "type": "function"
    },
    {
      "inputs": [
        {
          "internalType": "address",
          "name": "owner",
          "type": "address"
        },
        {
          "internalType": "address",
          "name": "operator",
          "type": "address"
        }
      ],
      "name": "isApprovedForAll",
      "outputs": [
        {
          "internalType": "bool",
          "name": "",
          "type": "bool"
        }
      ],
      "stateMutability": "view",
      "type": "function"
    },
    {
      "inputs": [
        {
          "internalType": "uint256",
          "name": "tokenID_",
          "type": "uint256"
        },
        {
          "internalType": "uint256",
          "name": "lockDuration_",
          "type": "uint256"
        }
      ],
      "name": "lockOwnPosition",
      "outputs": [
        {
          "internalType": "uint256",
          "name": "",
          "type": "uint256"
        }
      ],
      "stateMutability": "nonpayable",
      "type": "function"
    },
    {
      "inputs": [
        {
          "internalType": "address",
          "name": "caller_",
          "type": "address"
        },
        {
          "internalType": "uint256",
          "name": "tokenID_",
          "type": "uint256"
        },
        {
          "internalType": "uint256",
          "name": "lockDuration_",
          "type": "uint256"
        }
      ],
      "name": "lockPosition",
      "outputs": [
        {
          "internalType": "uint256",
          "name": "",
          "type": "uint256"
        }
      ],
      "stateMutability": "nonpayable",
      "type": "function"
    },
    {
      "inputs": [
        {
          "internalType": "uint256",
          "name": "tokenID_",
          "type": "uint256"
        },
        {
          "internalType": "uint256",
          "name": "lockDuration_",
          "type": "uint256"
        }
      ],
      "name": "lockWithdraw",
      "outputs": [
        {
          "internalType": "uint256",
          "name": "",
          "type": "uint256"
        }
      ],
      "stateMutability": "nonpayable",
      "type": "function"
    },
    {
      "inputs": [
        {
          "internalType": "uint256",
          "name": "amount_",
          "type": "uint256"
        }
      ],
      "name": "mint",
      "outputs": [
        {
          "internalType": "uint256",
          "name": "tokenID",
          "type": "uint256"
        }
      ],
      "stateMutability": "nonpayable",
      "type": "function"
    },
    {
      "inputs": [
        {
          "internalType": "address",
          "name": "to_",
          "type": "address"
        },
        {
          "internalType": "uint256",
          "name": "amount_",
          "type": "uint256"
        },
        {
          "internalType": "uint256",
          "name": "lockDuration_",
          "type": "uint256"
        }
      ],
      "name": "mintTo",
      "outputs": [
        {
          "internalType": "uint256",
          "name": "tokenID",
          "type": "uint256"
        }
      ],
      "stateMutability": "nonpayable",
      "type": "function"
    },
    {
      "inputs": [],
      "name": "name",
      "outputs": [
        {
          "internalType": "string",
          "name": "",
          "type": "string"
        }
      ],
      "stateMutability": "view",
      "type": "function"
    },
    {
      "inputs": [
        {
          "internalType": "uint256",
          "name": "tokenId",
          "type": "uint256"
        }
      ],
      "name": "ownerOf",
      "outputs": [
        {
          "internalType": "address",
          "name": "",
          "type": "address"
        }
      ],
      "stateMutability": "view",
      "type": "function"
    },
    {
      "inputs": [
        {
          "internalType": "address",
          "name": "from",
          "type": "address"
        },
        {
          "internalType": "address",
          "name": "to",
          "type": "address"
        },
        {
          "internalType": "uint256",
          "name": "tokenId",
          "type": "uint256"
        }
      ],
      "name": "safeTransferFrom",
      "outputs": [],
      "stateMutability": "nonpayable",
      "type": "function"
    },
    {
      "inputs": [
        {
          "internalType": "address",
          "name": "from",
          "type": "address"
        },
        {
          "internalType": "address",
          "name": "to",
          "type": "address"
        },
        {
          "internalType": "uint256",
          "name": "tokenId",
          "type": "uint256"
        },
        {
          "internalType": "bytes",
          "name": "_data",
          "type": "bytes"
        }
      ],
      "name": "safeTransferFrom",
      "outputs": [],
      "stateMutability": "nonpayable",
      "type": "function"
    },
    {
      "inputs": [
        {
          "internalType": "address",
          "name": "operator",
          "type": "address"
        },
        {
          "internalType": "bool",
          "name": "approved",
          "type": "bool"
        }
      ],
      "name": "setApprovalForAll",
      "outputs": [],
      "stateMutability": "nonpayable",
      "type": "function"
    },
    {
      "inputs": [
        {
          "internalType": "address",
          "name": "to_",
          "type": "address"
        }
      ],
      "name": "skimExcessEth",
      "outputs": [
        {
          "internalType": "uint256",
          "name": "excess",
          "type": "uint256"
        }
      ],
      "stateMutability": "nonpayable",
      "type": "function"
    },
    {
      "inputs": [
        {
          "internalType": "address",
          "name": "to_",
          "type": "address"
        }
      ],
      "name": "skimExcessToken",
      "outputs": [
        {
          "internalType": "uint256",
          "name": "excess",
          "type": "uint256"
        }
      ],
      "stateMutability": "nonpayable",
      "type": "function"
    },
    {
      "inputs": [
        {
          "internalType": "bytes4",
          "name": "interfaceId",
          "type": "bytes4"
        }
      ],
      "name": "supportsInterface",
      "outputs": [
        {
          "internalType": "bool",
          "name": "",
          "type": "bool"
        }
      ],
      "stateMutability": "view",
      "type": "function"
    },
    {
      "inputs": [],
      "name": "symbol",
      "outputs": [
        {
          "internalType": "string",
          "name": "",
          "type": "string"
        }
      ],
      "stateMutability": "view",
      "type": "function"
    },
    {
      "inputs": [
        {
          "internalType": "uint256",
          "name": "tokenId",
          "type": "uint256"
        }
      ],
      "name": "tokenURI",
      "outputs": [
        {
          "internalType": "string",
          "name": "",
          "type": "string"
        }
      ],
      "stateMutability": "view",
      "type": "function"
    },
    {
      "inputs": [
        {
          "internalType": "address",
          "name": "from",
          "type": "address"
        },
        {
          "internalType": "address",
          "name": "to",
          "type": "address"
        },
        {
          "internalType": "uint256",
          "name": "tokenId",
          "type": "uint256"
        }
      ],
      "name": "transferFrom",
      "outputs": [],
      "stateMutability": "nonpayable",
      "type": "function"
    },
    {
      "inputs": [],
      "name": "tripCB",
      "outputs": [],
      "stateMutability": "nonpayable",
      "type": "function"
    }
  ],
  "bytecode": "0x6101206040523480156200001257600080fd5b5033608052620000c86c15985b1a59185d1bdc941bdbdb609a1b6200003660805190565b6040517fff0000000000000000000000000000000000000000000000000000000000000060208201526001600160601b0319606083901b166021820152603581018390527f1c0bf703a3415cada9785e89e9d70314c3111ae7d8e04f33bb42eb1d264088be6055820181905260009160750160408051601f198184030181529190528051602090910120949350505050565b6001600160a01b031660a052620000ec6520aa37b5b2b760d11b6200003660805190565b6001600160a01b031660c0526200011469476f7665726e616e636560b01b6200003660805190565b6001600160a01b031660e0526200014f7f5374616b696e67506f736974696f6e44657363726970746f72000000000000006200003660805190565b6001600160a01b03166101005260805160a05160c05160e05161010051615225620001ee600039600061260001526000610d82015260008181611b6301528181611dea015281816128e7015281816137f8015281816139890152613d2b0152600081816114d001528181611628015281816121b60152612abb01526000818161181e0152818161198b01528181611fab015261226201526152256000f3fe6080604052600436106102e75760003560e01c80638653a46511610184578063adfdc03f116100d6578063d5002f2e1161008a578063e985e9c511610064578063e985e9c5146108a0578063ea785a5e146108f6578063eb02c3011461091657600080fd5b8063d5002f2e1461084b578063e35c3e2814610860578063e42a673c1461088057600080fd5b8063be444379116100bb578063be444379146107f3578063c47c6e1414610813578063c87b56dd1461082b57600080fd5b8063adfdc03f146107be578063b88d4fde146107d357600080fd5b806395d89b411161013857806399a89ecc1161011257806399a89ecc1461076b578063a0712d681461077e578063a22cb4651461079e57600080fd5b806395d89b411461071b578063971b505b14610730578063997851321461075057600080fd5b806389465c621161016957806389465c62146106ce578063905953ed146106e657806393c5748d146106fb57600080fd5b80638653a465146105cb5780638853b950146106ae57600080fd5b80632baf2acb1161023d5780636352211e116101f15780638129fc1c116101cb5780638129fc1c146105815780638191f5e514610596578063856de8d2146105b657600080fd5b80636352211e1461052157806370a08231146105415780637aa507fb1461056157600080fd5b806342842e0e1161022257806342842e0e146104b457806342966c68146104d4578063548652d21461050957600080fd5b80632baf2acb1461047f5780633eed3eff1461049f57600080fd5b80630cc65dfb1161029f57806320ea0d481161027957806320ea0d481461041f57806323b872dd1461043f5780632a0d8bd11461045f57600080fd5b80630cc65dfb146103ca5780630e4eb15b146103ea57806319b8be2f1461040a57600080fd5b8063081812fc116102d0578063081812fc14610343578063090f70f014610388578063095ea7b3146103a857600080fd5b806301ffc9a7146102ec57806306fdde0314610321575b600080fd5b3480156102f857600080fd5b5061030c610307366004614b74565b61095e565b60405190151581526020015b60405180910390f35b34801561032d57600080fd5b50610336610a43565b6040516103189190614c07565b34801561034f57600080fd5b5061036361035e366004614c1a565b610ad5565b60405173ffffffffffffffffffffffffffffffffffffffff9091168152602001610318565b34801561039457600080fd5b5062100a405b604051908152602001610318565b3480156103b457600080fd5b506103c86103c3366004614c57565b610b9a565b005b3480156103d657600080fd5b5061039a6103e5366004614c81565b610cf2565b3480156103f657600080fd5b5061039a610405366004614cb4565b610ef6565b34801561041657600080fd5b50609f5461039a565b34801561042b57600080fd5b5061039a61043a366004614c1a565b61105d565b34801561044b57600080fd5b506103c861045a366004614cd6565b611198565b34801561046b57600080fd5b5061039a61047a366004614c1a565b61121f565b34801561048b57600080fd5b5061039a61049a366004614c81565b611440565b3480156104ab57600080fd5b5061039a6115bc565b3480156104c057600080fd5b506103c86104cf366004614cd6565b6115c6565b3480156104e057600080fd5b506104f46104ef366004614c1a565b6115e1565b60408051928352602083019190915201610318565b34801561051557600080fd5b50609c54609d546104f4565b34801561052d57600080fd5b5061036361053c366004614c1a565b61168d565b34801561054d57600080fd5b5061039a61055c366004614d12565b611725565b34801561056d57600080fd5b5061039a61057c366004614d12565b6117d9565b34801561058d57600080fd5b506103c861188f565b3480156105a257600080fd5b506103c86105b1366004614d3e565b611a98565b3480156105c257600080fd5b5060a05461039a565b3480156105d757600080fd5b506103636105e6366004614d5a565b6040517fff0000000000000000000000000000000000000000000000000000000000000060208201527fffffffffffffffffffffffffffffffffffffffff000000000000000000000000606083901b166021820152603581018390527f1c0bf703a3415cada9785e89e9d70314c3111ae7d8e04f33bb42eb1d264088be60558201819052600091607501604080517fffffffffffffffffffffffffffffffffffffffffffffffffffffffffffffffe08184030181529190528051602090910120949350505050565b3480156106ba57600080fd5b5061039a6106c9366004614c57565b611bdb565b3480156106da57600080fd5b5060985460ff1661030c565b3480156106f257600080fd5b5061039a611e18565b34801561070757600080fd5b5061039a610716366004614c1a565b611e27565b34801561072757600080fd5b50610336611f57565b34801561073c57600080fd5b5061039a61074b366004614d12565b611f66565b34801561075c57600080fd5b50670de0b6b3a764000061039a565b6103c8610779366004614d86565b612010565b34801561078a57600080fd5b5061039a610799366004614c1a565b612126565b3480156107aa57600080fd5b506103c86107b9366004614daf565b612227565b3480156107ca57600080fd5b506103c8612236565b3480156107df57600080fd5b506103c86107ee366004614eaa565b6122d3565b3480156107ff57600080fd5b5061039a61080e366004614c57565b612361565b34801561081f57600080fd5b50609a54609b546104f4565b34801561083757600080fd5b50610336610846366004614c1a565b61257b565b34801561085757600080fd5b5060995461039a565b34801561086c57600080fd5b5061039a61087b366004614c1a565b6126d8565b34801561088c57600080fd5b5061039a61089b366004614cb4565b61290d565b3480156108ac57600080fd5b5061030c6108bb366004614f55565b73ffffffffffffffffffffffffffffffffffffffff9182166000908152606a6020908152604080832093909416825291909152205460ff1690565b34801561090257600080fd5b506104f4610911366004614c57565b612a74565b34801561092257600080fd5b50610936610931366004614c1a565b612b22565b604080519586526020860194909452928401919091526060830152608082015260a001610318565b60007fffffffff0000000000000000000000000000000000000000000000000000000082167f80ac58cd0000000000000000000000000000000000000000000000000000000014806109f157507fffffffff0000000000000000000000000000000000000000000000000000000082167f5b5e139f00000000000000000000000000000000000000000000000000000000145b80610a3d57507f01ffc9a7000000000000000000000000000000000000000000000000000000007fffffffff000000000000000000000000000000000000000000000000000000008316145b92915050565b606060658054610a5290614f7f565b80601f0160208091040260200160405190810160405280929190818152602001828054610a7e90614f7f565b8015610acb5780601f10610aa057610100808354040283529160200191610acb565b820191906000526020600020905b815481529060010190602001808311610aae57829003601f168201915b5050505050905090565b60008181526067602052604081205473ffffffffffffffffffffffffffffffffffffffff16610b715760405162461bcd60e51b815260206004820152602c60248201527f4552433732313a20617070726f76656420717565727920666f72206e6f6e657860448201527f697374656e7420746f6b656e000000000000000000000000000000000000000060648201526084015b60405180910390fd5b5060009081526069602052604090205473ffffffffffffffffffffffffffffffffffffffff1690565b6000610ba58261168d565b90508073ffffffffffffffffffffffffffffffffffffffff168373ffffffffffffffffffffffffffffffffffffffff1603610c485760405162461bcd60e51b815260206004820152602160248201527f4552433732313a20617070726f76616c20746f2063757272656e74206f776e6560448201527f72000000000000000000000000000000000000000000000000000000000000006064820152608401610b68565b3373ffffffffffffffffffffffffffffffffffffffff82161480610c715750610c7181336108bb565b610ce35760405162461bcd60e51b815260206004820152603860248201527f4552433732313a20617070726f76652063616c6c6572206973206e6f74206f7760448201527f6e6572206e6f7220617070726f76656420666f7220616c6c00000000000000006064820152608401610b68565b610ced8383612c4e565b505050565b609854604080517f3530300000000000000000000000000000000000000000000000000000000000602082015260009260ff1615910160405160208183030381529060405290610d555760405162461bcd60e51b8152600401610b689190614c07565b50604080517f323030330000000000000000000000000000000000000000000000000000000060208201527f000000000000000000000000000000000000000000000000000000000000000073ffffffffffffffffffffffffffffffffffffffff163314910160405160208183030381529060405290610de85760405162461bcd60e51b8152600401610b689190614c07565b50610df28361168d565b73ffffffffffffffffffffffffffffffffffffffff168473ffffffffffffffffffffffffffffffffffffffff16147f3630300000000000000000000000000000000000000000000000000000000000604051602001610e5391815260200190565b60405160208183030381529060405290610e805760405162461bcd60e51b8152600401610b689190614c07565b50604080517f363031000000000000000000000000000000000000000000000000000000000060208201526202a300841115910160405160208183030381529060405290610ee15760405162461bcd60e51b8152600401610b689190614c07565b50610eec8383612cee565b90505b9392505050565b609854604080517f3530300000000000000000000000000000000000000000000000000000000000602082015260009260ff1615910160405160208183030381529060405290610f595760405162461bcd60e51b8152600401610b689190614c07565b50610f638361168d565b73ffffffffffffffffffffffffffffffffffffffff163373ffffffffffffffffffffffffffffffffffffffff16147f3630300000000000000000000000000000000000000000000000000000000000604051602001610fc491815260200190565b60405160208183030381529060405290610ff15760405162461bcd60e51b8152600401610b689190614c07565b50604080517f363031000000000000000000000000000000000000000000000000000000000060208201526202a3008411159101604051602081830303815290604052906110525760405162461bcd60e51b8152600401610b689190614c07565b50610eef8383612eb8565b60008181526067602052604081205473ffffffffffffffffffffffffffffffffffffffff161515604080517f3630340000000000000000000000000000000000000000000000000000000000602082015201604051602081830303815290604052906110dc5760405162461bcd60e51b8152600401610b689190614c07565b506000828152609e6020908152604091829020825160a08101845281547bffffffffffffffffffffffffffffffffffffffffffffffffffffffff811682527c0100000000000000000000000000000000000000000000000000000000900463ffffffff168184015260018201548185015260028201546060820190815260039092015460808201526099548451808601909552609c548552609d54938501939093529051909261118e92918490613071565b9695505050505050565b6111a233826131da565b6112145760405162461bcd60e51b815260206004820152603160248201527f4552433732313a207472616e736665722063616c6c6572206973206e6f74206f60448201527f776e6572206e6f7220617070726f7665640000000000000000000000000000006064820152608401610b68565b610ced838383613330565b60008061122b8361168d565b604080517f363030000000000000000000000000000000000000000000000000000000000060208201529192503373ffffffffffffffffffffffffffffffffffffffff8416149101604051602081830303815290604052906112a05760405162461bcd60e51b8152600401610b689190614c07565b506000838152609e60208181526040808420815160a08101835281547bffffffffffffffffffffffffffffffffffffffffffffffffffffffff811682527c0100000000000000000000000000000000000000000000000000000000900463ffffffff168185015260018201548184018190526002830154606083015260039092015460808201529488905292825280517f36303300000000000000000000000000000000000000000000000000000000008184015281518082039093018352810190529043116113835760405162461bcd60e51b8152600401610b689190614c07565b5061139060995482613563565b6000868152609e6020908152604080832085519286015163ffffffff167c0100000000000000000000000000000000000000000000000000000000027bffffffffffffffffffffffffffffffffffffffffffffffffffffffff909316929092178255840151600182015560608401516002820155608090930151600390930192909255609f805491955085929091611429908490614ffb565b9091555061143990508284613605565b5050919050565b609854604080517f3530300000000000000000000000000000000000000000000000000000000000602082015260009260ff16159101604051602081830303815290604052906114a35760405162461bcd60e51b8152600401610b689190614c07565b50604080517f323031300000000000000000000000000000000000000000000000000000000060208201527f000000000000000000000000000000000000000000000000000000000000000073ffffffffffffffffffffffffffffffffffffffff1633149101604051602081830303815290604052906115365760405162461bcd60e51b8152600401610b689190614c07565b50604080517f3630320000000000000000000000000000000000000000000000000000000000602082015262100a408411159101604051602081830303815290604052906115975760405162461bcd60e51b8152600401610b689190614c07565b506115a28484613770565b90508115610eef576115b48183612cee565b509392505050565b6000610a3d61397f565b610ced838383604051806020016040528060008152506122d3565b604080517f3230313000000000000000000000000000000000000000000000000000000000602082015260009182913373ffffffffffffffffffffffffffffffffffffffff7f000000000000000000000000000000000000000000000000000000000000000016149101604051602081830303815290604052906116785760405162461bcd60e51b8152600401610b689190614c07565b50611684333385613ab5565b91509150915091565b60008181526067602052604081205473ffffffffffffffffffffffffffffffffffffffff1680610a3d5760405162461bcd60e51b815260206004820152602960248201527f4552433732313a206f776e657220717565727920666f72206e6f6e657869737460448201527f656e7420746f6b656e00000000000000000000000000000000000000000000006064820152608401610b68565b600073ffffffffffffffffffffffffffffffffffffffff82166117b05760405162461bcd60e51b815260206004820152602a60248201527f4552433732313a2062616c616e636520717565727920666f7220746865207a6560448201527f726f2061646472657373000000000000000000000000000000000000000000006064820152608401610b68565b5073ffffffffffffffffffffffffffffffffffffffff1660009081526068602052604090205490565b604080517f323030300000000000000000000000000000000000000000000000000000000060208201526000913373ffffffffffffffffffffffffffffffffffffffff7f0000000000000000000000000000000000000000000000000000000000000000161491016040516020818303038152906040529061186e5760405162461bcd60e51b8152600401610b689190614c07565b50600061187961397f565b92509050611888818484613d65565b505b919050565b600054610100900460ff166118aa5760005460ff16156118ae565b303b155b6119205760405162461bcd60e51b815260206004820152602e60248201527f496e697469616c697a61626c653a20636f6e747261637420697320616c72656160448201527f647920696e697469616c697a65640000000000000000000000000000000000006064820152608401610b68565b600054610100900460ff1615801561195f57600080547fffffffffffffffffffffffffffffffffffffffffffffffffffffffffffff0000166101011790555b604080517f323030300000000000000000000000000000000000000000000000000000000060208201527f000000000000000000000000000000000000000000000000000000000000000073ffffffffffffffffffffffffffffffffffffffff1633149101604051602081830303815290604052906119f15760405162461bcd60e51b8152600401610b689190614c07565b50611a666040518060400160405280600681526020017f4156534e465400000000000000000000000000000000000000000000000000008152506040518060400160405280600381526020017f4156530000000000000000000000000000000000000000000000000000000000815250613f0e565b8015611a9557600080547fffffffffffffffffffffffffffffffffffffffffffffffffffffffffffff00ff1690555b50565b609854604080517f3530300000000000000000000000000000000000000000000000000000000000602082015260ff90921615910160405160208183030381529060405290611afa5760405162461bcd60e51b8152600401610b689190614c07565b50604080517f32323030000000000000000000000000000000000000000000000000000000006020820152839160ff8316602a14910160405160208183030381529060405290611b5d5760405162461bcd60e51b8152600401610b689190614c07565b50611b8a7f00000000000000000000000000000000000000000000000000000000000000005b3384613f95565b60995460408051808201909152609a548152609b546020820152611bb091908490614090565b8051609a5560200151609b5560a08054839190600090611bd1908490615012565b9091555050505050565b600080611be78361168d565b604080517f363030000000000000000000000000000000000000000000000000000000000060208201529192503373ffffffffffffffffffffffffffffffffffffffff841614910160405160208183030381529060405290611c5c5760405162461bcd60e51b8152600401610b689190614c07565b506000838152609e6020908152604091829020825160a08101845281547bffffffffffffffffffffffffffffffffffffffffffffffffffffffff811682527c0100000000000000000000000000000000000000000000000000000000900463ffffffff1681840152600182015481850181905260028301546060830152600390920154608082015283517f3630330000000000000000000000000000000000000000000000000000000000818501528451808203909401845284019093524311611d395760405162461bcd60e51b8152600401610b689190614c07565b50611d4660995482614170565b6000868152609e6020908152604080832085519286015163ffffffff167c0100000000000000000000000000000000000000000000000000000000027bffffffffffffffffffffffffffffffffffffffffffffffffffffffff90931692909217825584015160018201556060840151600282015560809093015160039093019290925560a0805491955085929091611ddf908490614ffb565b90915550611e1090507f00000000000000000000000000000000000000000000000000000000000000008685613d65565b505092915050565b6000611e22614212565b905090565b60008181526067602052604081205473ffffffffffffffffffffffffffffffffffffffff161515604080517f363034000000000000000000000000000000000000000000000000000000000060208201520160405160208183030381529060405290611ea65760405162461bcd60e51b8152600401610b689190614c07565b506000828152609e6020908152604091829020825160a08101845281547bffffffffffffffffffffffffffffffffffffffffffffffffffffffff811682527c0100000000000000000000000000000000000000000000000000000000900463ffffffff168184015260018201548185015260028201546060820152600390910154608082019081526099548451808601909552609a548552609b549385019390935251909261118e92918490613071565b606060668054610a5290614f7f565b604080517f323030300000000000000000000000000000000000000000000000000000000060208201526000913373ffffffffffffffffffffffffffffffffffffffff7f00000000000000000000000000000000000000000000000000000000000000001614910160405160208183030381529060405290611ffb5760405162461bcd60e51b8152600401610b689190614c07565b50612004614212565b905061188a8282613605565b609854604080517f3530300000000000000000000000000000000000000000000000000000000000602082015260ff909216159101604051602081830303815290604052906120725760405162461bcd60e51b8152600401610b689190614c07565b50604080517f32323030000000000000000000000000000000000000000000000000000000006020820152829160ff8316602a149101604051602081830303815290604052906120d55760405162461bcd60e51b8152600401610b689190614c07565b5060995460408051808201909152609c548152609d5460208201526120fc91903490614090565b8051609c5560200151609d55609f805434919060009061211d908490615012565b90915550505050565b609854604080517f3530300000000000000000000000000000000000000000000000000000000000602082015260009260ff16159101604051602081830303815290604052906121895760405162461bcd60e51b8152600401610b689190614c07565b50604080517f323031300000000000000000000000000000000000000000000000000000000060208201527f000000000000000000000000000000000000000000000000000000000000000073ffffffffffffffffffffffffffffffffffffffff16331491016040516020818303038152906040529061221c5760405162461bcd60e51b8152600401610b689190614c07565b50610a3d3383613770565b61223233838361428a565b5050565b604080517f323030300000000000000000000000000000000000000000000000000000000060208201527f000000000000000000000000000000000000000000000000000000000000000073ffffffffffffffffffffffffffffffffffffffff1633149101604051602081830303815290604052906122c85760405162461bcd60e51b8152600401610b689190614c07565b506122d161439d565b565b6122dd33836131da565b61234f5760405162461bcd60e51b815260206004820152603160248201527f4552433732313a207472616e736665722063616c6c6572206973206e6f74206f60448201527f776e6572206e6f7220617070726f7665640000000000000000000000000000006064820152608401610b68565b61235b8484848461442d565b50505050565b60008061236d8361168d565b604080517f363030000000000000000000000000000000000000000000000000000000000060208201529192503373ffffffffffffffffffffffffffffffffffffffff8416149101604051602081830303815290604052906123e25760405162461bcd60e51b8152600401610b689190614c07565b506000838152609e60208181526040808420815160a08101835281547bffffffffffffffffffffffffffffffffffffffffffffffffffffffff811682527c0100000000000000000000000000000000000000000000000000000000900463ffffffff168185015260018201548184018190526002830154606083015260039092015460808201529488905292825280517f36303300000000000000000000000000000000000000000000000000000000008184015281518082039093018352810190529043116124c55760405162461bcd60e51b8152600401610b689190614c07565b506124d260995482613563565b6000868152609e6020908152604080832085519286015163ffffffff167c0100000000000000000000000000000000000000000000000000000000027bffffffffffffffffffffffffffffffffffffffffffffffffffffffff909316929092178255840151600182015560608401516002820155608090930151600390930192909255609f80549195508592909161256b908490614ffb565b90915550611e1090508584613605565b60008181526067602052604090205460609073ffffffffffffffffffffffffffffffffffffffff161515604080517f3630340000000000000000000000000000000000000000000000000000000000602082015201604051602081830303815290604052906125fd5760405162461bcd60e51b8152600401610b689190614c07565b507f00000000000000000000000000000000000000000000000000000000000000006040517fe9dc63750000000000000000000000000000000000000000000000000000000081523060048201526024810184905273ffffffffffffffffffffffffffffffffffffffff919091169063e9dc637590604401600060405180830381865afa158015612692573d6000803e3d6000fd5b505050506040513d6000823e601f3d9081017fffffffffffffffffffffffffffffffffffffffffffffffffffffffffffffffe0168201604052610a3d919081019061502a565b6000806126e48361168d565b604080517f363030000000000000000000000000000000000000000000000000000000000060208201529192503373ffffffffffffffffffffffffffffffffffffffff8416149101604051602081830303815290604052906127595760405162461bcd60e51b8152600401610b689190614c07565b506000838152609e6020908152604091829020825160a08101845281547bffffffffffffffffffffffffffffffffffffffffffffffffffffffff811682527c0100000000000000000000000000000000000000000000000000000000900463ffffffff1681840152600182015481850181905260028301546060830152600390920154608082015283517f36303300000000000000000000000000000000000000000000000000000000008185015284518082039094018452840190935243116128365760405162461bcd60e51b8152600401610b689190614c07565b5061284360995482614170565b6000868152609e6020908152604080832085519286015163ffffffff167c0100000000000000000000000000000000000000000000000000000000027bffffffffffffffffffffffffffffffffffffffffffffffffffffffff90931692909217825584015160018201556060840151600282015560809093015160039093019290925560a08054919550859290916128dc908490614ffb565b9091555061143990507f00000000000000000000000000000000000000000000000000000000000000008385613d65565b609854604080517f3530300000000000000000000000000000000000000000000000000000000000602082015260009260ff16159101604051602081830303815290604052906129705760405162461bcd60e51b8152600401610b689190614c07565b5061297a8361168d565b73ffffffffffffffffffffffffffffffffffffffff163373ffffffffffffffffffffffffffffffffffffffff16147f36303000000000000000000000000000000000000000000000000000000000006040516020016129db91815260200190565b60405160208183030381529060405290612a085760405162461bcd60e51b8152600401610b689190614c07565b50604080517f363031000000000000000000000000000000000000000000000000000000000060208201526202a300841115910160405160208183030381529060405290612a695760405162461bcd60e51b8152600401610b689190614c07565b50610eef8383612cee565b604080517f3230313000000000000000000000000000000000000000000000000000000000602082015260009182913373ffffffffffffffffffffffffffffffffffffffff7f00000000000000000000000000000000000000000000000000000000000000001614910160405160208183030381529060405290612b0b5760405162461bcd60e51b8152600401610b689190614c07565b50612b17338585613ab5565b915091509250929050565b6000806000806000612b588660009081526067602052604090205473ffffffffffffffffffffffffffffffffffffffff16151590565b604080517f363034000000000000000000000000000000000000000000000000000000000060208201520160405160208183030381529060405290612bb05760405162461bcd60e51b8152600401610b689190614c07565b50505060009384525050609e6020908152604092839020835160a08101855281547bffffffffffffffffffffffffffffffffffffffffffffffffffffffff81168083527c010000000000000000000000000000000000000000000000000000000090910463ffffffff169382018490526001830154958201869052600283015460608301819052600390930154608090920182905295929493509091565b600081815260696020526040902080547fffffffffffffffffffffffff00000000000000000000000000000000000000001673ffffffffffffffffffffffffffffffffffffffff84169081179091558190612ca88261168d565b73ffffffffffffffffffffffffffffffffffffffff167f8c5be1e5ebec7d5bd14f71427d1e84f3dd0314c0f7b2291e5b200ac8c7c3b92560405160405180910390a45050565b60008281526067602052604081205473ffffffffffffffffffffffffffffffffffffffff161515604080517f363034000000000000000000000000000000000000000000000000000000000060208201520160405160208183030381529060405290612d6d5760405162461bcd60e51b8152600401610b689190614c07565b506000838152609e60209081526040808320815160a08101835281547bffffffffffffffffffffffffffffffffffffffffffffffffffffffff811682527c0100000000000000000000000000000000000000000000000000000000900463ffffffff16938101939093526001810154918301919091526002810154606083015260030154608082015290612e0184436150a1565b9050816020015163ffffffff168163ffffffff1611612e24578160200151612e26565b805b63ffffffff90811660208085019182526000888152609e909152604090819020855192519093167c0100000000000000000000000000000000000000000000000000000000027bffffffffffffffffffffffffffffffffffffffffffffffffffffffff909216918217835584015160018301556060840151600283015560809093015160039091015550905092915050565b60008281526067602052604081205473ffffffffffffffffffffffffffffffffffffffff161515604080517f363034000000000000000000000000000000000000000000000000000000000060208201520160405160208183030381529060405290612f375760405162461bcd60e51b8152600401610b689190614c07565b506000838152609e60209081526040808320815160a08101835281547bffffffffffffffffffffffffffffffffffffffffffffffffffffffff811682527c0100000000000000000000000000000000000000000000000000000000900463ffffffff16938101939093526001810154918301919091526002810154606083015260030154608082015290612fcb8443615012565b905081604001518111612fe2578160400151612fe4565b805b60408084019182526000878152609e602090815291902084519185015163ffffffff167c0100000000000000000000000000000000000000000000000000000000027bffffffffffffffffffffffffffffffffffffffffffffffffffffffff9092169182178155915160018301556060840151600283015560809093015160039091015550905092915050565b60408051808201825260008082526020808301829052835160a08101855282815290810182905292830181905260608301819052608083015290600080600087600001518611156130f5576130db8674ffffffffffffffffffffffffffffffffffffffffff614ffb565b88519091506130ea9082615012565b885196509050613111565b8751613102908790614ffb565b905061310e8187615012565b95505b865160009061313e907bffffffffffffffffffffffffffffffffffffffffffffffffffffffff16836150c9565b88519091507bffffffffffffffffffffffffffffffffffffffffffffffffffffffff168a036131805760208901516131769082615012565b600060208b015290505b80613193670de0b6b3a764000082615135565b91506131a7670de0b6b3a7640000836150c9565b6131b19082614ffb565b9050808a6020018181516131c59190615012565b905250989a9799509597509495945050505050565b60008181526067602052604081205473ffffffffffffffffffffffffffffffffffffffff166132715760405162461bcd60e51b815260206004820152602c60248201527f4552433732313a206f70657261746f7220717565727920666f72206e6f6e657860448201527f697374656e7420746f6b656e00000000000000000000000000000000000000006064820152608401610b68565b600061327c8361168d565b90508073ffffffffffffffffffffffffffffffffffffffff168473ffffffffffffffffffffffffffffffffffffffff1614806132eb57508373ffffffffffffffffffffffffffffffffffffffff166132d384610ad5565b73ffffffffffffffffffffffffffffffffffffffff16145b80613328575073ffffffffffffffffffffffffffffffffffffffff8082166000908152606a602090815260408083209388168352929052205460ff165b949350505050565b8273ffffffffffffffffffffffffffffffffffffffff166133508261168d565b73ffffffffffffffffffffffffffffffffffffffff16146133d95760405162461bcd60e51b815260206004820152602560248201527f4552433732313a207472616e736665722066726f6d20696e636f72726563742060448201527f6f776e65720000000000000000000000000000000000000000000000000000006064820152608401610b68565b73ffffffffffffffffffffffffffffffffffffffff82166134615760405162461bcd60e51b8152602060048201526024808201527f4552433732313a207472616e7366657220746f20746865207a65726f2061646460448201527f72657373000000000000000000000000000000000000000000000000000000006064820152608401610b68565b61346c600082612c4e565b73ffffffffffffffffffffffffffffffffffffffff831660009081526068602052604081208054600192906134a2908490614ffb565b909155505073ffffffffffffffffffffffffffffffffffffffff821660009081526068602052604081208054600192906134dd908490615012565b909155505060008181526067602052604080822080547fffffffffffffffffffffffff00000000000000000000000000000000000000001673ffffffffffffffffffffffffffffffffffffffff86811691821790925591518493918716917fddf252ad1be2c89b69c2b068fc378daa952ba7f163c4a11628f55a4df523b3ef91a4505050565b6135b96040518060a0016040528060007bffffffffffffffffffffffffffffffffffffffffffffffffffffffff168152602001600063ffffffff1681526020016000815260200160008152602001600081525090565b60408051808201909152609c548152609d546020820152606083015160009182916135e79187918790613071565b8351609c55602090930151609d556060820152969095509350505050565b80600003613611575050565b73ffffffffffffffffffffffffffffffffffffffff821661369a5760405162461bcd60e51b815260206004820152603360248201527f457468536166655472616e736665723a2063616e6e6f74207472616e7366657260448201527f2045544820746f206164647265737320307830000000000000000000000000006064820152608401610b68565b604051829060009073ffffffffffffffffffffffffffffffffffffffff83169084908381818185875af1925050503d80600081146136f4576040519150601f19603f3d011682016040523d82523d6000602084013e6136f9565b606091505b505090508061235b5760405162461bcd60e51b815260206004820152602160248201527f457468536166655472616e736665723a205472616e73666572206661696c656460448201527f2e000000000000000000000000000000000000000000000000000000000000006064820152608401610b68565b60007bffffffffffffffffffffffffffffffffffffffffffffffffffffffff8211157f36303500000000000000000000000000000000000000000000000000000000006040516020016137c591815260200190565b604051602081830303815290604052906137f25760405162461bcd60e51b8152600401610b689190614c07565b5061381c7f0000000000000000000000000000000000000000000000000000000000000000611b83565b609954604080518082018252609c548152609d546020808301919091528251808401909352609a548352609b5490830152906138566144b6565b93506138628584615012565b60998190556040805160a081019091527bffffffffffffffffffffffffffffffffffffffffffffffffffffffff87168152909350602081016138a54360016150a1565b63ffffffff1681526020016138bb4360016150a1565b63ffffffff9081168252845160208084019190915284516040938401526000888152609e82528381208551928601519093167c0100000000000000000000000000000000000000000000000000000000027bffffffffffffffffffffffffffffffffffffffffffffffffffffffff9092169190911782559183015160018201556060830151600282015560809092015160039092019190915560a08054879290613966908490615012565b90915550613976905086856144ce565b50505092915050565b60a05460009081907f00000000000000000000000000000000000000000000000000000000000000006040517f70a0823100000000000000000000000000000000000000000000000000000000815230600482015290935060009073ffffffffffffffffffffffffffffffffffffffff8516906370a0823190602401602060405180830381865afa158015613a18573d6000803e3d6000fd5b505050506040513d601f19601f82011682018060405250810190613a3c9190615149565b9050818110157f3630370000000000000000000000000000000000000000000000000000000000604051602001613a7591815260200190565b60405160208183030381529060405290613aa25760405162461bcd60e51b8152600401610b689190614c07565b50613aad8282614ffb565b925050509091565b600080613ac18361168d565b73ffffffffffffffffffffffffffffffffffffffff168573ffffffffffffffffffffffffffffffffffffffff16147f3630300000000000000000000000000000000000000000000000000000000000604051602001613b2291815260200190565b60405160208183030381529060405290613b4f5760405162461bcd60e51b8152600401610b689190614c07565b506000838152609e6020908152604091829020825160a08101845281547bffffffffffffffffffffffffffffffffffffffffffffffffffffffff811682527c0100000000000000000000000000000000000000000000000000000000900463ffffffff169281018390526001820154938101939093526002810154606084015260030154608083015243118015613be95750438160400151105b604080517f363036000000000000000000000000000000000000000000000000000000000060208201520160405160208183030381529060405290613c415760405162461bcd60e51b8152600401610b689190614c07565b50609954613c4f8183613563565b94509150613c5d8183614170565b8151909450909250613c8d907bffffffffffffffffffffffffffffffffffffffffffffffffffffffff1684615012565b925081600001517bffffffffffffffffffffffffffffffffffffffffffffffffffffffff1660996000828254613cc39190614ffb565b925050819055508260a06000828254613cdc9190614ffb565b9250508190555083609f6000828254613cf59190614ffb565b90915550506000858152609e60205260408120818155600181018290556002810182905560030155613d268561465c565b613d517f00000000000000000000000000000000000000000000000000000000000000008785613d65565b613d5b8685613605565b5050935093915050565b80600003613d7257505050565b73ffffffffffffffffffffffffffffffffffffffff8316613dfb5760405162461bcd60e51b815260206004820152603f60248201527f4552433230536166655472616e736665723a2043616e6e6f742063616c6c206d60448201527f6574686f6473206f6e20636f6e74726163742061646472657373203078302e006064820152608401610b68565b6040517fa9059cbb00000000000000000000000000000000000000000000000000000000815273ffffffffffffffffffffffffffffffffffffffff8381166004830152602482018390526000919085169063a9059cbb906044015b6020604051808303816000875af1158015613e75573d6000803e3d6000fd5b505050506040513d601f19601f82011682018060405250810190613e999190615162565b90508061235b5760405162461bcd60e51b815260206004820152602360248201527f4552433230536166655472616e736665723a205472616e73666572206661696c60448201527f65642e00000000000000000000000000000000000000000000000000000000006064820152608401610b68565b600054610100900460ff16613f8b5760405162461bcd60e51b815260206004820152602b60248201527f496e697469616c697a61626c653a20636f6e7472616374206973206e6f74206960448201527f6e697469616c697a696e670000000000000000000000000000000000000000006064820152608401610b68565b6122328282614729565b80600003613fa257505050565b73ffffffffffffffffffffffffffffffffffffffff831661402b5760405162461bcd60e51b815260206004820152603f60248201527f4552433230536166655472616e736665723a2043616e6e6f742063616c6c206d60448201527f6574686f6473206f6e20636f6e74726163742061646472657373203078302e006064820152608401610b68565b6040517f23b872dd00000000000000000000000000000000000000000000000000000000815273ffffffffffffffffffffffffffffffffffffffff838116600483015230602483015260448201839052600091908516906323b872dd90606401613e56565b60408051808201909152600080825260208201526140b6670de0b6b3a7640000846150c9565b826020018181516140c79190615012565b90525083156140eb576140e384836000015184602001516147b0565b602084015282525b748000000000000000000000000000000000000000008260200151107f363038000000000000000000000000000000000000000000000000000000000060405160200161413a91815260200190565b604051602081830303815290604052906141675760405162461bcd60e51b8152600401610b689190614c07565b50909392505050565b6141c66040518060a0016040528060007bffffffffffffffffffffffffffffffffffffffffffffffffffffffff168152602001600063ffffffff1681526020016000815260200160008152602001600081525090565b60408051808201909152609a548152609b546020820152608083015160009182916141f49187918790613071565b8351609a55602090930151609b556080820152969095509350505050565b609f54604080517f36303700000000000000000000000000000000000000000000000000000000006020820152600092914791838310159101604051602081830303815290604052906142785760405162461bcd60e51b8152600401610b689190614c07565b506142838282614ffb565b9250505090565b8173ffffffffffffffffffffffffffffffffffffffff168373ffffffffffffffffffffffffffffffffffffffff16036143055760405162461bcd60e51b815260206004820152601960248201527f4552433732313a20617070726f766520746f2063616c6c6572000000000000006044820152606401610b68565b73ffffffffffffffffffffffffffffffffffffffff8381166000818152606a602090815260408083209487168084529482529182902080547fffffffffffffffffffffffffffffffffffffffffffffffffffffffffffffff001686151590811790915591519182527f17307eab39ab6107e8899845ad3d59bd9653f200f220920489ca2b5937696c31910160405180910390a3505050565b609854604080517f3530300000000000000000000000000000000000000000000000000000000000602082015260ff909216159101604051602081830303815290604052906143ff5760405162461bcd60e51b8152600401610b689190614c07565b50609880547fffffffffffffffffffffffffffffffffffffffffffffffffffffffffffffff00166001179055565b614438848484613330565b61444484848484614834565b61235b5760405162461bcd60e51b815260206004820152603260248201527f4552433732313a207472616e7366657220746f206e6f6e20455243373231526560448201527f63656976657220696d706c656d656e74657200000000000000000000000000006064820152608401610b68565b6097546144c4600182615012565b6097819055919050565b73ffffffffffffffffffffffffffffffffffffffff82166145315760405162461bcd60e51b815260206004820181905260248201527f4552433732313a206d696e7420746f20746865207a65726f20616464726573736044820152606401610b68565b60008181526067602052604090205473ffffffffffffffffffffffffffffffffffffffff16156145a35760405162461bcd60e51b815260206004820152601c60248201527f4552433732313a20746f6b656e20616c7265616479206d696e746564000000006044820152606401610b68565b73ffffffffffffffffffffffffffffffffffffffff821660009081526068602052604081208054600192906145d9908490615012565b909155505060008181526067602052604080822080547fffffffffffffffffffffffff00000000000000000000000000000000000000001673ffffffffffffffffffffffffffffffffffffffff861690811790915590518392907fddf252ad1be2c89b69c2b068fc378daa952ba7f163c4a11628f55a4df523b3ef908290a45050565b60006146678261168d565b9050614674600083612c4e565b73ffffffffffffffffffffffffffffffffffffffff811660009081526068602052604081208054600192906146aa908490614ffb565b909155505060008281526067602052604080822080547fffffffffffffffffffffffff00000000000000000000000000000000000000001690555183919073ffffffffffffffffffffffffffffffffffffffff8416907fddf252ad1be2c89b69c2b068fc378daa952ba7f163c4a11628f55a4df523b3ef908390a45050565b600054610100900460ff166147a65760405162461bcd60e51b815260206004820152602b60248201527f496e697469616c697a61626c653a20636f6e7472616374206973206e6f74206960448201527f6e697469616c697a696e670000000000000000000000000000000000000000006064820152608401610b68565b6122328282614a0d565b600080841561482a5760006147c58685615135565b90506147d186826150c9565b6147db9085614ffb565b93506147e78186615012565b945074ffffffffffffffffffffffffffffffffffffffffff8511156148285761482574ffffffffffffffffffffffffffffffffffffffffff8661517f565b94505b505b5091939092509050565b600073ffffffffffffffffffffffffffffffffffffffff84163b15614a02576040517f150b7a0200000000000000000000000000000000000000000000000000000000815273ffffffffffffffffffffffffffffffffffffffff85169063150b7a02906148ab903390899088908890600401615193565b6020604051808303816000875af1925050508015614904575060408051601f3d9081017fffffffffffffffffffffffffffffffffffffffffffffffffffffffffffffffe0168201909252614901918101906151d2565b60015b6149b7573d808015614932576040519150601f19603f3d011682016040523d82523d6000602084013e614937565b606091505b5080516000036149af5760405162461bcd60e51b815260206004820152603260248201527f4552433732313a207472616e7366657220746f206e6f6e20455243373231526560448201527f63656976657220696d706c656d656e74657200000000000000000000000000006064820152608401610b68565b805181602001fd5b7fffffffff00000000000000000000000000000000000000000000000000000000167f150b7a0200000000000000000000000000000000000000000000000000000000149050613328565b506001949350505050565b600054610100900460ff16614a8a5760405162461bcd60e51b815260206004820152602b60248201527f496e697469616c697a61626c653a20636f6e7472616374206973206e6f74206960448201527f6e697469616c697a696e670000000000000000000000000000000000000000006064820152608401610b68565b8151614a9d906065906020850190614aad565b508051610ced9060669060208401905b828054614ab990614f7f565b90600052602060002090601f016020900481019282614adb5760008555614b21565b82601f10614af457805160ff1916838001178555614b21565b82800160010185558215614b21579182015b82811115614b21578251825591602001919060010190614b06565b50614b2d929150614b31565b5090565b5b80821115614b2d5760008155600101614b32565b7fffffffff0000000000000000000000000000000000000000000000000000000081168114611a9557600080fd5b600060208284031215614b8657600080fd5b8135610eef81614b46565b60005b83811015614bac578181015183820152602001614b94565b8381111561235b5750506000910152565b60008151808452614bd5816020860160208601614b91565b601f017fffffffffffffffffffffffffffffffffffffffffffffffffffffffffffffffe0169290920160200192915050565b602081526000610eef6020830184614bbd565b600060208284031215614c2c57600080fd5b5035919050565b803573ffffffffffffffffffffffffffffffffffffffff8116811461188a57600080fd5b60008060408385031215614c6a57600080fd5b614c7383614c33565b946020939093013593505050565b600080600060608486031215614c9657600080fd5b614c9f84614c33565b95602085013595506040909401359392505050565b60008060408385031215614cc757600080fd5b50508035926020909101359150565b600080600060608486031215614ceb57600080fd5b614cf484614c33565b9250614d0260208501614c33565b9150604084013590509250925092565b600060208284031215614d2457600080fd5b610eef82614c33565b803560ff8116811461188a57600080fd5b60008060408385031215614d5157600080fd5b614c7383614d2d565b60008060408385031215614d6d57600080fd5b82359150614d7d60208401614c33565b90509250929050565b600060208284031215614d9857600080fd5b610eef82614d2d565b8015158114611a9557600080fd5b60008060408385031215614dc257600080fd5b614dcb83614c33565b91506020830135614ddb81614da1565b809150509250929050565b7f4e487b7100000000000000000000000000000000000000000000000000000000600052604160045260246000fd5b604051601f82017fffffffffffffffffffffffffffffffffffffffffffffffffffffffffffffffe016810167ffffffffffffffff81118282101715614e5c57614e5c614de6565b604052919050565b600067ffffffffffffffff821115614e7e57614e7e614de6565b50601f017fffffffffffffffffffffffffffffffffffffffffffffffffffffffffffffffe01660200190565b60008060008060808587031215614ec057600080fd5b614ec985614c33565b9350614ed760208601614c33565b925060408501359150606085013567ffffffffffffffff811115614efa57600080fd5b8501601f81018713614f0b57600080fd5b8035614f1e614f1982614e64565b614e15565b818152886020838501011115614f3357600080fd5b8160208401602083013760006020838301015280935050505092959194509250565b60008060408385031215614f6857600080fd5b614f7183614c33565b9150614d7d60208401614c33565b600181811c90821680614f9357607f821691505b602082108103611888577f4e487b7100000000000000000000000000000000000000000000000000000000600052602260045260246000fd5b7f4e487b7100000000000000000000000000000000000000000000000000000000600052601160045260246000fd5b60008282101561500d5761500d614fcc565b500390565b6000821982111561502557615025614fcc565b500190565b60006020828403121561503c57600080fd5b815167ffffffffffffffff81111561505357600080fd5b8201601f8101841361506457600080fd5b8051615072614f1982614e64565b81815285602083850101111561508757600080fd5b615098826020830160208601614b91565b95945050505050565b600063ffffffff8083168185168083038211156150c0576150c0614fcc565b01949350505050565b6000817fffffffffffffffffffffffffffffffffffffffffffffffffffffffffffffffff048311821515161561510157615101614fcc565b500290565b7f4e487b7100000000000000000000000000000000000000000000000000000000600052601260045260246000fd5b60008261514457615144615106565b500490565b60006020828403121561515b57600080fd5b5051919050565b60006020828403121561517457600080fd5b8151610eef81614da1565b60008261518e5761518e615106565b500690565b600073ffffffffffffffffffffffffffffffffffffffff80871683528086166020840152508360408301526080606083015261118e6080830184614bbd565b6000602082840312156151e457600080fd5b8151610eef81614b4656fea2646970667358221220f022de2aee36d2011f5682bc1f910ee6beff69f87d95d085aa3ef3327182074b64736f6c634300080d0033",
  "linkReferences": {},
  "deployedLinkReferences": {}
}