{
  "_format": "hh-sol-artifact-1",
  "contractName": "MutexErrorCodes",
  "sourceName": "contracts/libraries/errorCodes/MutexErrorCodes.sol",
  "abi": [
    {
      "inputs": [],
      "name": "MUTEX_LOCKED",
      "outputs": [
        {
          "internalType": "bytes32",
          "name": "",
          "type": "bytes32"
        }
      ],
      "stateMutability": "view",
      "type": "function"
    }
  ],
  "bytecode": "0x60a6610038600b82828239805160001a607314602b57634e487b7160e01b600052600060045260246000fd5b30600052607381538281f3fe730000000000000000000000000000000000000000301460806040526004361060335760003560e01c8063db5f8801146038575b600080fd5b605e7f323330300000000000000000000000000000000000000000000000000000000081565b60405190815260200160405180910390f3fea2646970667358221220d348929893c5b674683b8fa68974349c5764ca0141cffe76133109998035dfa264736f6c634300080d0033",
  "linkReferences": {},
  "deployedLinkReferences": {}
}