{
  "_format": "hh-sol-artifact-1",
  "contractName": "MagicValueErrorCodes",
  "sourceName": "contracts/libraries/errorCodes/MagicValueErrorCodes.sol",
  "abi": [
    {
      "inputs": [],
      "name": "MAGICVALUE_BAD_MAGIC",
      "outputs": [
        {
          "internalType": "bytes32",
          "name": "",
          "type": "bytes32"
        }
      ],
      "stateMutability": "view",
      "type": "function"
    }
  ],
  "bytecode": "0x60a6610038600b82828239805160001a607314602b57634e487b7160e01b600052600060045260246000fd5b30600052607381538281f3fe730000000000000000000000000000000000000000301460806040526004361060335760003560e01c80634e2adbcf146038575b600080fd5b605e7f323230300000000000000000000000000000000000000000000000000000000081565b60405190815260200160405180910390f3fea26469706673582212208b0a6c9dfee264b869690a9480632205e3a7a554af70c28f73d0c70d8153405764736f6c634300080d0033",
  "linkReferences": {},
  "deployedLinkReferences": {}
}