{
  "_format": "hh-sol-artifact-1",
  "contractName": "AdminErrorCodes",
  "sourceName": "contracts/libraries/errorCodes/AdminErrorCodes.sol",
  "abi": [
    {
      "inputs": [],
      "name": "ADMIN_SENDER_MUST_BE_ADMIN",
      "outputs": [
        {
          "internalType": "bytes32",
          "name": "",
          "type": "bytes32"
        }
      ],
      "stateMutability": "view",
      "type": "function"
    }
  ],
  "bytecode": "0x60a6610038600b82828239805160001a607314602b57634e487b7160e01b600052600060045260246000fd5b30600052607381538281f3fe730000000000000000000000000000000000000000301460806040526004361060335760003560e01c80637eb1c915146038575b600080fd5b605e7f313730300000000000000000000000000000000000000000000000000000000081565b60405190815260200160405180910390f3fea264697066735822122037ce885f348f04f1b7cb62327b7e5c3a40c009890291588d59187dcb6bb1d3de64736f6c634300080d0033",
  "linkReferences": {},
  "deployedLinkReferences": {}
}