{
  "_format": "hh-sol-artifact-1",
  "contractName": "RCertParserLibraryErrorCodes",
  "sourceName": "contracts/libraries/errorCodes/RCertParserLibraryErrorCodes.sol",
  "abi": [
    {
      "inputs": [],
      "name": "RCERTPARSERLIB_DATA_OFFSET_OVERFLOW",
      "outputs": [
        {
          "internalType": "bytes32",
          "name": "",
          "type": "bytes32"
        }
      ],
      "stateMutability": "view",
      "type": "function"
    },
    {
      "inputs": [],
      "name": "RCERTPARSERLIB_INSUFFICIENT_BYTES",
      "outputs": [
        {
          "internalType": "bytes32",
          "name": "",
          "type": "bytes32"
        }
      ],
      "stateMutability": "view",
      "type": "function"
    },
    {
      "inputs": [],
      "name": "RCERTPARSERLIB_INSUFFICIENT_BYTES_TO_EXTRACT",
      "outputs": [
        {
          "internalType": "bytes32",
          "name": "",
          "type": "bytes32"
        }
      ],
      "stateMutability": "view",
      "type": "function"
    }
  ],
  "bytecode": "0x61010661003a600b82828239805160001a60731461002d57634e487b7160e01b600052600060045260246000fd5b30600052607381538281f3fe730000000000000000000000000000000000000000301460806040526004361060475760003560e01c80630d0bbca714604c57806332d46c62146084578063401f6b5c1460aa575b600080fd5b60727f313430310000000000000000000000000000000000000000000000000000000081565b60405190815260200160405180910390f35b60727f313430320000000000000000000000000000000000000000000000000000000081565b60727f31343030000000000000000000000000000000000000000000000000000000008156fea26469706673582212205baaac2274260813429441726b3cc2f1c3a7bc1fb2c940fe73d4c951d3473caf64736f6c634300080d0033",
  "linkReferences": {},
  "deployedLinkReferences": {}
}