{
  "_format": "hh-sol-artifact-1",
  "contractName": "Foundation",
  "sourceName": "contracts/Foundation.sol",
  "abi": [
    {
      "inputs": [],
      "stateMutability": "nonpayable",
      "type": "constructor"
    },
    {
      "inputs": [
        {
          "internalType": "address",
          "name": "target_",
          "type": "address"
        },
        {
          "internalType": "bytes",
          "name": "cdata_",
          "type": "bytes"
        }
      ],
      "name": "delegateCallAny",
      "outputs": [],
      "stateMutability": "payable",
      "type": "function"
    },
    {
      "inputs": [
        {
          "internalType": "uint8",
          "name": "magic_",
          "type": "uint8"
        }
      ],
      "name": "depositEth",
      "outputs": [],
      "stateMutability": "payable",
      "type": "function"
    },
    {
      "inputs": [
        {
          "internalType": "uint8",
          "name": "magic_",
          "type": "uint8"
        },
        {
          "internalType": "uint256",
          "name": "amount_",
          "type": "uint256"
        }
      ],
      "name": "depositToken",
      "outputs": [],
      "stateMutability": "nonpayable",
      "type": "function"
    },
    {
      "inputs": [
        {
          "internalType": "bytes32",
          "name": "_salt",
          "type": "bytes32"
        },
        {
          "internalType": "address",
          "name": "_factory",
          "type": "address"
        }
      ],
      "name": "getMetamorphicContractAddress",
      "outputs": [
        {
          "internalType": "address",
          "name": "",
          "type": "address"
        }
      ],
      "stateMutability": "pure",
      "type": "function"
    },
    {
      "inputs": [],
      "name": "initialize",
      "outputs": [],
      "stateMutability": "nonpayable",
      "type": "function"
    }
  ],
  "bytecode": "0x60c060405234801561001057600080fd5b50336080526100bd6520aa37b5b2b760d11b61002b60805190565b6040517fff0000000000000000000000000000000000000000000000000000000000000060208201526001600160601b0319606083901b166021820152603581018390527f1c0bf703a3415cada9785e89e9d70314c3111ae7d8e04f33bb42eb1d264088be6055820181905260009160750160408051601f198184030181529190528051602090910120949350505050565b6001600160a01b031660a05260805160a051610a006100f560003960006104eb0152600081816101f401526103b60152610a006000f3fe60806040526004361061005a5760003560e01c80638191f5e5116100435780638191f5e5146100895780638653a465146100a957806399a89ecc146101b557600080fd5b80634713ee7a1461005f5780638129fc1c14610074575b600080fd5b61007261006d3660046107cc565b6101c8565b005b34801561008057600080fd5b506100726102a0565b34801561009557600080fd5b506100726100a43660046108bd565b610469565b3480156100b557600080fd5b5061018c6100c43660046108e7565b6040517fff0000000000000000000000000000000000000000000000000000000000000060208201527fffffffffffffffffffffffffffffffffffffffff000000000000000000000000606083901b166021820152603581018390527f1c0bf703a3415cada9785e89e9d70314c3111ae7d8e04f33bb42eb1d264088be60558201819052600091607501604080517fffffffffffffffffffffffffffffffffffffffffffffffffffffffffffffffe08184030181529190528051602090910120949350505050565b60405173ffffffffffffffffffffffffffffffffffffffff909116815260200160405180910390f35b6100726101c3366004610913565b610516565b604080517f323030300000000000000000000000000000000000000000000000000000000060208201527f000000000000000000000000000000000000000000000000000000000000000073ffffffffffffffffffffffffffffffffffffffff16331491016040516020818303038152906040529061027d576040517f08c379a00000000000000000000000000000000000000000000000000000000081526004016102749190610935565b60405180910390fd5b508051816020016000808383875af461029a573d6000803e3d6000fd5b50505050565b600054610100900460ff166102bb5760005460ff16156102bf565b303b155b61034b576040517f08c379a000000000000000000000000000000000000000000000000000000000815260206004820152602e60248201527f496e697469616c697a61626c653a20636f6e747261637420697320616c72656160448201527f647920696e697469616c697a65640000000000000000000000000000000000006064820152608401610274565b600054610100900460ff1615801561038a57600080547fffffffffffffffffffffffffffffffffffffffffffffffffffffffffffff0000166101011790555b604080517f323030300000000000000000000000000000000000000000000000000000000060208201527f000000000000000000000000000000000000000000000000000000000000000073ffffffffffffffffffffffffffffffffffffffff163314910160405160208183030381529060405290610436576040517f08c379a00000000000000000000000000000000000000000000000000000000081526004016102749190610935565b50801561046657600080547fffffffffffffffffffffffffffffffffffffffffffffffffffffffffffff00ff1690555b50565b604080517f32323030000000000000000000000000000000000000000000000000000000006020820152839160ff8316602a149101604051602081830303815290604052906104e5576040517f08c379a00000000000000000000000000000000000000000000000000000000081526004016102749190610935565b506105117f00000000000000000000000000000000000000000000000000000000000000003384610592565b505050565b604080517f32323030000000000000000000000000000000000000000000000000000000006020820152829160ff8316602a14910160405160208183030381529060405290610511576040517f08c379a00000000000000000000000000000000000000000000000000000000081526004016102749190610935565b8060000361059f57505050565b73ffffffffffffffffffffffffffffffffffffffff8316610642576040517f08c379a000000000000000000000000000000000000000000000000000000000815260206004820152603f60248201527f4552433230536166655472616e736665723a2043616e6e6f742063616c6c206d60448201527f6574686f6473206f6e20636f6e74726163742061646472657373203078302e006064820152608401610274565b6040517f23b872dd00000000000000000000000000000000000000000000000000000000815273ffffffffffffffffffffffffffffffffffffffff838116600483015230602483015260448201839052600091908516906323b872dd906064016020604051808303816000875af11580156106c1573d6000803e3d6000fd5b505050506040513d601f19601f820116820180604052508101906106e591906109a8565b90508061029a576040517f08c379a000000000000000000000000000000000000000000000000000000000815260206004820152602360248201527f4552433230536166655472616e736665723a205472616e73666572206661696c60448201527f65642e00000000000000000000000000000000000000000000000000000000006064820152608401610274565b803573ffffffffffffffffffffffffffffffffffffffff8116811461079857600080fd5b919050565b7f4e487b7100000000000000000000000000000000000000000000000000000000600052604160045260246000fd5b600080604083850312156107df57600080fd5b6107e883610774565b9150602083013567ffffffffffffffff8082111561080557600080fd5b818501915085601f83011261081957600080fd5b81358181111561082b5761082b61079d565b604051601f82017fffffffffffffffffffffffffffffffffffffffffffffffffffffffffffffffe0908116603f011681019083821181831017156108715761087161079d565b8160405282815288602084870101111561088a57600080fd5b8260208601602083013760006020848301015280955050505050509250929050565b803560ff8116811461079857600080fd5b600080604083850312156108d057600080fd5b6108d9836108ac565b946020939093013593505050565b600080604083850312156108fa57600080fd5b8235915061090a60208401610774565b90509250929050565b60006020828403121561092557600080fd5b61092e826108ac565b9392505050565b600060208083528351808285015260005b8181101561096257858101830151858201604001528201610946565b81811115610974576000604083870101525b50601f017fffffffffffffffffffffffffffffffffffffffffffffffffffffffffffffffe016929092016040019392505050565b6000602082840312156109ba57600080fd5b8151801515811461092e57600080fdfea264697066735822122090ab2c084814b9dca03d9f47bceb4c7c213f6b6bbc055aef68dd39978a2dfab864736f6c634300080d0033",
  "linkReferences": {},
  "deployedLinkReferences": {}
}