{
  "_format": "hh-sol-artifact-1",
  "contractName": "BClaimsParserLibraryErrorCodes",
  "sourceName": "contracts/libraries/errorCodes/BClaimsParserLibraryErrorCodes.sol",
  "abi": [
    {
      "inputs": [],
      "name": "BCLAIMSPARSERLIB_CHAINID_ZERO",
      "outputs": [
        {
          "internalType": "bytes32",
          "name": "",
          "type": "bytes32"
        }
      ],
      "stateMutability": "view",
      "type": "function"
    },
    {
      "inputs": [],
      "name": "BCLAIMSPARSERLIB_DATA_OFFSET_OVERFLOW",
      "outputs": [
        {
          "internalType": "bytes32",
          "name": "",
          "type": "bytes32"
        }
      ],
      "stateMutability": "view",
      "type": "function"
    },
    {
      "inputs": [],
      "name": "BCLAIMSPARSERLIB_HEIGHT_ZERO",
      "outputs": [
        {
          "internalType": "bytes32",
          "name": "",
          "type": "bytes32"
        }
      ],
      "stateMutability": "view",
      "type": "function"
    },
    {
      "inputs": [],
      "name": "BCLAIMSPARSERLIB_NOT_ENOUGH_BYTES",
      "outputs": [
        {
          "internalType": "bytes32",
          "name": "",
          "type": "bytes32"
        }
      ],
      "stateMutability": "view",
      "type": "function"
    },
    {
      "inputs": [],
      "name": "BCLAIMSPARSERLIB_SIZE_THRESHOLD_EXCEEDED",
      "outputs": [
        {
          "internalType": "bytes32",
          "name": "",
          "type": "bytes32"
        }
      ],
      "stateMutability": "view",
      "type": "function"
    }
  ],
  "bytecode": "0x61018161003a600b82828239805160001a60731461002d57634e487b7160e01b600052600060045260246000fd5b30600052607381538281f3fe73000000000000000000000000000000000000000030146080604052600436106100715760003560e01c8063bee291f71161005a578063bee291f7146100d6578063c424db8a146100fd578063cc2603f01461012457600080fd5b806301c792fe14610076578063b0df47f6146100af575b600080fd5b61009d7f313130310000000000000000000000000000000000000000000000000000000081565b60405190815260200160405180910390f35b61009d7f313130300000000000000000000000000000000000000000000000000000000081565b61009d7f313130330000000000000000000000000000000000000000000000000000000081565b61009d7f313130320000000000000000000000000000000000000000000000000000000081565b61009d7f31313034000000000000000000000000000000000000000000000000000000008156fea264697066735822122061d5cc20e31bd92071bc4670a0bd515b9d291b26d130dfb5581ef9f8b4ae707564736f6c634300080d0033",
  "linkReferences": {},
  "deployedLinkReferences": {}
}