{
  "_format": "hh-sol-artifact-1",
  "contractName": "AliceNetFactoryBaseErrorCodes",
  "sourceName": "contracts/libraries/errorCodes/AliceNetFactoryBaseErrorCodes.sol",
  "abi": [
    {
      "inputs": [],
      "name": "ALICENETFACTORYBASE_CODE_SIZE_ZERO",
      "outputs": [
        {
          "internalType": "bytes32",
          "name": "",
          "type": "bytes32"
        }
      ],
      "stateMutability": "view",
      "type": "function"
    },
    {
      "inputs": [],
      "name": "ALICENETFACTORYBASE_UNAUTHORIZED",
      "outputs": [
        {
          "internalType": "bytes32",
          "name": "",
          "type": "bytes32"
        }
      ],
      "stateMutability": "view",
      "type": "function"
    }
  ],
  "bytecode": "0x60d6610039600b82828239805160001a60731461002c57634e487b7160e01b600052600060045260246000fd5b30600052607381538281f3fe7300000000000000000000000000000000000000003014608060405260043610603d5760003560e01c806316ac26c1146042578063bd4c014914607a575b600080fd5b60687f393031000000000000000000000000000000000000000000000000000000000081565b60405190815260200160405180910390f35b60687f39303000000000000000000000000000000000000000000000000000000000008156fea26469706673582212209205dd6577a25ee0516c1289b211af96c7536e307028cc26b119ff1fa37f0f0064736f6c634300080d0033",
  "linkReferences": {},
  "deployedLinkReferences": {}
}