{
  "_format": "hh-sol-artifact-1",
  "contractName": "ATokenMinter",
  "sourceName": "contracts/ATokenMinter.sol",
  "abi": [
    {
      "inputs": [],
      "stateMutability": "nonpayable",
      "type": "constructor"
    },
    {
      "inputs": [
        {
          "internalType": "bytes32",
          "name": "_salt",
          "type": "bytes32"
        },
        {
          "internalType": "address",
          "name": "_factory",
          "type": "address"
        }
      ],
      "name": "getMetamorphicContractAddress",
      "outputs": [
        {
          "internalType": "address",
          "name": "",
          "type": "address"
        }
      ],
      "stateMutability": "pure",
      "type": "function"
    },
    {
      "inputs": [
        {
          "internalType": "address",
          "name": "to",
          "type": "address"
        },
        {
          "internalType": "uint256",
          "name": "amount",
          "type": "uint256"
        }
      ],
      "name": "mint",
      "outputs": [],
      "stateMutability": "nonpayable",
      "type": "function"
    }
  ],
  "bytecode": "0x60c060405234801561001057600080fd5b50336080526100bd6520aa37b5b2b760d11b61002b60805190565b6040517fff0000000000000000000000000000000000000000000000000000000000000060208201526001600160601b0319606083901b166021820152603581018390527f1c0bf703a3415cada9785e89e9d70314c3111ae7d8e04f33bb42eb1d264088be6055820181905260009160750160408051601f198184030181529190528051602090910120949350505050565b6001600160a01b031660a05260805160a0516103dc6100ee60003960006102070152600061017b01526103dc6000f3fe608060405234801561001057600080fd5b50600436106100365760003560e01c806340c10f191461003b5780638653a46514610050575b600080fd5b61004e6100493660046102dd565b61014f565b005b61012661005e366004610307565b6040517fff0000000000000000000000000000000000000000000000000000000000000060208201527fffffffffffffffffffffffffffffffffffffffff000000000000000000000000606083901b166021820152603581018390527f1c0bf703a3415cada9785e89e9d70314c3111ae7d8e04f33bb42eb1d264088be60558201819052600091607501604080517fffffffffffffffffffffffffffffffffffffffffffffffffffffffffffffffe08184030181529190528051602090910120949350505050565b60405173ffffffffffffffffffffffffffffffffffffffff909116815260200160405180910390f35b604080517f323030300000000000000000000000000000000000000000000000000000000060208201527f000000000000000000000000000000000000000000000000000000000000000073ffffffffffffffffffffffffffffffffffffffff163314910160405160208183030381529060405290610204576040517f08c379a00000000000000000000000000000000000000000000000000000000081526004016101fb9190610333565b60405180910390fd5b507f00000000000000000000000000000000000000000000000000000000000000006040517f99f9889800000000000000000000000000000000000000000000000000000000815273ffffffffffffffffffffffffffffffffffffffff84811660048301526024820184905291909116906399f9889890604401600060405180830381600087803b15801561029857600080fd5b505af11580156102ac573d6000803e3d6000fd5b505050505050565b803573ffffffffffffffffffffffffffffffffffffffff811681146102d857600080fd5b919050565b600080604083850312156102f057600080fd5b6102f9836102b4565b946020939093013593505050565b6000806040838503121561031a57600080fd5b8235915061032a602084016102b4565b90509250929050565b600060208083528351808285015260005b8181101561036057858101830151858201604001528201610344565b81811115610372576000604083870101525b50601f017fffffffffffffffffffffffffffffffffffffffffffffffffffffffffffffffe01692909201604001939250505056fea2646970667358221220a6b571ed65131d23257c589f33645326cd697569c17e10d609522dbc0c7d1bc264736f6c634300080d0033",
  "linkReferences": {},
  "deployedLinkReferences": {}
}