{
  "_format": "hh-sol-artifact-1",
  "contractName": "ETHDKGAccusations",
  "sourceName": "contracts/libraries/ethdkg/ETHDKGAccusations.sol",
  "abi": [
    {
      "inputs": [],
      "stateMutability": "nonpayable",
      "type": "constructor"
    },
    {
      "anonymous": false,
      "inputs": [
        {
          "indexed": false,
          "internalType": "address",
          "name": "account",
          "type": "address"
        },
        {
          "indexed": false,
          "internalType": "uint256",
          "name": "index",
          "type": "uint256"
        },
        {
          "indexed": false,
          "internalType": "uint256",
          "name": "nonce",
          "type": "uint256"
        },
        {
          "indexed": false,
          "internalType": "uint256[2]",
          "name": "publicKey",
          "type": "uint256[2]"
        }
      ],
      "name": "AddressRegistered",
      "type": "event"
    },
    {
      "anonymous": false,
      "inputs": [
        {
          "indexed": false,
          "internalType": "uint256",
          "name": "blockNumber",
          "type": "uint256"
        }
      ],
      "name": "GPKJSubmissionComplete",
      "type": "event"
    },
    {
      "anonymous": false,
      "inputs": [
        {
          "indexed": false,
          "internalType": "uint256",
          "name": "blockNumber",
          "type": "uint256"
        }
      ],
      "name": "KeyShareSubmissionComplete",
      "type": "event"
    },
    {
      "anonymous": false,
      "inputs": [
        {
          "indexed": false,
          "internalType": "address",
          "name": "account",
          "type": "address"
        },
        {
          "indexed": false,
          "internalType": "uint256",
          "name": "index",
          "type": "uint256"
        },
        {
          "indexed": false,
          "internalType": "uint256",
          "name": "nonce",
          "type": "uint256"
        },
        {
          "indexed": false,
          "internalType": "uint256[2]",
          "name": "keyShareG1",
          "type": "uint256[2]"
        },
        {
          "indexed": false,
          "internalType": "uint256[2]",
          "name": "keyShareG1CorrectnessProof",
          "type": "uint256[2]"
        },
        {
          "indexed": false,
          "internalType": "uint256[4]",
          "name": "keyShareG2",
          "type": "uint256[4]"
        }
      ],
      "name": "KeyShareSubmitted",
      "type": "event"
    },
    {
      "anonymous": false,
      "inputs": [
        {
          "indexed": false,
          "internalType": "uint256",
          "name": "blockNumber",
          "type": "uint256"
        },
        {
          "indexed": false,
          "internalType": "uint256",
          "name": "nonce",
          "type": "uint256"
        },
        {
          "indexed": false,
          "internalType": "uint256[4]",
          "name": "mpk",
          "type": "uint256[4]"
        }
      ],
      "name": "MPKSet",
      "type": "event"
    },
    {
      "anonymous": false,
      "inputs": [
        {
          "indexed": false,
          "internalType": "uint256",
          "name": "blockNumber",
          "type": "uint256"
        }
      ],
      "name": "RegistrationComplete",
      "type": "event"
    },
    {
      "anonymous": false,
      "inputs": [
        {
          "indexed": false,
          "internalType": "uint256",
          "name": "startBlock",
          "type": "uint256"
        },
        {
          "indexed": false,
          "internalType": "uint256",
          "name": "numberValidators",
          "type": "uint256"
        },
        {
          "indexed": false,
          "internalType": "uint256",
          "name": "nonce",
          "type": "uint256"
        },
        {
          "indexed": false,
          "internalType": "uint256",
          "name": "phaseLength",
          "type": "uint256"
        },
        {
          "indexed": false,
          "internalType": "uint256",
          "name": "confirmationLength",
          "type": "uint256"
        }
      ],
      "name": "RegistrationOpened",
      "type": "event"
    },
    {
      "anonymous": false,
      "inputs": [
        {
          "indexed": false,
          "internalType": "uint256",
          "name": "blockNumber",
          "type": "uint256"
        }
      ],
      "name": "ShareDistributionComplete",
      "type": "event"
    },
    {
      "anonymous": false,
      "inputs": [
        {
          "indexed": false,
          "internalType": "address",
          "name": "account",
          "type": "address"
        },
        {
          "indexed": false,
          "internalType": "uint256",
          "name": "index",
          "type": "uint256"
        },
        {
          "indexed": false,
          "internalType": "uint256",
          "name": "nonce",
          "type": "uint256"
        },
        {
          "indexed": false,
          "internalType": "uint256[]",
          "name": "encryptedShares",
          "type": "uint256[]"
        },
        {
          "indexed": false,
          "internalType": "uint256[2][]",
          "name": "commitments",
          "type": "uint256[2][]"
        }
      ],
      "name": "SharesDistributed",
      "type": "event"
    },
    {
      "anonymous": false,
      "inputs": [
        {
          "indexed": false,
          "internalType": "address",
          "name": "account",
          "type": "address"
        },
        {
          "indexed": false,
          "internalType": "uint256",
          "name": "index",
          "type": "uint256"
        },
        {
          "indexed": false,
          "internalType": "uint256",
          "name": "nonce",
          "type": "uint256"
        },
        {
          "indexed": false,
          "internalType": "uint256",
          "name": "epoch",
          "type": "uint256"
        },
        {
          "indexed": false,
          "internalType": "uint256",
          "name": "share0",
          "type": "uint256"
        },
        {
          "indexed": false,
          "internalType": "uint256",
          "name": "share1",
          "type": "uint256"
        },
        {
          "indexed": false,
          "internalType": "uint256",
          "name": "share2",
          "type": "uint256"
        },
        {
          "indexed": false,
          "internalType": "uint256",
          "name": "share3",
          "type": "uint256"
        }
      ],
      "name": "ValidatorMemberAdded",
      "type": "event"
    },
    {
      "anonymous": false,
      "inputs": [
        {
          "indexed": false,
          "internalType": "uint256",
          "name": "validatorCount",
          "type": "uint256"
        },
        {
          "indexed": false,
          "internalType": "uint256",
          "name": "nonce",
          "type": "uint256"
        },
        {
          "indexed": false,
          "internalType": "uint256",
          "name": "epoch",
          "type": "uint256"
        },
        {
          "indexed": false,
          "internalType": "uint256",
          "name": "ethHeight",
          "type": "uint256"
        },
        {
          "indexed": false,
          "internalType": "uint256",
          "name": "aliceNetHeight",
          "type": "uint256"
        },
        {
          "indexed": false,
          "internalType": "uint256",
          "name": "groupKey0",
          "type": "uint256"
        },
        {
          "indexed": false,
          "internalType": "uint256",
          "name": "groupKey1",
          "type": "uint256"
        },
        {
          "indexed": false,
          "internalType": "uint256",
          "name": "groupKey2",
          "type": "uint256"
        },
        {
          "indexed": false,
          "internalType": "uint256",
          "name": "groupKey3",
          "type": "uint256"
        }
      ],
      "name": "ValidatorSetCompleted",
      "type": "event"
    },
    {
      "inputs": [
        {
          "internalType": "address[]",
          "name": "dishonestAddresses",
          "type": "address[]"
        }
      ],
      "name": "accuseParticipantDidNotDistributeShares",
      "outputs": [],
      "stateMutability": "nonpayable",
      "type": "function"
    },
    {
      "inputs": [
        {
          "internalType": "address[]",
          "name": "dishonestAddresses",
          "type": "address[]"
        }
      ],
      "name": "accuseParticipantDidNotSubmitGPKJ",
      "outputs": [],
      "stateMutability": "nonpayable",
      "type": "function"
    },
    {
      "inputs": [
        {
          "internalType": "address[]",
          "name": "dishonestAddresses",
          "type": "address[]"
        }
      ],
      "name": "accuseParticipantDidNotSubmitKeyShares",
      "outputs": [],
      "stateMutability": "nonpayable",
      "type": "function"
    },
    {
      "inputs": [
        {
          "internalType": "address",
          "name": "dishonestAddress",
          "type": "address"
        },
        {
          "internalType": "uint256[]",
          "name": "encryptedShares",
          "type": "uint256[]"
        },
        {
          "internalType": "uint256[2][]",
          "name": "commitments",
          "type": "uint256[2][]"
        },
        {
          "internalType": "uint256[2]",
          "name": "sharedKey",
          "type": "uint256[2]"
        },
        {
          "internalType": "uint256[2]",
          "name": "sharedKeyCorrectnessProof",
          "type": "uint256[2]"
        }
      ],
      "name": "accuseParticipantDistributedBadShares",
      "outputs": [],
      "stateMutability": "nonpayable",
      "type": "function"
    },
    {
      "inputs": [
        {
          "internalType": "address[]",
          "name": "dishonestAddresses",
          "type": "address[]"
        }
      ],
      "name": "accuseParticipantNotRegistered",
      "outputs": [],
      "stateMutability": "nonpayable",
      "type": "function"
    },
    {
      "inputs": [
        {
          "internalType": "address[]",
          "name": "validators",
          "type": "address[]"
        },
        {
          "internalType": "bytes32[]",
          "name": "encryptedSharesHash",
          "type": "bytes32[]"
        },
        {
          "internalType": "uint256[2][][]",
          "name": "commitments",
          "type": "uint256[2][][]"
        },
        {
          "internalType": "address",
          "name": "dishonestAddress",
          "type": "address"
        }
      ],
      "name": "accuseParticipantSubmittedBadGPKJ",
      "outputs": [],
      "stateMutability": "nonpayable",
      "type": "function"
    },
    {
      "inputs": [
        {
          "internalType": "bytes32",
          "name": "_salt",
          "type": "bytes32"
        },
        {
          "internalType": "address",
          "name": "_factory",
          "type": "address"
        }
      ],
      "name": "getMetamorphicContractAddress",
      "outputs": [
        {
          "internalType": "address",
          "name": "",
          "type": "address"
        }
      ],
      "stateMutability": "pure",
      "type": "function"
    }
  ],
  "bytecode": "0x60e06040523480156200001157600080fd5b5033608052620000c368536e617073686f747360b81b6200003160805190565b6040517fff0000000000000000000000000000000000000000000000000000000000000060208201526001600160601b0319606083901b166021820152603581018390527f1c0bf703a3415cada9785e89e9d70314c3111ae7d8e04f33bb42eb1d264088be6055820181905260009160750160408051601f198184030181529190528051602090910120949350505050565b6001600160a01b031660a052620000ee6c15985b1a59185d1bdc941bdbdb609a1b6200003160805190565b6001600160a01b031660c05260805160a05160c051614e1f620001866000396000818161037d015281816107c401528181610a9201528181610efd015281816112020152818161175a01528181612358015281816124070152818161269901528181612b4101528181612e4601528181613909015281816139b801528181613c360152613f9101526000505060005050614e1f6000f3fe608060405234801561001057600080fd5b506004361061007d5760003560e01c80638653a4651161005b5780638653a465146100bd578063dae681bc146101bc578063edbe7bf7146101cf578063f72c45b6146101e257600080fd5b8063043a6f12146100825780637df24ee91461009757806380001264146100aa575b600080fd5b610095610090366004614672565b6101f5565b005b6100956100a5366004614672565b610913565b6100956100b8366004614803565b610ffa565b6101936100cb3660046148f0565b6040517fff0000000000000000000000000000000000000000000000000000000000000060208201527fffffffffffffffffffffffffffffffffffffffff000000000000000000000000606083901b166021820152603581018390527f1c0bf703a3415cada9785e89e9d70314c3111ae7d8e04f33bb42eb1d264088be60558201819052600091607501604080517fffffffffffffffffffffffffffffffffffffffffffffffffffffffffffffffe08184030181529190528051602090910120949350505050565b60405173ffffffffffffffffffffffffffffffffffffffff909116815260200160405180910390f35b6100956101ca366004614672565b61251a565b6100956101dd36600461491c565b612c3e565b6100956101f0366004614672565b613ab8565b60036000547201000000000000000000000000000000000000900460ff16600781111561022457610224614a0b565b1480156102eb575060005461027290790100000000000000000000000000000000000000000000000000810461ffff16906a0100000000000000000000900467ffffffffffffffff16614a69565b67ffffffffffffffff1643101580156102eb57506000546102b590790100000000000000000000000000000000000000000000000000900461ffff166002614a95565b6000546102de9161ffff16906a0100000000000000000000900467ffffffffffffffff16614a69565b67ffffffffffffffff1643105b604080517f31313600000000000000000000000000000000000000000000000000000000006020820152016040516020818303038152906040529061034c5760405162461bcd60e51b81526004016103439190614abf565b60405180910390fd5b506000805477010000000000000000000000000000000000000000000000900461ffff16905b82518110156108c1577f000000000000000000000000000000000000000000000000000000000000000073ffffffffffffffffffffffffffffffffffffffff1663facd743b8483815181106103c9576103c9614b32565b60200260200101516040518263ffffffff1660e01b8152600401610409919073ffffffffffffffffffffffffffffffffffffffff91909116815260200190565b602060405180830381865afa158015610426573d6000803e3d6000fd5b505050506040513d601f19601f8201168201806040525081019061044a9190614b61565b604080517f3130340000000000000000000000000000000000000000000000000000000000602082015201604051602081830303815290604052906104a25760405162461bcd60e51b81526004016103439190614abf565b506000600a60008584815181106104bb576104bb614b32565b60209081029190910181015173ffffffffffffffffffffffffffffffffffffffff1682528101919091526040908101600020815161014081019092528161010081018260028282826020028201915b81548152602001906001019080831161050a575050509183525050600282015467ffffffffffffffff8082166020840152680100000000000000008204166040830152606090910190700100000000000000000000000000000000900460ff16600781111561057b5761057b614a0b565b600781111561058c5761058c614a0b565b8152600382015460208201526040805180820182529101906004830160028282826020028201915b8154815260200190600101908083116105b4575050509183525050604080518082019182905260209092019190600684019060029082845b8154815260200190600101908083116105ec57505050918352505060408051608081019182905260209092019190600884019060049082845b815481526020019060010190808311610625575050505050815250509050600060029054906101000a900467ffffffffffffffff1667ffffffffffffffff16816020015167ffffffffffffffff16147f31303700000000000000000000000000000000000000000000000000000000006040516020016106a791815260200190565b604051602081830303815290604052906106d45760405162461bcd60e51b81526004016103439190614abf565b506003816060015160078111156106ed576106ed614a0b565b14157f313137000000000000000000000000000000000000000000000000000000000060405160200161072291815260200190565b6040516020818303038152906040529061074f5760405162461bcd60e51b81526004016103439190614abf565b5060c081015151158015610769575060c081015160200151155b604080517f3131370000000000000000000000000000000000000000000000000000000000602082015201604051602081830303815290604052906107c15760405162461bcd60e51b81526004016103439190614abf565b507f000000000000000000000000000000000000000000000000000000000000000073ffffffffffffffffffffffffffffffffffffffff166364c0461c85848151811061081057610810614b32565b60209081029190910101516040517fffffffff0000000000000000000000000000000000000000000000000000000060e084901b16815273ffffffffffffffffffffffffffffffffffffffff9091166004820152336024820152604401600060405180830381600087803b15801561088757600080fd5b505af115801561089b573d6000803e3d6000fd5b5050505082806108aa90614b8a565b9350505080806108b990614bab565b915050610372565b506000805461ffff90921677010000000000000000000000000000000000000000000000027fffffffffffffff0000ffffffffffffffffffffffffffffffffffffffffffffff90921691909117905550565b60056000547201000000000000000000000000000000000000900460ff16600781111561094257610942614a0b565b148015610a09575060005461099090790100000000000000000000000000000000000000000000000000810461ffff16906a0100000000000000000000900467ffffffffffffffff16614a69565b67ffffffffffffffff164310158015610a0957506000546109d390790100000000000000000000000000000000000000000000000000900461ffff166002614a95565b6000546109fc9161ffff16906a0100000000000000000000900467ffffffffffffffff16614a69565b67ffffffffffffffff1643105b604080517f313138000000000000000000000000000000000000000000000000000000000060208201520160405160208183030381529060405290610a615760405162461bcd60e51b81526004016103439190614abf565b506000805477010000000000000000000000000000000000000000000000900461ffff16905b82518110156108c1577f000000000000000000000000000000000000000000000000000000000000000073ffffffffffffffffffffffffffffffffffffffff1663facd743b848381518110610ade57610ade614b32565b60200260200101516040518263ffffffff1660e01b8152600401610b1e919073ffffffffffffffffffffffffffffffffffffffff91909116815260200190565b602060405180830381865afa158015610b3b573d6000803e3d6000fd5b505050506040513d601f19601f82011682018060405250810190610b5f9190614b61565b604080517f313034000000000000000000000000000000000000000000000000000000000060208201520160405160208183030381529060405290610bb75760405162461bcd60e51b81526004016103439190614abf565b506000600a6000858481518110610bd057610bd0614b32565b60209081029190910181015173ffffffffffffffffffffffffffffffffffffffff1682528101919091526040908101600020815161014081019092528161010081018260028282826020028201915b815481526020019060010190808311610c1f575050509183525050600282015467ffffffffffffffff8082166020840152680100000000000000008204166040830152606090910190700100000000000000000000000000000000900460ff166007811115610c9057610c90614a0b565b6007811115610ca157610ca1614a0b565b8152600382015460208201526040805180820182529101906004830160028282826020028201915b815481526020019060010190808311610cc9575050509183525050604080518082019182905260209092019190600684019060029082845b815481526020019060010190808311610d0157505050918352505060408051608081019182905260209092019190600884019060049082845b815481526020019060010190808311610d3a575050505050815250509050600060029054906101000a900467ffffffffffffffff1667ffffffffffffffff16816020015167ffffffffffffffff16147f3130370000000000000000000000000000000000000000000000000000000000604051602001610dbc91815260200190565b60405160208183030381529060405290610de95760405162461bcd60e51b81526004016103439190614abf565b50600581606001516007811115610e0257610e02614a0b565b14157f3132300000000000000000000000000000000000000000000000000000000000604051602001610e3791815260200190565b60405160208183030381529060405290610e645760405162461bcd60e51b81526004016103439190614abf565b5060e081015151158015610e7e575060e081015160200151155b8015610e90575060e081015160400151155b8015610ea2575060e081015160600151155b604080517f313231000000000000000000000000000000000000000000000000000000000060208201520160405160208183030381529060405290610efa5760405162461bcd60e51b81526004016103439190614abf565b507f000000000000000000000000000000000000000000000000000000000000000073ffffffffffffffffffffffffffffffffffffffff166364c0461c858481518110610f4957610f49614b32565b60209081029190910101516040517fffffffff0000000000000000000000000000000000000000000000000000000060e084901b16815273ffffffffffffffffffffffffffffffffffffffff9091166004820152336024820152604401600060405180830381600087803b158015610fc057600080fd5b505af1158015610fd4573d6000803e3d6000fd5b505050508280610fe390614b8a565b935050508080610ff290614bab565b915050610a87565b60066000547201000000000000000000000000000000000000900460ff16600781111561102957611029614a0b565b14801561105057506000546a0100000000000000000000900467ffffffffffffffff164310155b80156110aa575060005461109d90790100000000000000000000000000000000000000000000000000810461ffff16906a0100000000000000000000900467ffffffffffffffff16614a69565b67ffffffffffffffff1643105b806111a7575060056000547201000000000000000000000000000000000000900460ff1660078111156110df576110df614a0b565b14801561113b575060005461112d90790100000000000000000000000000000000000000000000000000810461ffff16906a0100000000000000000000900467ffffffffffffffff16614a69565b67ffffffffffffffff164310155b80156111a7575060005461117190790100000000000000000000000000000000000000000000000000900461ffff166002614a95565b60005461119a9161ffff16906a0100000000000000000000900467ffffffffffffffff16614a69565b67ffffffffffffffff1643105b604080517f3131380000000000000000000000000000000000000000000000000000000000602082015201604051602081830303815290604052906111ff5760405162461bcd60e51b81526004016103439190614abf565b507f00000000000000000000000000000000000000000000000000000000000000006040517ffacd743b00000000000000000000000000000000000000000000000000000000815273ffffffffffffffffffffffffffffffffffffffff8381166004830152919091169063facd743b90602401602060405180830381865afa15801561128f573d6000803e3d6000fd5b505050506040513d601f19601f820116820180604052508101906112b39190614b61565b604080517f31303400000000000000000000000000000000000000000000000000000000006020820152016040516020818303038152906040529061130b5760405162461bcd60e51b81526004016103439190614abf565b5073ffffffffffffffffffffffffffffffffffffffff81166000908152600a6020526040808220815161014081019092528161010081018260028282826020028201915b81548152602001906001019080831161134f575050509183525050600282015467ffffffffffffffff8082166020840152680100000000000000008204166040830152606090910190700100000000000000000000000000000000900460ff1660078111156113c0576113c0614a0b565b60078111156113d1576113d1614a0b565b8152600382015460208201526040805180820182529101906004830160028282826020028201915b8154815260200190600101908083116113f9575050509183525050604080518082019182905260209092019190600684019060029082845b81548152602001906001019080831161143157505050918352505060408051608081019182905260209092019190600884019060049082845b81548152602001906001019080831161146a57505050919092525050336000908152600a60205260408082208151610140810192839052949550919392508290610100820190839060029082845b8154815260200190600101908083116114b8575050509183525050600282015467ffffffffffffffff8082166020840152680100000000000000008204166040830152606090910190700100000000000000000000000000000000900460ff16600781111561152957611529614a0b565b600781111561153a5761153a614a0b565b8152600382015460208201526040805180820182529101906004830160028282826020028201915b815481526020019060010190808311611562575050509183525050604080518082019182905260209092019190600684019060029082845b81548152602001906001019080831161159a57505050918352505060408051608081019182905260209092019190600884019060049082845b8154815260200190600101908083116115d3575050505050815250509050600060029054906101000a900467ffffffffffffffff1667ffffffffffffffff16826020015167ffffffffffffffff16148015611643575060058260600151600781111561164157611641614a0b565b145b604080517f31323200000000000000000000000000000000000000000000000000000000006020820152016040516020818303038152906040529061169b5760405162461bcd60e51b81526004016103439190614abf565b50600054602082015167ffffffffffffffff90811662010000909204161480156116da57506005816060015160078111156116d8576116d8614a0b565b145b604080517f3132330000000000000000000000000000000000000000000000000000000000602082015201604051602081830303815290604052906117325760405162461bcd60e51b81526004016103439190614abf565b506000805477010000000000000000000000000000000000000000000000900461ffff1690817f000000000000000000000000000000000000000000000000000000000000000073ffffffffffffffffffffffffffffffffffffffff1663274982406040518163ffffffff1660e01b8152600401602060405180830381865afa1580156117c3573d6000803e3d6000fd5b505050506040513d601f19601f820116820180604052508101906117e79190614be3565b6117f19190614bfc565b905060006117fe8261408e565b90508189511480156118105750818851145b801561181c5750818751145b604080517f3132340000000000000000000000000000000000000000000000000000000000602082015201604051602081830303815290604052906118745760405162461bcd60e51b81526004016103439190614abf565b506000805462010000900467ffffffffffffffff16815b84811015611c6f5761189e846001614bfc565b8a82815181106118b0576118b0614b32565b602002602001015151147f31323500000000000000000000000000000000000000000000000000000000006040516020016118ed91815260200190565b6040516020818303038152906040529061191a5760405162461bcd60e51b81526004016103439190614abf565b5060008a828151811061192f5761192f614b32565b60200260200101516040516020016119479190614c3d565b6040516020818303038152906040528051906020012090506000600a60008f858151811061197757611977614b32565b60209081029190910181015173ffffffffffffffffffffffffffffffffffffffff1682528101919091526040908101600020815161014081019092528161010081018260028282826020028201915b8154815260200190600101908083116119c6575050509183525050600282015467ffffffffffffffff8082166020840152680100000000000000008204166040830152606090910190700100000000000000000000000000000000900460ff166007811115611a3757611a37614a0b565b6007811115611a4857611a48614a0b565b8152600382015460208201526040805180820182529101906004830160028282826020028201915b815481526020019060010190808311611a70575050509183525050604080518082019182905260209092019190600684019060029082845b815481526020019060010190808311611aa857505050918352505060408051608081019182905260209092019190600884019060049082845b815481526020019060010190808311611ae157505050505081525050905083816020015167ffffffffffffffff16148015611b2d575060ff8016816040015167ffffffffffffffff1611155b8015611b445750604081015185901c600190811614155b604080517f313236000000000000000000000000000000000000000000000000000000000060208201520160405160208183030381529060405290611b9c5760405162461bcd60e51b81526004016103439190614abf565b508c8381518110611baf57611baf614b32565b602002602001015182604051602001611bd2929190918252602082015260400190565b604051602081830303815290604052805190602001208160800151147f3132370000000000000000000000000000000000000000000000000000000000604051602001611c2191815260200190565b60405160208183030381529060405290611c4e5760405162461bcd60e51b81526004016103439190614abf565b50604001516001901b93909317925080611c6781614bab565b91505061188b565b5050506000611c7c6144f9565b611c846144f9565b60008a600081518110611c9957611c99614b32565b6020026020010151600081518110611cb357611cb3614b32565b60200260200101519250600190505b85811015611dc857611db4604051806080016040528085600060028110611ceb57611ceb614b32565b6020020151815260200185600160028110611d0857611d08614b32565b602002015181526020018d8481518110611d2457611d24614b32565b6020026020010151600081518110611d3e57611d3e614b32565b6020026020010151600060028110611d5857611d58614b32565b602002015181526020018d8481518110611d7457611d74614b32565b6020026020010151600081518110611d8e57611d8e614b32565b6020026020010151600160028110611da857611da8614b32565b602002015190526140e1565b925080611dc081614bab565b915050611cc2565b8a600081518110611ddb57611ddb614b32565b6020026020010151600181518110611df557611df5614b32565b60200260200101519150886040015167ffffffffffffffff169350600190505b85811015611ef557611ee1604051806080016040528084600060028110611e3e57611e3e614b32565b6020020151815260200184600160028110611e5b57611e5b614b32565b602002015181526020018d8481518110611e7757611e77614b32565b6020026020010151600181518110611e9157611e91614b32565b6020026020010151600060028110611eab57611eab614b32565b602002015181526020018d8481518110611ec757611ec7614b32565b6020026020010151600181518110611d8e57611d8e614b32565b915080611eed81614bab565b915050611e15565b611f46604051806060016040528084600060028110611f1657611f16614b32565b6020020151815260200184600160028110611f3357611f33614b32565b6020020151815260200186815250614178565b9150611fc0604051806080016040528085600060028110611f6957611f69614b32565b6020020151815260200185600160028110611f8657611f86614b32565b6020020151815260200184600060028110611fa357611fa3614b32565b6020020151815260200184600160028110611da857611da8614b32565b925060025b858111612205578b600081518110611fdf57611fdf614b32565b60200260200101518181518110611ff857611ff8614b32565b602002602001015192507f30644e72e131a029b85045b68181585d2833e84879b9709143e1f593f00000018061203057612030614c7d565b8a6040015167ffffffffffffffff1686099450600191505b868210156121265761211260405180608001604052808560006002811061207157612071614b32565b602002015181526020018560016002811061208e5761208e614b32565b602002015181526020018e85815181106120aa576120aa614b32565b602002602001015184815181106120c3576120c3614b32565b60200260200101516000600281106120dd576120dd614b32565b602002015181526020018e85815181106120f9576120f9614b32565b60200260200101518481518110611d8e57611d8e614b32565b92508161211e81614bab565b925050612048565b61217760405180606001604052808560006002811061214757612147614b32565b602002015181526020018560016002811061216457612164614b32565b6020020151815260200187815250614178565b92506121f160405180608001604052808660006002811061219a5761219a614b32565b60200201518152602001866001600281106121b7576121b7614b32565b60200201518152602001856000600281106121d4576121d4614b32565b6020020151815260200185600160028110611da857611da8614b32565b9350806121fd81614bab565b915050611fc5565b5060e08901516040805161018081019091528451815260009061234f9060208101876001602002015181526020017f198e9393920d483a7260bfb731fb5d25f1aa493335a9e71297e485b7aef312c281526020017f1800deef121f1e76426a00665e5c4479674322d4f75edadd46debd5cd992f6ed81526020017f275dc4a288d1afb3cbb1ac09187524c7db36395df7be3b99e673b13a075a65ec81526020017f1d9befcd05a5323e6da4d435f3b617cdb3af83285c2df711ef39c01571827f9d81526020016001815260200160028152602001846000600481106122ec576122ec614b32565b602002015181526020018460016004811061230957612309614b32565b602002015181526020018460026004811061232657612326614b32565b602002015181526020018460036004811061234357612343614b32565b60200201519052614226565b905080612405577f00000000000000000000000000000000000000000000000000000000000000006040517f048d56c700000000000000000000000000000000000000000000000000000000815273ffffffffffffffffffffffffffffffffffffffff8e81166004830152336024830152919091169063048d56c790604401600060405180830381600087803b1580156123e857600080fd5b505af11580156123fc573d6000803e3d6000fd5b505050506124b0565b7f00000000000000000000000000000000000000000000000000000000000000006040517f048d56c700000000000000000000000000000000000000000000000000000000815233600482015273ffffffffffffffffffffffffffffffffffffffff8e81166024830152919091169063048d56c790604401600060405180830381600087803b15801561249757600080fd5b505af11580156124ab573d6000803e3d6000fd5b505050505b886124ba81614b8a565b6000805461ffff90921677010000000000000000000000000000000000000000000000027fffffffffffffff0000ffffffffffffffffffffffffffffffffffffffffffffff90921691909117905550505050505050505050505050505050565b60016000547201000000000000000000000000000000000000900460ff16600781111561254957612549614a0b565b148015612610575060005461259790790100000000000000000000000000000000000000000000000000810461ffff16906a0100000000000000000000900467ffffffffffffffff16614a69565b67ffffffffffffffff16431015801561261057506000546125da90790100000000000000000000000000000000000000000000000000900461ffff166002614a95565b6000546126039161ffff16906a0100000000000000000000900467ffffffffffffffff16614a69565b67ffffffffffffffff1643105b604080517f3130360000000000000000000000000000000000000000000000000000000000602082015201604051602081830303815290604052906126685760405162461bcd60e51b81526004016103439190614abf565b506000805477010000000000000000000000000000000000000000000000900461ffff16905b82518110156108c1577f000000000000000000000000000000000000000000000000000000000000000073ffffffffffffffffffffffffffffffffffffffff1663facd743b8483815181106126e5576126e5614b32565b60200260200101516040518263ffffffff1660e01b8152600401612725919073ffffffffffffffffffffffffffffffffffffffff91909116815260200190565b602060405180830381865afa158015612742573d6000803e3d6000fd5b505050506040513d601f19601f820116820180604052508101906127669190614b61565b604080517f3130340000000000000000000000000000000000000000000000000000000000602082015201604051602081830303815290604052906127be5760405162461bcd60e51b81526004016103439190614abf565b506000600a60008584815181106127d7576127d7614b32565b60209081029190910181015173ffffffffffffffffffffffffffffffffffffffff1682528101919091526040908101600020815161014081019092528161010081018260028282826020028201915b815481526020019060010190808311612826575050509183525050600282015467ffffffffffffffff8082166020840152680100000000000000008204166040830152606090910190700100000000000000000000000000000000900460ff16600781111561289757612897614a0b565b60078111156128a8576128a8614a0b565b8152600382015460208201526040805180820182529101906004830160028282826020028201915b8154815260200190600101908083116128d0575050509183525050604080518082019182905260209092019190600684019060029082845b81548152602001906001019080831161290857505050918352505060408051608081019182905260209092019190600884019060049082845b815481526020019060010190808311612941575050505050815250509050600060029054906101000a900467ffffffffffffffff1667ffffffffffffffff16816020015167ffffffffffffffff16147f31303700000000000000000000000000000000000000000000000000000000006040516020016129c391815260200190565b604051602081830303815290604052906129f05760405162461bcd60e51b81526004016103439190614abf565b50600181606001516007811115612a0957612a09614a0b565b14157f3130380000000000000000000000000000000000000000000000000000000000604051602001612a3e91815260200190565b60405160208183030381529060405290612a6b5760405162461bcd60e51b81526004016103439190614abf565b506080810151604080517f313038000000000000000000000000000000000000000000000000000000000060208201529115910160405160208183030381529060405290612acc5760405162461bcd60e51b81526004016103439190614abf565b5060a081015151158015612ae6575060a081015160200151155b604080517f313039000000000000000000000000000000000000000000000000000000000060208201520160405160208183030381529060405290612b3e5760405162461bcd60e51b81526004016103439190614abf565b507f000000000000000000000000000000000000000000000000000000000000000073ffffffffffffffffffffffffffffffffffffffff166364c0461c858481518110612b8d57612b8d614b32565b60209081029190910101516040517fffffffff0000000000000000000000000000000000000000000000000000000060e084901b16815273ffffffffffffffffffffffffffffffffffffffff9091166004820152336024820152604401600060405180830381600087803b158015612c0457600080fd5b505af1158015612c18573d6000803e3d6000fd5b505050508280612c2790614b8a565b935050508080612c3690614bab565b91505061268e565b60026000547201000000000000000000000000000000000000900460ff166007811115612c6d57612c6d614a0b565b148015612c9457506000546a0100000000000000000000900467ffffffffffffffff164310155b8015612cee5750600054612ce190790100000000000000000000000000000000000000000000000000810461ffff16906a0100000000000000000000900467ffffffffffffffff16614a69565b67ffffffffffffffff1643105b80612deb575060016000547201000000000000000000000000000000000000900460ff166007811115612d2357612d23614a0b565b148015612d7f5750600054612d7190790100000000000000000000000000000000000000000000000000810461ffff16906a0100000000000000000000900467ffffffffffffffff16614a69565b67ffffffffffffffff164310155b8015612deb5750600054612db590790100000000000000000000000000000000000000000000000000900461ffff166002614a95565b600054612dde9161ffff16906a0100000000000000000000900467ffffffffffffffff16614a69565b67ffffffffffffffff1643105b604080517f313130000000000000000000000000000000000000000000000000000000000060208201520160405160208183030381529060405290612e435760405162461bcd60e51b81526004016103439190614abf565b507f00000000000000000000000000000000000000000000000000000000000000006040517ffacd743b00000000000000000000000000000000000000000000000000000000815273ffffffffffffffffffffffffffffffffffffffff8781166004830152919091169063facd743b90602401602060405180830381865afa158015612ed3573d6000803e3d6000fd5b505050506040513d601f19601f82011682018060405250810190612ef79190614b61565b604080517f313034000000000000000000000000000000000000000000000000000000000060208201520160405160208183030381529060405290612f4f5760405162461bcd60e51b81526004016103439190614abf565b5073ffffffffffffffffffffffffffffffffffffffff85166000908152600a6020526040808220815161014081019092528161010081018260028282826020028201915b815481526020019060010190808311612f93575050509183525050600282015467ffffffffffffffff8082166020840152680100000000000000008204166040830152606090910190700100000000000000000000000000000000900460ff16600781111561300457613004614a0b565b600781111561301557613015614a0b565b8152600382015460208201526040805180820182529101906004830160028282826020028201915b81548152602001906001019080831161303d575050509183525050604080518082019182905260209092019190600684019060029082845b81548152602001906001019080831161307557505050918352505060408051608081019182905260209092019190600884019060049082845b8154815260200190600101908083116130ae57505050919092525050336000908152600a60205260408082208151610140810192839052949550919392508290610100820190839060029082845b8154815260200190600101908083116130fc575050509183525050600282015467ffffffffffffffff8082166020840152680100000000000000008204166040830152606090910190700100000000000000000000000000000000900460ff16600781111561316d5761316d614a0b565b600781111561317e5761317e614a0b565b8152600382015460208201526040805180820182529101906004830160028282826020028201915b8154815260200190600101908083116131a6575050509183525050604080518082019182905260209092019190600684019060029082845b8154815260200190600101908083116131de57505050918352505060408051608081019182905260209092019190600884019060049082845b815481526020019060010190808311613217575050505050815250509050600060029054906101000a900467ffffffffffffffff1667ffffffffffffffff16816020015167ffffffffffffffff16147f313131000000000000000000000000000000000000000000000000000000000060405160200161329991815260200190565b604051602081830303815290604052906132c65760405162461bcd60e51b81526004016103439190614abf565b50600060029054906101000a900467ffffffffffffffff1667ffffffffffffffff16826020015167ffffffffffffffff16147f313037000000000000000000000000000000000000000000000000000000000060405160200161332b91815260200190565b604051602081830303815290604052906133585760405162461bcd60e51b81526004016103439190614abf565b5060018260600151600781111561337157613371614a0b565b147f31313200000000000000000000000000000000000000000000000000000000006040516020016133a591815260200190565b604051602081830303815290604052906133d25760405162461bcd60e51b81526004016103439190614abf565b506001816060015160078111156133eb576133eb614a0b565b147f313133000000000000000000000000000000000000000000000000000000000060405160200161341f91815260200190565b6040516020818303038152906040529061344c5760405162461bcd60e51b81526004016103439190614abf565b508560405160200161345e9190614cac565b60405160208183030381529060405280519060200120856040516020016134859190614c3d565b604051602081830303815290604052805190602001206040516020016134b5929190918252602082015260400190565b604051602081830303815290604052805190602001208260800151147f313134000000000000000000000000000000000000000000000000000000000060405160200161350491815260200190565b604051602081830303815290604052906135315760405162461bcd60e51b81526004016103439190614abf565b506040805180820190915260018152600260208201528151835161355892919087876142b7565b604080517f3131350000000000000000000000000000000000000000000000000000000000602082015201604051602081830303815290604052906135b05760405162461bcd60e51b81526004016103439190614abf565b506000826040015167ffffffffffffffff16826040015167ffffffffffffffff1610156136125786600183604001516135e99190614cd6565b67ffffffffffffffff168151811061360357613603614b32565b60200260200101519050613649565b86600283604001516136249190614cd6565b67ffffffffffffffff168151811061363e5761363e614b32565b602002602001015190505b84516040838101518151602081019390935260c01b7fffffffffffffffff00000000000000000000000000000000000000000000000016908201526048016040516020818303038152906040528051906020012060001c811890506000826040015167ffffffffffffffff1690506000876000815181106136cc576136cc614b32565b60200260200101519050600061375d60405180606001604052808b6001815181106136f9576136f9614b32565b602002602001015160006002811061371357613713614b32565b602002015181526020018b60018151811061373057613730614b32565b602002602001015160016002811061374a5761374a614b32565b6020020151815260200185815250614178565b90506137d760405180608001604052808460006002811061378057613780614b32565b602002015181526020018460016002811061379d5761379d614b32565b60200201518152602001836000600281106137ba576137ba614b32565b6020020151815260200183600160028110611da857611da8614b32565b915060025b89518110156138c0577f30644e72e131a029b85045b68181585d2833e84879b9709143e1f593f0000001866040015167ffffffffffffffff168509935061388960405180606001604052808c848151811061383957613839614b32565b602002602001015160006002811061385357613853614b32565b602002015181526020018c848151811061386f5761386f614b32565b6020026020010151600160028110611f3357611f33614b32565b91506138ac604051806080016040528085600060028110611f6957611f69614b32565b9250806138b881614bab565b9150506137dc565b506138e66040518060600160405280600181526020016002815260200186815250614178565b8051835191925014158061390257506020808201519083015114155b156139b6577f00000000000000000000000000000000000000000000000000000000000000006040517f048d56c700000000000000000000000000000000000000000000000000000000815273ffffffffffffffffffffffffffffffffffffffff8d81166004830152336024830152919091169063048d56c790604401600060405180830381600087803b15801561399957600080fd5b505af11580156139ad573d6000803e3d6000fd5b50505050613a61565b7f00000000000000000000000000000000000000000000000000000000000000006040517f048d56c700000000000000000000000000000000000000000000000000000000815233600482015273ffffffffffffffffffffffffffffffffffffffff8d81166024830152919091169063048d56c790604401600060405180830381600087803b158015613a4857600080fd5b505af1158015613a5c573d6000803e3d6000fd5b505050505b6000805477010000000000000000000000000000000000000000000000900461ffff16906017613a9083614b8a565b91906101000a81548161ffff021916908361ffff160217905550505050505050505050505050565b600080547201000000000000000000000000000000000000900460ff166007811115613ae657613ae6614a0b565b148015613bad5750600054613b3490790100000000000000000000000000000000000000000000000000810461ffff16906a0100000000000000000000900467ffffffffffffffff16614a69565b67ffffffffffffffff164310158015613bad5750600054613b7790790100000000000000000000000000000000000000000000000000900461ffff166002614a95565b600054613ba09161ffff16906a0100000000000000000000900467ffffffffffffffff16614a69565b67ffffffffffffffff1643105b604080517f313033000000000000000000000000000000000000000000000000000000000060208201520160405160208183030381529060405290613c055760405162461bcd60e51b81526004016103439190614abf565b506000805477010000000000000000000000000000000000000000000000900461ffff16905b82518110156108c1577f000000000000000000000000000000000000000000000000000000000000000073ffffffffffffffffffffffffffffffffffffffff1663facd743b848381518110613c8257613c82614b32565b60200260200101516040518263ffffffff1660e01b8152600401613cc2919073ffffffffffffffffffffffffffffffffffffffff91909116815260200190565b602060405180830381865afa158015613cdf573d6000803e3d6000fd5b505050506040513d601f19601f82011682018060405250810190613d039190614b61565b604080517f313034000000000000000000000000000000000000000000000000000000000060208201520160405160208183030381529060405290613d5b5760405162461bcd60e51b81526004016103439190614abf565b506000600a6000858481518110613d7457613d74614b32565b60209081029190910181015173ffffffffffffffffffffffffffffffffffffffff1682528101919091526040908101600020815161014081019092528161010081018260028282826020028201915b815481526020019060010190808311613dc3575050509183525050600282015467ffffffffffffffff8082166020840152680100000000000000008204166040830152606090910190700100000000000000000000000000000000900460ff166007811115613e3457613e34614a0b565b6007811115613e4557613e45614a0b565b8152600382015460208201526040805180820182529101906004830160028282826020028201915b815481526020019060010190808311613e6d575050509183525050604080518082019182905260209092019190600684019060029082845b815481526020019060010190808311613ea557505050918352505060408051608081019182905260209092019190600884019060049082845b815481526020019060010190808311613ede575050505050815250509050600060029054906101000a900467ffffffffffffffff1667ffffffffffffffff16816020015167ffffffffffffffff1614157f3130350000000000000000000000000000000000000000000000000000000000604051602001613f6191815260200190565b60405160208183030381529060405290613f8e5760405162461bcd60e51b81526004016103439190614abf565b507f000000000000000000000000000000000000000000000000000000000000000073ffffffffffffffffffffffffffffffffffffffff166364c0461c858481518110613fdd57613fdd614b32565b60209081029190910101516040517fffffffff0000000000000000000000000000000000000000000000000000000060e084901b16815273ffffffffffffffffffffffffffffffffffffffff9091166004820152336024820152604401600060405180830381600087803b15801561405457600080fd5b505af1158015614068573d6000803e3d6000fd5b50505050828061407790614b8a565b93505050808061408690614bab565b915050613c2b565b60008061409c600384614cff565b90506140a9816002614d3a565b915060006140b8826003614d3a565b6140c29085614d77565b9050806002036140da576140d7836001614bfc565b92505b5050919050565b6140e96144f9565b600060408260808560067ffffffffffffffffffffffffffffffffffffffffffffffffffffffffffffffffffa9050807f373030000000000000000000000000000000000000000000000000000000000060405160200161414b91815260200190565b604051602081830303815290604052906140da5760405162461bcd60e51b81526004016103439190614abf565b6141806144f9565b600060408260608560077ffffffffffffffffffffffffffffffffffffffffffffffffffffffffffffffffffa9050806142205760405162461bcd60e51b8152602060048201526024808201527f656c6c6970746963206375727665206d756c7469706c69636174696f6e20666160448201527f696c6564000000000000000000000000000000000000000000000000000000006064820152608401610343565b50919050565b6000614230614517565b60006020826101808660087ffffffffffffffffffffffffffffffffffffffffffffffffffffffffffffffffffa9050806142ac5760405162461bcd60e51b815260206004820152601d60248201527f656c6c69707469632063757276652070616972696e67206661696c65640000006044820152606401610343565b505160011492915050565b60006142c16144f9565b6142c96144f9565b61433060405180606001604052808a6000600281106142ea576142ea614b32565b602002015181526020018a60016002811061430757614307614b32565b602002015181526020018660016002811061432457614324614b32565b60200201519052614178565b915061438d60405180606001604052808960006002811061435357614353614b32565b602002015181526020018960016002811061437057614370614b32565b602002015181526020018660006002811061432457614324614b32565b905060006143b2604051806080016040528085600060028110611f6957611f69614b32565b905061440f6040518060600160405280896000600281106143d5576143d5614b32565b60200201518152602001896001600281106143f2576143f2614b32565b602002015181526020018760016002811061432457614324614b32565b925061446c60405180606001604052808860006002811061443257614432614b32565b602002015181526020018860016002811061444f5761444f614b32565b602002015181526020018760006002811061432457614324614b32565b9150600061449160405180608001604052808660006002811061219a5761219a614b32565b905060008a8a8a8a86866040516020016144b096959493929190614d8e565b604080518083037fffffffffffffffffffffffffffffffffffffffffffffffffffffffffffffffe0018152919052805160209091012096519096149a9950505050505050505050565b60405180604001604052806002906020820280368337509192915050565b60405180602001604052806001906020820280368337509192915050565b7f4e487b7100000000000000000000000000000000000000000000000000000000600052604160045260246000fd5b604051601f82017fffffffffffffffffffffffffffffffffffffffffffffffffffffffffffffffe016810167ffffffffffffffff811182821017156145ab576145ab614535565b604052919050565b600067ffffffffffffffff8211156145cd576145cd614535565b5060051b60200190565b803573ffffffffffffffffffffffffffffffffffffffff811681146145fb57600080fd5b919050565b600082601f83011261461157600080fd5b81356020614626614621836145b3565b614564565b82815260059290921b8401810191818101908684111561464557600080fd5b8286015b848110156146675761465a816145d7565b8352918301918301614649565b509695505050505050565b60006020828403121561468457600080fd5b813567ffffffffffffffff81111561469b57600080fd5b6146a784828501614600565b949350505050565b600082601f8301126146c057600080fd5b6040516040810181811067ffffffffffffffff821117156146e3576146e3614535565b80604052508060408401858111156146fa57600080fd5b845b818110156147145780358352602092830192016146fc565b509195945050505050565b600082601f83011261473057600080fd5b81356020614740614621836145b3565b82815260069290921b8401810191818101908684111561475f57600080fd5b8286015b848110156146675761477588826146af565b835291830191604001614763565b600082601f83011261479457600080fd5b813560206147a4614621836145b3565b82815260059290921b840181019181810190868411156147c357600080fd5b8286015b8481101561466757803567ffffffffffffffff8111156147e75760008081fd5b6147f58986838b010161471f565b8452509183019183016147c7565b6000806000806080858703121561481957600080fd5b843567ffffffffffffffff8082111561483157600080fd5b61483d88838901614600565b955060209150818701358181111561485457600080fd5b8701601f8101891361486557600080fd5b8035614873614621826145b3565b81815260059190911b8201840190848101908b83111561489257600080fd5b928501925b828410156148b057833582529285019290850190614897565b975050505060408701359150808211156148c957600080fd5b506148d687828801614783565b9250506148e5606086016145d7565b905092959194509250565b6000806040838503121561490357600080fd5b82359150614913602084016145d7565b90509250929050565b600080600080600060e0868803121561493457600080fd5b61493d866145d7565b945060208087013567ffffffffffffffff8082111561495b57600080fd5b818901915089601f83011261496f57600080fd5b813561497d614621826145b3565b81815260059190911b8301840190848101908c83111561499c57600080fd5b938501935b828510156149ba578435825293850193908501906149a1565b9850505060408901359250808311156149d257600080fd5b50506149e08882890161471f565b9350506149f087606088016146af565b91506149ff8760a088016146af565b90509295509295909350565b7f4e487b7100000000000000000000000000000000000000000000000000000000600052602160045260246000fd5b7f4e487b7100000000000000000000000000000000000000000000000000000000600052601160045260246000fd5b600067ffffffffffffffff808316818516808303821115614a8c57614a8c614a3a565b01949350505050565b600061ffff80831681851681830481118215151615614ab657614ab6614a3a565b02949350505050565b600060208083528351808285015260005b81811015614aec57858101830151858201604001528201614ad0565b81811115614afe576000604083870101525b50601f017fffffffffffffffffffffffffffffffffffffffffffffffffffffffffffffffe016929092016040019392505050565b7f4e487b7100000000000000000000000000000000000000000000000000000000600052603260045260246000fd5b600060208284031215614b7357600080fd5b81518015158114614b8357600080fd5b9392505050565b600061ffff808316818103614ba157614ba1614a3a565b6001019392505050565b60007fffffffffffffffffffffffffffffffffffffffffffffffffffffffffffffffff8203614bdc57614bdc614a3a565b5060010190565b600060208284031215614bf557600080fd5b5051919050565b60008219821115614c0f57614c0f614a3a565b500190565b8060005b6002811015614c37578151845260209384019390910190600101614c18565b50505050565b815160009082906020808601845b83811015614c7157614c5e858351614c14565b6040949094019390820190600101614c4b565b50929695505050505050565b7f4e487b7100000000000000000000000000000000000000000000000000000000600052601260045260246000fd5b815160009082906020808601845b83811015614c7157815185529382019390820190600101614cba565b600067ffffffffffffffff83811690831681811015614cf757614cf7614a3a565b039392505050565b600082614d35577f4e487b7100000000000000000000000000000000000000000000000000000000600052601260045260246000fd5b500490565b6000817fffffffffffffffffffffffffffffffffffffffffffffffffffffffffffffffff0483118215151615614d7257614d72614a3a565b500290565b600082821015614d8957614d89614a3a565b500390565b614d988188614c14565b614da56040820187614c14565b614db26080820186614c14565b614dbf60c0820185614c14565b614dcd610100820184614c14565b614ddb610140820183614c14565b61018001969550505050505056fea2646970667358221220767d06782e9bb1b290314440bb6b9bcff28bc63cdb999d625b9ead8d351d496164736f6c634300080d0033",
  "linkReferences": {},
  "deployedLinkReferences": {}
}